:1000000040380020A11E0000397400008D1E000041
:100010008D1E00008D1E00008D1E000000000000DF
:10002000000000000000000000000000612000004F
:100030008D1E000000000000FD1F00008D1E00004E
:100040003D2200003D2200003D2200003D22000034
:100050003D2200003D2200003D2200003D22000024
:100060003D2200003D2200003D2200003D22000014
:100070003D2200003D2200003D2200003D22000004
:100080003D2200003D2200003D2200003D220000F4
:100090003D2200003D2200003D2200003D220000E4
:1000A0003D2200003D2200003D2200003D220000D4
:1000B0003D2200003D2200003D2200003D220000C4
:1000C0003D2200003D2200003D2200003D220000B4
:1000D0003D2200003D2200003D2200003D220000A4
:1000E0003D2200003D2200003D2200003D22000094
:1000F0003D2200003D2200003D2200003D22000084
:100100004FEA4102B2F1E04324BFB3F5001CDCF139
:10011000FE5C0DD901F0004C4FEAC0024CEA507071
:10012000B2F1004F40EB830008BF20F001007047A0
:1001300011F0804F21D113F13872BCBF01F00040A3
:10014000704741F480114FEA5252C2F11802C2F1D5
:10015000200C10FA0CF320FA02F018BF40F0010056
:100160004FEAC1234FEAD32303FA0CFC40EA0C0008
:1001700023FA02F34FEA4303CCE77FEA625307D145
:1001800050EA01331EBF4FF0FE4040F4400070477C
:1001900001F0004040F0FE4040F40000704700BF16
:1001A00080F0004002E000BF81F0004142001FBF2C
:1001B0005FEA410392EA030F7FEA226C7FEA236C35
:1001C0006AD04FEA1262D2EB1363C1BFD21841402A
:1001D00048404140B8BF5B42192B88BF704710F0C0
:1001E000004F40F4000020F07F4018BF404211F063
:1001F000004F41F4000121F07F4118BF494292EACB
:10020000030F3FD0A2F1010241FA03FC10EB0C00F6
:10021000C3F1200301FA03F100F0004302D5494283
:1002200060EB4000B0F5000F13D3B0F1807F06D330
:1002300040084FEA310102F10102FE2A51D2B1F128
:10024000004F40EBC25008BF20F0010040EA03001D
:100250007047490040EB0000013A28BFB0F5000F9D
:10026000EDD2B0FA80FCACF1080CB2EB0C0200FA53
:100270000CF0AABF00EBC25052421843BCBFD040A2
:100280001843704792F0000F81F4000106BF80F41C
:1002900000000132013BB5E74FEA41037FEA226CDF
:1002A00018BF7FEA236C21D092EA030F04D092F0AA
:1002B000000F08BF0846704790EA010F1CBF0020DE
:1002C000704712F07F4F04D1400028BF40F000403B
:1002D000704712F100723CBF00F50000704700F05B
:1002E000004343F0FE4040F4000070477FEA226282
:1002F00016BF08467FEA23630146420206BF5FEA53
:10030000412390EA010F40F4800070474FF0000352
:1003100004E000BF10F0004348BF40425FEA000C19
:1003200008BF704743F0964301464FF000001CE0C1
:1003300050EA010208BF70474FF000030AE000BF17
:1003400050EA010208BF704711F0004302D5404255
:1003500061EB41015FEA010C02BF844601460020C7
:1003600043F0B64308BFA3F18053A3F50003BCFAE2
:100370008CF2083AA3EBC25310DB01FA02FC63448F
:1003800000FA02FCC2F12002BCF1004F20FA02F296
:1003900043EB020008BF20F00100704702F1200289
:1003A00001FA02FCC2F1200250EA4C0021FA02F2EA
:1003B00043EB020008BF20EADC7070474FF0FF0CEF
:1003C0001CEAD0521EBF1CEAD15392EA0C0F93EAEA
:1003D0000C0F6FD01A4480EA010C400218BF5FEA8C
:1003E00041211ED04FF0006343EA501043EA5111FF
:1003F000A0FB01310CF00040B1F5000F3EBF4900F9
:1004000041EAD3715B0040EA010062F17F02FD2AFC
:100410001DD8B3F1004F40EBC25008BF20F00100DF
:10042000704790F0000F0CF0004C08BF49024CEAF6
:10043000502040EA51207F3AC2BFD2F1FF0340EA88
:10044000C250704740F400004FF00003013A5DDCF9
:1004500012F1190FDCBF00F000407047C2F100023A
:10046000410021FA02F1C2F1200200FA02FC5FEA27
:10047000310040F1000053EA4C0308BF20EADC7071
:10048000704792F0000F00F0004C02BF400010F4E3
:10049000000F013AF9D040EA0C0093F0000F01F090
:1004A000004C02BF490011F4000F013BF9D041EAB2
:1004B0000C018FE70CEAD15392EA0C0F18BF93EAB4
:1004C0000C0F0AD030F0004C18BF31F0004CD8D1DE
:1004D00080EA010000F00040704790F0000F17BF65
:1004E00090F0004F084691F0000F91F0004F14D0AB
:1004F00092EA0C0F01D142020FD193EA0C0F03D103
:100500004B0218BF084608D180EA010000F0004005
:1005100040F0FE4040F40000704740F0FE4040F4E0
:10052000400070474FF0FF0C1CEAD0521EBF1CEA7F
:10053000D15392EA0C0F93EA0C0F69D0A2EB03029D
:1005400080EA010C49024FEA402037D04FF0805337
:1005500043EA111143EA10130CF000408B4238BFFC
:100560005B0042F17D024FF4000C8B4224BF5B1A0A
:1005700040EA0C00B3EB510F24BFA3EB510340EA58
:100580005C00B3EB910F24BFA3EB910340EA9C0006
:10059000B3EBD10F24BFA3EBD10340EADC001B0176
:1005A00018BF5FEA1C1CE0D1FD2A3FF650AF8B421A
:1005B00040EBC25008BF20F0010070470CF0004C27
:1005C0004CEA50207F32C2BFD2F1FF0340EAC25052
:1005D000704740F400004FF00003013A37E792F013
:1005E000000F00F0004C02BF400010F4000F013A71
:1005F000F9D040EA0C0093F0000F01F0004C02BF6C
:10060000490011F4000F013BF9D041EA0C0195E7D4
:100610000CEAD15392EA0C0F08D142027FF47DAF6D
:1006200093EA0C0F7FF470AF084676E793EA0C0F5D
:1006300004D14B023FF44CAF08466EE730F0004C5B
:1006400018BF31F0004CCAD130F000427FF45CAFEB
:1006500031F000437FF43CAF5FE700BF4FF0FF3C59
:1006600006E000BF4FF0010C02E000BF4FF0010CAC
:100670004DF804CD4FEA40024FEA41037FEA226C75
:1006800018BF7FEA236C11D001B052EA530C18BF97
:1006900090EA010F58BFB2EB030088BFC81738BFFC
:1006A0006FEAE17018BF40F0010070477FEA226CEA
:1006B00002D15FEA402C05D17FEA236CE4D15FEAE6
:1006C000412CE1D05DF8040B704700BF844608461A
:1006D0006146FFE70FB5FFF7C9FF002848BF10F1DB
:1006E000000F0FBD4DF808EDFFF7F4FF0CBF012020
:1006F00000205DF808FB00BF4DF808EDFFF7EAFFAA
:1007000034BF012000205DF808FB00BF4DF808ED64
:10071000FFF7E0FF94BF012000205DF808FB00BF59
:100720004DF808EDFFF7D2FF94BF012000205DF8DF
:1007300008FB00BF4DF808EDFFF7C8FF34BF0120EC
:1007400000205DF808FB00BF4FEA4002B2F1FE4F07
:100750000FD34FF09E03B3EB12620DD94FEA002383
:1007600043F0004310F0004F23FA02F018BF40425C
:1007700070474FF00000704712F1610F01D1420243
:1007800005D110F0004008BF6FF0004070474FF0F7
:100790000000704753B94AB9002908BF00281CBFA0
:1007A0004FF0FF314FF0FF3000F00CB8ADF1080C06
:1007B0006DE904CE00F008F8DDF804E0DDE902237D
:1007C00004B07047704700BF2DE9F04786468C465D
:1007D0000846089E154674461946002B40F0C28014
:1007E0008542B2FA82F245D94AB1C2F1200300FA39
:1007F00002FC2EFA03F3954043EA0C0C94404FEAB6
:10080000154EA8B2BCFBFEF8230C0EFB18CC08FB5F
:1008100000F943EA0C43994528D9EB1808F1FF3752
:1008200004D2994502D9A8F102072B44A3EB09038E
:10083000A4B2B3FBFEFC0EFB1C330CFB00F044EA3D
:100840000344A04214D92C190CF1FF3304D2A04266
:1008500002D9ACF102032C44241A43EA07401EB12A
:10086000D440002334607360BDE8F0874746DDE77D
:100870006346F1E792BB431B01214FEA154EAFB22D
:10088000B3FBFEFC200C0EFB1C330CFB07F840EA0C
:100890000343984562D9EB180CF1FF3004D2984518
:1008A00002D9ACF102002B44A3EB0803A4B2B3FBC2
:1008B000FEFC0EFB1C330CFB07F744EA0344A74283
:1008C0004ED92C190CF1FF3304D2A74202D9ACF156
:1008D00002032C44E41B43EA0040C0E7C2F12003BA
:1008E00020FA03F1954090402EFA03F303434FEAB8
:1008F000154EAFB2B1FBFEFC0EFB1C10190C0CFB2D
:1009000007F841EA0041884504FA02F422D969183F
:100910000CF1FF3004D2884502D9ACF10200294421
:10092000A1EB08019BB2B1FBFEFC0EFB1C110CFB02
:1009300007F743EA01439F420ED9EB180CF1FF3150
:1009400004D29F4202D9ACF102012B44DB1B41EAE5
:10095000004192E76046E3E76146F7E76046A3E7B8
:100960006346B7E7834206D916B9002108467BE7FC
:10097000C6E900E0F9E7B3FA83F78FB9834201D300
:10098000724508D8BEEB020460EB030301209C46CD
:100990001EB9002168E73846FAE7C6E9004CF8E7D7
:1009A000C7F1200CBB4022FA0CF41C432EFA0CF1C8
:1009B00020FA0CF3B84001434FEA14490EFA07F548
:1009C000B3FBF9F81FFA84FE09FB18300B0C08FB87
:1009D0000EFA43EA00439A4502FA07F240D9E318B7
:1009E00008F1FF3004D29A4502D9A8F1020023444D
:1009F000A3EB0A0389B2B3FBF9F809FB183308FB30
:100A00000EFE41EA03418E452CD9611808F1FF33EF
:100A100004D28E4502D9A8F10203214443EA0040E2
:100A2000A0FB0298A1EB0E014145CE46434602D3FE
:100A300006D14D4504D2B9EB020E68EB0403013830
:100A4000002EA6D0B5EB0E0261EB030101FA0CFCFF
:100A500022FA07F34CEA0303F940C6E9003198E7AC
:100A60004046C5E74346D9E7034613F8012B002A61
:100A7000FBD1181A013870472DE9F843DFF85C8084
:100A8000174FDFF8609000264FF0FF324FF0FF3332
:100A9000404604F079FC00F005FE054600F034FD08
:100AA000014650B9002EEFD0384606F0D8FA002D96
:100AB000EAD00D4806F066FBE6E700F097FD8642B7
:100AC000044608D00146384606F0C9FA1DB1214651
:100AD000484606F057FB2646D6E700BFE000002058
:100AE000788A0000B18D0000988D00002DE9F74351
:100AF00000234FF480421E481D4FDFF878801E4EC1
:100B0000CDE9002305F034F9384605F06BF900F023
:100B1000FBFC054600F01EFD814600F041FD294624
:100B20000446404606F09BFA65B92946304606F071
:100B300096FA2946114806F092FA2946104806F01E
:100B40008EFAE1E7A4EB0904A11C04298CBF002163
:100B50000121304606F083FAA31CACBF002101211D
:100B6000064806F07CFA022CD4BF00210121E5E7FB
:100B700080020020988A0000908A0000888A000085
:100B8000808A00002DE9F04186B000248DF80B40EA
:100B90004FF4005200232C48CDE9002305F0E8F87B
:100BA0002A4D284607F088F9002843D00122022365
:100BB000039404928DF81430AB68234E9C68244F44
:100BC0004D2303A92846A047304605F00BF90DF147
:100BD0000B0303930122032304928DF81430AB68B6
:100BE00003A99C6828464D23A0479DF90B0000F0FF
:100BF000C3FC07F0FCFA0446884600F053FDA8B198
:100C00004FF47A72A4FB020302FB0831C00B40EAE6
:100C100041404FF47A720023C90BFFF7BBFD9DF8EA
:100C20000B1013460246384606F0ACFA094804F0A9
:100C300087FBC9E72968084806F0A4FA4FF0FF309F
:100C400006B0BDE8F08100BFB80200205485000066
:100C5000E08D0000F0000020C58D00002DE9F0417E
:100C6000204E214F214DDAB000F056FA00F060FA24
:100C70004FF0FF324FF0FF33304604F085FB00F0B9
:100C8000A5FA69461AA800F05FFA384606F07AFA23
:100C90001AAC4FF00008009B43451BDC284606F0C9
:100CA00071FA134B01A81C68FFF7DEFE0246A36829
:100CB00001A9D3F8048020464FF0FF33C047014616
:100CC0000028D1D00B4806F05DFA4FF0FF305AB043
:100CD000BDE8F08114F8010B05F0B4FA08F1010841
:100CE000D9E700BFD0000020098E000089900000E5
:100CF00000010020148E00002DE9F8430B780E4609
:100D0000062B6DD8DFE803F024044B5024576A000B
:100D10003448BDE8F84306F035BAB368DFF8C88058
:100D200009EB0702D55C232D14D1012388F800308C
:100D300000232360236828460133236000F0C8F9AC
:100D40002A48294606F01EFA0137F368BB42E4D868
:100D5000BDE8F88398F80030002BF5D023683A2BD3
:100D600016DC236828460133236000F0B1F91F48E0
:100D7000294606F007FA212DE6D11D4806F002FAB1
:100D800023681C4804F0DCFA002388F80030DBE715
:100D9000194806F0F7F9002388F80030E7E7DFF894
:100DA0005C90174C0027D0E7164806F0EBF90E4B85
:100DB00000221A70CCE7144B186883680F49DC686E
:100DC0003C224FF47A73A04701460028C0D00F4858
:100DD00006F0D8F94FF0FF3005F026FA0C4898E7F6
:100DE0000C4896E7358E0000801000204E8E0000E3
:100DF0008A910000D0000020538E00008110002056
:100E000000070020518E000000010020718E0000BC
:100E1000998E0000B28E00002DE9F04385B00446A3
:100E20000D46174602A903AA01A81E46DDF8309018
:100E300000F008FC29462046FFF7B6F9019905465F
:100E4000FFF7BCFA394680462846FFF7B7FAD9F8CB
:100E50000010FFF7ABF915490446FFF76BFC10BB18
:100E600013492046FFF748FC00B1114C0299C9F81C
:100E700000402046FFF7A2FA316881462846FFF776
:100E800093F93946FFF74EFB0399FFF797FA494666
:100E9000044635604046FFF789F92146FFF786F999
:100EA00005B0BDE8F083014CE0E700BF0000A041C1
:100EB0000000A0C12DE9F04385B00024DFF8888050
:100EC000029403944FF07A594FF0FF324FF0FF3302
:100ED000404604F059FA00F063FBFFF71BFA0546A1
:100EE00000F038FBFFF716FA02AB0093294603AB7C
:100EF0004A460646FFF790FF21460746FFF71AFCD1
:100F000008B100F001FB00F0010000F05BFB00F015
:100F1000C9FBA8B121463846FFF70CFC0B4F0C4B20
:100F2000002808BF1F463046FFF70EFC064628463D
:100F3000FFF70AFC334602463946064806F022F916
:100F4000054804F0FDF9BFE7F0000020C98E00005D
:100F5000CC8E0000D08E0000E000002010B51B4CAD
:100F60001B49C8B040F21B1201A807F05AFA2068CA
:100F700006F0A2FF38B9174806F004F94FF0FF3425
:100F8000204648B010BD206883681B6843B11249F1
:100F900000229847014630B1104806F0F3F8EDE71B
:100FA0006FF05701F8E7206883680D49DC683C2240
:100FB0004FF47A73A047044610B101460948ECE7A4
:100FC000094801A906F0DEF8DAE700BF00010020B9
:100FD000718F0000108F0000F90C0000438F00009B
:100FE00081100020718E00006E8F000008B50D4842
:100FF00006F049F80C4806F046F80C4806F043F8AD
:101000000B4806F040F80B4806F03DF8FFF7A6FF46
:1010100000F03AFA00F01AF800F08AF800F07CF8D4
:10102000002008BD988A0000908A0000888A00008D
:10103000808A0000788A0000014603488368DB69E3
:101040000BB10122184770472C85000070B5174E70
:10105000174D184C304606F06BF8284606F068F835
:10106000204606F065F8304606F049F8284606F0B6
:1010700046F8204606F043F80F48104B43604FF403
:1010800000638360FFF7D8FF0D480E4B43604FF4B9
:1010900080538360FFF7D0FF0B480C4B43604FF049
:1010A00000738360BDE87040FFF7C6BFB08A0000E0
:1010B000A88A0000A08A00001C070020BB70000066
:1010C00010070020E770000004070020CF70000028
:1010D000064A1378132B9FBF0549C85401330020DB
:1010E00094BF13704FF0FF30704700BFD210002044
:1010F000D3100020064A1378132B9FBF0549C8540C
:101100000133002094BF13704FF0FF30704700BFD1
:10111000BD100020BE100020034B04480021142203
:10112000197007F08CB900BFD2100020D310002036
:10113000034B044800211422197007F080B900BF46
:10114000BD100020BE100020034B1A780A6012B1B7
:10115000024907F066B97047BD100020BE1000209C
:10116000012813B529D0022829D000280CBF6F24EC
:10117000692404F14503134A0521684605F068F81F
:101180002320FFF7B7FF4520FFF7B4FF2046FFF706
:10119000B1FF9DF80000FFF7ADFF9DF80100FFF7DC
:1011A000A9FF9DF80200FFF7A5FF2120FFF7A2FF8E
:1011B000054B00221A7002B010BD6624D9E77324D3
:1011C000D7E700BFD3900000D21000202DE9F041F6
:1011D000A94E3378CCB0002B00F04A81A74A0024F6
:1011E000154612F8011B232907D00134A342F8DC6D
:1011F0006FF003004CB0BDE8F081A342F8DD9F48DA
:10120000FFF732FC0438284407F039F831786B18BE
:10121000074613F8013C212BEAD1601C2B5C4D2BB7
:1012200000F0C78009D8432B1ED0442B7CD003206C
:10123000FFF796FF6FF00100DCE7532B00F0D8803A
:10124000562BF4D12C446379212B11D10539284434
:1012500005F085FFB84215D100F024FA80F00100B6
:10126000C0B200F00BFABFE02C446379212B03D00D
:101270000120FFF775FFBBE70539284405F06FFF34
:10128000B84205D00220FFF76BFF6FF00200B1E714
:1012900000F086F980EAE073A3EBE0730546009363
:1012A0000021774B0CAC0C2209A806F0CBFF47F2CB
:1012B0006343002D2380B4BF2D232B23A370032170
:1012C00009AB13F8012B62BB2046134610F8015BF3
:1012D0001746013291422B44F8D16A4ADBB205210C
:1012E00007A804F0B5FF2320FFF704FF002514F83A
:1012F000010BFFF7FFFEBD4205F10105F7D19DF897
:101300001C00FFF7F7FE9DF81D00FFF7F3FE9DF8A8
:101310001E00FFF7EFFE2120FFF7ECFE00203070EB
:1013200068E762540131CCE72C446379212B9FD1CB
:101330000539284405F013FFB842A3D100F00AF99B
:1013400080EAE073A3EBE0730546009300214C4B69
:101350000CAC0C2209A806F075FF47F26343002D80
:101360002380B4BF2D232B23A370032109AB13F8D3
:10137000012BDAB92046134610F8015B17460132FB
:1013800091422B44F8D13F4ADBB2052107A804F073
:101390005FFF2320FFF7AEFE002514F8010BFFF7D7
:1013A000A9FEAF4205F10105F7D1A8E7625401316A
:1013B000DDE72C44237A212B7FF45AAF05392844EA
:1013C00005F0CDFEB8427FF45DAF23798DF808308B
:1013D00002A863798DF8093006F051FFE3782D2BD0
:1013E00008BF404200F0A2F80020FFF7B9FE95E7E1
:1013F00005EB040898F80A30212B7FF439AF053942
:10140000284405F0ACFEB8427FF43CAF023405AA94
:1014100004A903A800F016F92B5D8DF8183098F890
:1014200003308DF8193098F804308DF81A3006A87A
:1014300098F805308DF81B3006F01EFFFEF760FEB1
:101440002B5D692B07460DD0702B07D0642BCBD1B9
:10145000049903983A4600F0DBF8C5E7059A049929
:1014600000F0D6F8059A0398394600F0D1F8EFE776
:101470004FF0FF30BEE600BFD2100020D310002096
:10148000D8900000D390000010B5124C00232370B8
:1014900023734FF0804323610F4B63611C220F4B7A
:1014A000A36104F12000C4E9012205F067FE04F104
:1014B000340005F063FE04F1480005F05FFE04F11E
:1014C0005C0005F05BFE04F17000BDE8104005F023
:1014D00055BE00BF28070020CDCCCC3DCDCC4C3D27
:1014E00038B5084C05464FF0FF3320464FF0FF3229
:1014F00005F040FE04F8205C2046BDE8384005F0C9
:101500003BBE00BF4807002038B5074C4FF0FF3204
:101510004FF0FF33204605F02DFE14F8205C2046E6
:1015200005F02AFE284638BD4807002038B5084C8B
:1015300005464FF0FF3320464FF0FF3205F01AFE0C
:1015400044F8305C2046BDE8384005F015BE00BFC9
:101550005C07002038B5074C4FF0FF324FF0FF33E7
:10156000204605F007FE54F8305C204605F004FEE6
:10157000284638BD5C07002038B5084C05464FF0BA
:10158000FF3320464FF0FF3205F0F4FD44F8405C95
:101590002046BDE8384005F0EFBD00BF70070020D1
:1015A00038B5074C4FF0FF324FF0FF33204605F0BF
:1015B000E1FD54F8405C204605F0DEFD284638BDCC
:1015C0007007002038B5084C05464FF0FF33204621
:1015D0004FF0FF3205F0CEFD04F8505C2046BDE828
:1015E000384005F0C9BD00BF8407002038B5074C5E
:1015F0004FF0FF324FF0FF33204605F0BBFD14F8EB
:10160000505C204605F0B8FD284638BD8407002010
:10161000F8B50B4C07460E46154620464FF0FF33F3
:101620004FF0FF3205F0A6FD44F8607C44F85C6C96
:1016300044F8585C2046BDE8F84005F09DBD00BF69
:1016400098070020F8B50C4C0746154620464FF089
:10165000FF324FF0FF330E4605F08CFD54F8602C3E
:101660003A6054F85C2C326054F8583C2B602046A9
:10167000BDE8F84005F080BD9807002038B5084C5B
:1016800005464FF0FF3320464FF0FF3205F072FD64
:1016900004F8685C2046BDE8384005F06DBD00BF29
:1016A000AC07002038B5074C4FF0FF324FF0FF3346
:1016B000204605F05FFD14F8685C204605F05CFDEF
:1016C000284638BDAC070020014B1B68184700BFF7
:1016D00004010020014B1860704700BF0401002086
:1016E00030B585B004460D4610220021684606F04C
:1016F000A6FE02238DF802302A46044B01932146B0
:10170000684604F0CFFF05B030BD00BFC916000029
:1017100080B505460E461746984604F057F903462D
:1017200006F0B2FEDFF81890044649F80030424651
:1017300030463946A84754F8090000F031FC00BF94
:10174000080000002DE9F047058B04462807904665
:1017500011D4022905F0070540F0CD80204605F0A0
:1017600087FD78B10138218B042811D8DFE800F01B
:10177000C3106D85950001290CBF45F0100545F09B
:101780002005258388F31188BFF36F8FBDE8F087AC
:1017900001F0070AAA4500F0A6800027B9463E4698
:1017A000A368002B00F0BD8041F00801218388F37D
:1017B0001188BFF36F8FA168002900F0BB800D680E
:1017C000002900F0B780D1F8048033465246204605
:1017D000C047002D76D02B6829461D46F0E701F062
:1017E00007035A1F012A1BD8002221F00701062BEC
:1017F000276889B2C4E9002209D13B4603E0628B25
:10180000013262831B68002BF9D141F00201218370
:10181000204605F02DFD00287BD041F0200177E027
:10182000042B0AD121F0070189B22183204605F05B
:101830001FFD10B141F020012183218B01F0070A27
:10184000AA4550D00027B946AAE7236921F007012D
:1018500041F00601062DD3F8009021832DD1B9F176
:10186000000F40D041F00801218388F31188BFF3B5
:101870006F8F3A492046C84729E021F007012369C4
:1018800041F0040189B2042DD3F804902183E6D0FD
:1018900000273E464FF0040A82E721F00701236942
:1018A00041F0050189B2052DD3F808902183D6D0E7
:1018B00000273E464FF0050A72E700273E464FF0EC
:1018C000060A6DE72B4687E7B9F1000FD1D14FF03B
:1018D0002003EFF3118883F31288BFF36F8F238BFC
:1018E00023F008032383258BEA062ED525F0100369
:1018F000238305F007056669218B002EBFF66FAFC5
:1019000000232768C4E9003321F0070141F00101F9
:101910002183218B01F0070AAA454FF000097FF4CB
:101920003FAF002F9BD041F00801218388F311883D
:10193000BFF36F8F002FC7D03D68394633465246FC
:10194000204605F0C1FC2F46F4E7AB067FF51AAF41
:1019500025F02003238305F00705FFE6F57200005C
:1019600008B504464FF02002EFF3118382F312888A
:10197000BFF36F8F02F0C4F8204600F0BBFA0348B3
:1019800005F000FC00F034FCFCE700BFDD90000037
:10199000014B036000207047B88A0000014804F042
:1019A0009BBA00BFB88A000038B5044618B90F4B7F
:1019B0000F485B6898476168B1F5683F10D0B1F592
:1019C000680F0DD00B4DA9420AD011F46861206850
:1019D00007D00146084806F0A2FA0023236065609C
:1019E00038BD142206F02BFDF9E700BF10020020DD
:1019F000069100002C5F5CA9C00C002008B520B344
:101A00004368B3F5683F10D101220368BFF35B8FD1
:101A100053E8001F002903D143E800200028F7D134
:101A2000BFF35B8F0DD1002008BD094A93420AD055
:101A300000684FF0FF324FF0FF3303F007FC00283F
:101A4000F1D00448F0E70448EEE76FF4E040EBE73C
:101A50002C5F5CA9E98FFFFFEA8FFFFF08B5D8B1C3
:101A60004368B3F5683F10D100220368BFF35B8F72
:101A700053E8001F012903D143E800200028F7D1D3
:101A8000BFF35B8F0BD1002008BD074A934208D0FB
:101A9000006803F09FFBF6E76FF4E040F4E70348CB
:101AA000F2E70348F0E700BF2C5F5CA9E98FFFFF76
:101AB000EA8FFFFF10B5044618B91D4B1D485B683F
:101AC00098476368B3F5683F2FD0B3F5680F2CD003
:101AD000194A934219D1236803BB18484FF0FF32CB
:101AE0004FF0FF33214603F0BBFA08B923681BB956
:101AF0000F4B13485B68984720681422002106F0BA
:101B00009EFC4FF46863636008E0B3F5683F0DD84E
:101B10003A2B03D040F6BA629342DED1206806F039
:101B20003EFA636843F03A03636010BD054AF3E789
:101B300010020020069100002C5F5CA9C00C002060
:101B40002C9100003A00003A08B5064906484023A7
:101B5000142206F0D6F9BDE808400449044804F010
:101B60002DBA00BFC0070020C00C0020C08A0000B2
:101B7000D48A000030BFFFF7FDBF00BF114B124AEF
:101B80002DE9F041D518DFF84480013DB5FBF3F5B0
:101B90005D430F4B08EB0304013CB4FBF3F403FB80
:101BA00004540E1B07460B49304606F03AFC7019E8
:101BB00042460021083E06F042FC3E6704F1080060
:101BC000BDE8F081010000000000000008000000F6
:101BD00004000000D8870000044B996858698842C7
:101BE00003D003494FF080520A607047780E0020FE
:101BF00004ED00E070B5264B15469A6A12F0100FFE
:101C00009A6A14BF1124102412F0080F9A6A18BFA0
:101C10001224920706460AD5586B9A6A140634D5E0
:101C200019B19A6A22F080029A62132401E06FF0DF
:101C30001500174B9A6A12F0010F9A6A18BF142404
:101C400012F0200F9A6A18BF1524D20602D49B6A9C
:101C50009B070AD50E4B5B68190506D5314600F087
:101C60008FFA10B180F309880224094B9A6A920610
:101C700042BF5A6A22F400525A629A6A42F0FF0244
:101C80009A6200232B70204670BD6FF01500CCE7E0
:101C900000ED00E0134B9A6A12F0007F9A6A14BFBD
:101CA0001E201D2012F0807F9A6A18BF1F2012F498
:101CB000002F9A6A18BF212012F4802F9A6A18BF49
:101CC000222012F4003F9A6A18BF232012F4803FAA
:101CD0009A6A6FEA02426FEA12429A6218BF24209F
:101CE000704700BF00ED00E010B5194B0246986A3E
:101CF0009C6A10F4805F14BF1720162014F4006F44
:101D00009C6A18BF1820A40509D5986B986A00042E
:101D100004D51AB19A6A22F400429A6219200C4B37
:101D20009A6A12F4806F9A6A18BF1A20D2050CD4EE
:101D30009B6A13F4005F18BF1C20054A936A43F4A2
:101D40007F43936200230B7010BD1B20F5E700BF9B
:101D500000ED00E0F0B5484B5B688BB00446C3F380
:101D60000803002585F31188BFF36F8F02F07F40D1
:101D7000B0F17F4F11D102F00C0008280DD01007F0
:101D80004CBF0C4601250022033B8DF80720032B96
:101D900005D8DFE803F0246367602C46F3E70023EF
:101DA0009DF80720CAB902AE04F1200720686168D7
:101DB000324603C20834BC421646F7D1099A002DB8
:101DC00054D0C2F3080121B96FEA52226FEA4222CD
:101DD000099202A9184605F029FB0BB0F0BD264B6D
:101DE000DA6A9107DBD4DA6A002AD8DBDA6A5200B1
:101DF000D5D55A69A16942F480725A61BFF34F8FF9
:101E0000BFF36F8F5A6931F8021C22F480725A6155
:101E1000BFF34F8FBFF36F8F4DF6027291420AD01E
:101E20009A6AD2B24AB10DF1070201212046FFF7AA
:101E3000E1FE0346B4E72368B2E79A6A12F47F4FE3
:101E400005D00DF107010120FFF74EFFF1E79B6A76
:101E5000B3F5803FA3D3FFF71DFFEAE70DF10702BB
:101E60000021E3E70DF107010020EDE722F4FF7206
:101E700022F00102ACE700BF00ED00E0024A536926
:101E800043F010035361704700ED00E0EFF308806A
:101E9000EFF3098101B57246FFF75CFF01BD00BF9A
:101EA000002080F31488BFF36F8F00F03BFB00200D
:101EB0000D490860BFF34F8F0C4880F3088800F08D
:101EC0003DF8202080F3118809484FF40461401840
:101ED00080F30988EFF314800221084380F314880B
:101EE000BFF36F8F00F014F994ED00E0403800204C
:101EF000802A0020BFF34F8F0549064BCA6802F4C1
:101F0000E0621343CB60BFF34F8F00BFFDE700BF1C
:101F100000ED00E00400FA050749D1F89020002305
:101F2000C2F307221846934200DB7047C1F898308D
:101F3000C1F8A0000133F6E700ED00E008B572B685
:101F4000002383F31388FFF7E7FF144B4FF0FF32B2
:101F5000C3F88020C3F88420C3F88820C3F88C20FD
:101F6000C3F89020C3F89420C3F89820C3F89C20AD
:101F7000C3F88021C3F88421C3F88821C3F88C21D9
:101F8000C3F89021C3F89421C3F89821C3F89C2189
:101F900062B6BFF34F8FBFF36F8F08BD00E100E063
:101FA000084B9B6883420BD1EFF3058343B1064B8B
:101FB0005A6842F080525A605A6A22F400425A62C9
:101FC00006F0DAB8780E002000ED00E0094A9368C8
:101FD0006FF00A019967084958674B6843F08053CE
:101FE0004B60002383F31188BFF36F8F9368986F62
:101FF000704700BF780E002000ED00E015498A68A8
:102000004FF030001044EFF3098C80E8F01F2020DF
:1020100080F31288BFF36F8F0F4F4FF000664A694D
:102020008A603E604FF07004141920680B4C2060E9
:10203000506F0023536780F3118804B5104600F0F9
:102040001DF9BDE8044002F1300090E8F01F8CF368
:1020500009887047780E002004ED00E0DC0C0020B9
:102060001EF0040F0CBFEFF30880EFF309808169C5
:1020700011F8021C0229FFD001B505F0D9F901BD04
:1020800040B2002807DB044A4109012300F01F0089
:10209000834042F82130704700E100E040B2002860
:1020A0000CDB4309064900F01F0020330122824067
:1020B00041F82320BFF34F8FBFF36F8F704700BFEE
:1020C00000E100E0054B420900F01F0053F8222018
:1020D000012303FA00F01040704700BF00E100E068
:1020E00040B20028A8BF00F1604001F10101B8BF73
:1020F000064B4FEA4111ACBF00F5614000F00F0004
:10210000C9B2B4BF195480F80013704714ED00E051
:102110000B4A08B50B4B22F07F029A60BFF34F8F3A
:10212000BFF36F8FD3F8882022F47002C3F88820A1
:1021300002F0C4FE03F050FC00F074F802F010FF4F
:102140000000000000ED00E042F8203C009B42F857
:102150001C3C0A49019B42F8183C029B42F8143C83
:1021600021F001014FF0807342F8043C42F8081C52
:102170000023203A02654367704700BF1117000033
:10218000094A0346906870B113F1160F006E05D02E
:10219000A0F140029A4205D8834203D2814228BF6F
:1021A0000020704700207047780E002008B51446C4
:1021B0000A4A0B4B9060026F1A600D4600F05EF801
:1021C000204685F30988002163B681F31188BFF3A7
:1021D0006F8F00220023FFF79BFA00BF780E0020CC
:1021E000DC0C0020014910220A60704710ED00E06D
:1021F00072B6404080F31188BFF36F8FBFF34F8FEB
:1022000030BF62B6BFF36F8F704700BF72B64940F0
:1022100081F31188BFF34F8F20BF80F3118862B61E
:10222000704700BF044800232021C2180133302B1F
:1022300082F80013F9D1704700E100E001B5EFF337
:102240000580A0F110004FEAC0000449014409C90B
:102250009847BDE801400249084700006885000032
:10226000D91B0000024B034A0348012100F040B88B
:102270000000042000000020E48A0000026E054BEC
:10228000403A1A60044A4021C3E90112184601216C
:1022900000F038B8E00C002000000B15084AC2F826
:1022A00098000B6823F01F03034343F01003C2F8A8
:1022B0009C308B6843F00103C2F8A030704700BF28
:1022C00000ED00E0044B0522C3F89420BFF34F8FCC
:1022D000BFF36F8F704700BF00ED00E0BFF35F8F6B
:1022E000024B0022C3F89420704700BF00ED00E0CD
:1022F00010B5034C0123227805F0B9F8207010BD09
:10230000E710002008B5094A0023127805F0AFF85D
:1023100010F1160F03D0064B0022072800DD08BD80
:10232000C3F89800C3F8A0200130F6E7E7100020BA
:1023300000ED00E0F0B5454D2C68082C85B000F2AA
:102340008280FFF7CBFF00200C2684420DD1404D48
:10235000404F2C706846FFF71BFB00240646A64240
:102360000AD1FFF7AFFF00201CE0696806FB0011EF
:10237000FFF794FF0130E8E7009800EB04114FEA03
:10238000041CCB683B40B3F5000F4AD00CD8B3F522
:10239000001F30D0B3F5800F38D0B3F5801F12D0B6
:1023A0006FF0150005B0F0BDB3F1807F42D0B3F1FE
:1023B000007FF5D150F80C3088684A6805F047F87E
:1023C00040F4802009E050F80C3088684A6805F035
:1023D0003EF840F0885040F43020039028780728D9
:1023E000CDE90123DCD801A9FFF758FF2B78013391
:1023F0002B700134B3E750F80C3088684A6805F058
:1024000026F840F0885040F40020E6E750F80C3001
:1024100088684A6805F01BF840F0E06040F400303E
:10242000DBE750F80C3088684A6805F010F840F097
:102430008270D2E750F80C3088684A6805F007F8D7
:1024400040F08870C9E74FF0FF30ABE7F08A00003A
:10245000E71000200000F0FF08B5024B1B6898470A
:10246000002008BDEC0C0020034B044A1860937850
:1024700043F0020393707047EC0C00202801002009
:1024800008B5024804F07EFEFEE700BF6891000038
:1024900008B5044804F076FE404080F311884FF000
:1024A000020002DF6E91000008B50649064821F0DF
:1024B0000701C1F1005202F5802204F09CFE0020C9
:1024C00008BD00BF87380020F00C00200E4A012311
:1024D000C2F840354FF080424FF08051C2F8783555
:1024E000D1F83001082808D1D1F83411052904D8D1
:1024F0000648415C09B1C2F838364FF080430122EA
:10250000C3F880250020704700E001408C91000056
:1025100020B1034B800143F001031847704700BF0F
:10252000E087000001F01EBB084B70B5C31A0D46D2
:1025300007499B10044659430648402204F0E6FF31
:102540002B4601462046BDE870401847100D00207C
:10255000B76DDBB60485000073B50C4C0C4A402304
:10256000041B00930D460B460A49A410614306461E
:10257000094804F0F8FF011E05DA30462B4602B088
:10258000BDE87040184702B070BD00BF100D0020BC
:10259000D3750000B76DDBB604850000002270B56E
:1025A000012104461046FFF79BFD0F4801F064FC33
:1025B0000E4B984215D101F06FFC26690C4930464C
:1025C00004F0A6FE00280BDB0125356424690849C8
:1025D00004F11C0004F09CFE002801DBE5640020EF
:1025E00070BD6FF00400FBE7292600000000AD0B72
:1025F000148B000070B501460C2309484B43C418E6
:10260000D4E90E56403300221844A26304F06BFF55
:102610002DB132462B460348BDE87040184770BDC7
:10262000100D00200485000010B1012804D070476F
:10263000034B1B6C5B0701D1FFF7DCBF704700BF8A
:10264000100D002008B54FF02003EFF3118183F344
:102650001288BFF36F8F124A136843F002001060B4
:10266000DA0708D481F31188BFF36F8F0120BDE82A
:10267000084001F023BC4FF08043D3F80C24D3F87A
:102680000C34DB07EED5074804F02DFF81F31188E9
:10269000BFF36F8F0020BDE80840FFF7ABBF00BF5E
:1026A000600D0020500D00201FB500220123CDE950
:1026B0000223094ACDF800D06B46CDF804D004F0CF
:1026C00081FF002805DB4FF480420023684602F0BA
:1026D0005BFE05B05DF804FBF175000010B54FF02E
:1026E0002003EFF3118483F31288BFF36F8F074A3F
:1026F000136823F00201DB07116002D4012005F00A
:10270000A8FA84F31188BFF36F8F10BD600D00200D
:102710002DE9F0413849BFF35B8F0746012251E8AC
:10272000003F41E800200028F9D1BFF35B8F33B9A7
:10273000324933484B60CB608A6004F0FCFD7B1E5D
:10274000012B2BD8012F07D14FF08043D3F81C3435
:1027500003F00303012B21D005F007FC0546F8B96F
:10276000284B1B78E3B14FF080430222C3F80823C3
:102770000646DFF894804FF08044D4F81824D4F84B
:102780001834D20316D503F00303012B01D0012F17
:1027900010D15DB386F31188BFF36F8FBDE8F08170
:1027A0004FF02003EFF3118683F31288BFF36F8F8E
:1027B0000125DEE7ADB13046FFF728FDD4F8183526
:1027C000002BDAD1D4F80421002AD6D0C4F8043181
:1027D000D4F804310123C4F81835C8F88031A36057
:1027E000CBE70021212003F0D7F8E7E74FF0804343
:1027F0000222C3F80423D1E70C0D0020FC0C0020BA
:102800002C0D00200215002000E100E008B507486B
:1028100005F052FB38B10648FFF726FE0448FEF7E4
:1028200059FF002008BD6FF01200FBE74085000053
:10283000352800000A2838B5074D044604D1AB6896
:102840000D21DB6928469847AB680348DB69E1B294
:102850009847204638BD00BF40850000F0B540686D
:10286000057B01F01F0444EA4514056987B0002D7B
:1028700064D0B2F5001F00F1100506D121462846AC
:1028800005F067FA002007B0F0BD01AE0027B2F5F1
:10289000800F0197776039D1B3F1007F14BF052312
:1028A00004238DF804300023CDE904630393836887
:1028B00023FA01F111F001011AD1B2F1A07F17D171
:1028C00004F01F03620903F5E0732AD0012A3BD10B
:1028D0001F4A52F82330DB070AD40DF103063246B3
:1028E0002146284601F0C8FD1A4B98421CD002969A
:1028F00003AA2146284601F081FC174B984220D1BB
:1029000001222146284601F01FFEBBE7B3F1C06F4C
:1029100005D0B3F1007F14BF01230223C1E70323D5
:10292000BFE74FF0A042D4E73146284601F006FE4B
:10293000094B9842DBD06FF00B00A4E76FF08500E5
:10294000A1E76FF015009EE751F82330FFDE00BFCE
:10295000000300500400AD0B0000AD0B38B5456816
:102960002B69B3B11035284601F0D8FD044680B973
:102970000146284601F09AFD084B98420BD10849C0
:102980002246284601F072FD224605210620FFF767
:10299000A7FB002038BD6FF00400FBE70000AD0B83
:1029A000A5290000420970B5034602D0012A17D0BC
:1029B00070BD0D4E326951680029F9D003F01F0334
:1029C00001250C689D400029F2D08A682A4002D077
:1029D0004B68304698472CB1236821461C46F2E7E5
:1029E000024EE7E72346F8E72C8500001885000033
:1029F0002DE9F043466840F20635D006337B87B0B8
:102A000002EA050554BFC2F34010032001F01F077E
:102A1000B5F5837F144647EA43178DF8030044D089
:102A20000FD8062D18D007D8B5B1022D3FD06FF0C2
:102A3000150007B0BDE8F083B5F5807FF7D101251B
:102A40000AE040F20222954233D0B5F5407F32D001
:102A5000B5F5007FEBD1022522032ED57268012344
:102A60008B40C2F80835326992BB07F01F037F091B
:102A70002BD0012F79D13F4A02EB830284F48033BB
:102A8000D2F80017C3F30043C4F3404444EA4304BC
:102A900021F4E16144EA800421F0070144EA0523BE
:102AA0000B43C2F800370020C3E70725D4E704250D
:102AB000D2E70525D0E70325CEE7630341BF012315
:102AC00072688B40C2F80C35CDE74FF0A042D3E7D7
:102AD00010360DF102023946304601F0CDFC14F4F7
:102AE000403F80460CD13946304605F030F9224B44
:102AF0009845D8D19DF80210304601F019FDD2E773
:102B000001AB4FF0000903AA39463046CDE904393C
:102B1000CDE90199CDF80C9001F070FB164B98426D
:102B200085D114F4003315D09DF803308DF80E30A4
:102B300084F48034C4F300444B4603AA394630463B
:102B40008DF80C508DF80D4001F012FC0A4B9842A4
:102B5000CDD06CE7CDE9043303AA0DF10303394668
:102B60003046039301F04AFBF0E703F5E07352F8B7
:102B70002330FFDE000300500000AD0B08B54368B2
:102B80001B68D3F80805D3F80C1502F09FF8034B27
:102B9000984214BF6FF00F00002008BD0000AD0B7D
:102BA00037B50446002201210320FFF799FA636834
:102BB0009D6901AA0021284604F08BFD002814DB42
:102BC000019B2A681979186800F0C0F800280CDB0E
:102BD00060682369064A00F1080101F01DFF054BFA
:102BE000984214BF6FF00F00002003B030BD00BF4B
:102BF000F92B00000000AD0B0378012B08D0022B4D
:102C000008D04BB9054B0B6201F1100002F098BBE4
:102C1000034BF8E7034BF6E7034BF4E70000AD0B7B
:102C20000100AE0B0200AE0B0100AD0B2DE9F04F21
:102C30008BB005460C4691460193476806694FF0F4
:102C4000FF324FF0FF33304602F09EFB06F1100AD0
:102C500000220023504602F097FB384601F020FF87
:102C6000DFF8C0B04FF00008C14501D800242EE0C5
:102C7000237A039313F008014DD112220DF11600AF
:102C8000029105F0DCFB039B60680199069003F05C
:102C9000010220688DF8151013F0020F02998DF8CB
:102CA000142008901DD109F1FF33434502D9237D3B
:102CB0005B0718D57ABB202205A9384601F01CFF16
:102CC000584512D0184B984228D06FF0040438466B
:102CD00001F0F6FE304602F033FB20460BB0BDE8B3
:102CE000F08F0A46E8E74022E6E74FF480420023EF
:102CF000504602F049FB30B1384601F0E1FE28466B
:102D0000FFF73CFFE1E7336A5B4504F10C04DCD1DB
:102D100008F10108A8E76FF08504D8E76FF00F0409
:102D2000D5E700BF0000AD0B0B00AD0B036803F04F
:102D30001F025B09026004D0012B034818BF00206A
:102D400070474FF0A0407047000300502DE9F04F4E
:102D5000DFF89881DFF8989185B01546824600EB40
:102D60008101514503D1002005B0BDE8F08FDAF8AC
:102D70000030D804C3F3432203F07F0400F1AF8096
:102D80007F2C4FEA134318F8027008BF4FF0FF344E
:102D9000222B00F2A780DFE803F0122228432B3217
:102DA00043A5A5A5A54672A5A5A5A5A5A5A5A5A5C7
:102DB00075808386A5A5A5899194979A9D00C5F8ED
:102DC0000C45601C18D003A80394FFF7AFFF039BCA
:102DD000012606FA03F3C0F80835B3462CE0C5F81F
:102DE0001445631C08D00026F7E7C5F80845E8E756
:102DF000621CC5F8084570D10AF1040AB1E7631CEA
:102E0000C5F80C45F8D0012603A80394FFF78EFF00
:102E1000039B4FF0010B0BFA03F3C0F80C350BE0EA
:102E2000C5F81045DDE7C5F80845002FD9D1671C66
:102E3000E2D00026B3460627DAF80030019303F407
:102E40000052002A03A81CBF4FF0000B0126039478
:102E5000FFF76CFF039A019B00EB8200C3F3C114E0
:102E6000D0F800273B0243EA840343EA0B0302EA5B
:102E70000902134343EA4603C0F80037BCE7C5F82C
:102E80000C45D2E7C5F86045661CDAF80030B3D0CF
:102E9000C3F38033002BB6D095E7C5F86445F3E75C
:102EA000C5F86845F0E7C5F86C45EDE7C5F8244579
:102EB000621CA1D04FF0000B0126BDE7C5F82845E4
:102EC0007FE7C5F83045F3E7C5F83445F0E7C5F8C6
:102ED0003845EDE7C5F83C45EAE7002694E76FF092
:102EE000150041E76FF085003EE700BFCA91000082
:102EF000F0F8FCFFF7B51D4643680469D3F800C03D
:102F000006464FF02003EFF3118783F31288BFF3D7
:102F10006F8FE368D86838B187F31188BFF36F8F7C
:102F20006FF00F0003B0F0BDDA60E36899604FF412
:102F30008003CCF8043301F06043B3F1005FE36831
:102F400011D11961E3685A612146304604F045FD0C
:102F500087F31188BFF36F8FE37A012B01D16B1CCC
:102F600006D10020DEE7D861204604F0AFFCEBE795
:102F70000B480C4AE46825EAE5754FF40046002149
:102F80000023C5FB0601FDF705FC203402460B4675
:102F900000200021CDE90001204602F0E9FEE0E733
:102FA0003F420F0040420F002DE9F7430746002241
:102FB00001210220FFF794F80220FFF761F87E68F4
:102FC0003D6934684FF00008C4F800852F60D6F8DA
:102FD0000C9001AA4146484604F07BFB002839DBEF
:102FE000019BD9F8002019791868FFF7AFFE002877
:102FF00030DB6B7AD7F810C0012B03D0032B27D11D
:103000004FF01008AB7A032B22D1E97A09B10129DC
:103010001ED12A7A12B1022A1AD10E226B68786860
:10302000B3F5164F006800F0E88034D8B3F5165FAA
:1030300000F0E6801AD8B3F5966F00F0E3800CD864
:10304000B3F5967F00F0E180B3F5167F00F0E080E5
:103050006FF0850003B0BDE8F083B3F5166F00F0A4
:10306000DA80B3F5965FF3D1804B45E0B3F5E14FDD
:1030700000F0D48008D8B3F5615F00F0D180B3F5DB
:10308000964FE5D17A4B37E047F6122E7345DFD1E4
:103090004FF4000330E0B3F5613F00F0C38015D872
:1030A000B3F5963F00F0C1800AD84DF6C02E7345A7
:1030B00000F0BD80B3F5614FCAD14FF46B031BE044
:1030C000B3F5E13FC4D14FF0EB7315E0B3F5612FD9
:1030D00000F0B0800AD8DFF89CE1734500F0AD80C5
:1030E000B3F5E12FB4D14FF0E86305E0DFF888E1F4
:1030F0007345ADD14FF08053C0F824357B6841EA69
:1031000008011B680A43C3F86C25D5E901010CF1DD
:10311000040383E803007368990713D505F11C00C5
:1031200001F03EFB554B984240F09C80287F04F113
:103130000C0204F5907104F082FD2B7F0120984071
:1031400000F032FEEB68002B7AD07B68D7F8108055
:103150001B680422C3F80423D8F80C100122C1F81C
:10316000C0204749C3F804130821C3F80015D3F859
:103170004C11A1B15A60D3F844211AB9D3F82421D3
:10318000002AF8D00022C3F84C21D3F84C11C3F820
:103190001021D3F81011C3F84421D3F84431D8F8E2
:1031A0000C0038490022803005F023F8D8F80C30A4
:1031B000C3F8B480D8F80C0033490022203005F061
:1031C00018F8D8F80C30C3F8548073689A075CBFBD
:1031D0004FF48073C4F804337368DB0644BF4FF4C4
:1031E0008003C4F804336B69C4F84435002001231C
:1031F000C4F84805A360E3602CE74FF41D037BE7A8
:10320000224B79E74FF49E2376E74FF4A03373E720
:103210004FF41C3370E74FF41D236DE71C4B6BE735
:103220001C4B69E74FF06C7366E71B4B64E74FF488
:10323000650361E74FF070635EE74FF080635BE723
:103240000823C4F80035337A002BBED1C4F81031FE
:10325000D4F81031AB69C4F834350123C4F83835DB
:103260002360B2E76FF00400F4E600BF00B0130083
:1032700000A04E0090D0030040420F000000AD0BB4
:1032800010020A00277B0000FB7B00000050270093
:1032900000C0750000F03A0000903A012DE9F041BD
:1032A000044605690E4604F060FEB0B92A4B1B784F
:1032B0009BB16427606804F080FB002838D10120AE
:1032C00004F0BBFC013FF5D10021212002F064FB9A
:1032D000EFE781F31188BFF36F8F4FF02003EFF317
:1032E000118183F31288BFF36F8FD4F804804046B6
:1032F0000F4604F062FB0028EBD0EB685BB1DA68A4
:103300004AB1D3F8BC20002A05DAD8F80020D2F858
:103310004C25C3F8BC206B691E70696901222046E8
:1033200004F0F1F987F31188BFF36F8FBDE8F081E6
:103330004FF02003EFF3118183F31288BFF36F8FF7
:1033400060680F4604F039FB0028E4D181F311884E
:10335000BFF36F8FB8E700BF021500202DE9F041E1
:1033600043681D680369D5F8081188B0044669B13F
:103370000022C5F80821D5F80821DA68D2F8B8305B
:103380000133C2F8B83008B0BDE8F081D5F8243177
:1033900023B3C5F82411D5F8243143681B68D3F84A
:1033A0008064C3F88064142203A805F048F806235B
:1033B000F2078DF80C3000F10C81B30700F10B819E
:1033C000770700F10A8106F00806204603A98DF868
:1033D000106004F0C0F9204604F053FAD5F810311B
:1033E000002B33D0D5F80433D8062FD54FF0000882
:1033F000C5F810812669D5F8103163681F68F36835
:10340000012283F8CE20F068803004F0FEFEF268DE
:10341000D7F83C1592F8C93082F8C980F268106E6E
:103420001B1A0B44106F23EAE371084443451067ED
:1034300002DD204604F096F9F16891F8CA3003F0F5
:10344000FF02002B40F0CB8081F8CE20D5F84C3124
:1034500083B3D5F810616EBBC5F84C61142227699F
:10346000D5F84C31314603A804F0E9FF032303A942
:1034700020468DF80C3004F06EF9FB685A6F511C31
:1034800018D0DA67FF688F49B86F8F4A20EAE07C6E
:103490008E464FF400403146CCFB00E100237046DD
:1034A000FDF778F902460B46CDE9000107F18000EF
:1034B00002F05EFCD5F8443163B3D5F810614EBB21
:1034C000C5F844612769D5F84431F968D4F8048017
:1034D0005831204604F05FF9F9682046643104F061
:1034E0005AF9FB6883F8CA60FB6893F8CB2032B1C5
:1034F00083F8CB6060683246314604F0FFF9D8F8B3
:103500000430D80603D50221204604F02CFA2046C8
:1035100004F059F9D5F82031DBB1D5F80433D905D9
:1035200017D563681B684FF02001EFF3118281F318
:103530001288BFF36F8FD3F8201131B10021C3F887
:103540002011D3F820110121D96082F31188BFF333
:103550006F8FD5F85831002B3FF415AFD5F80433F1
:103560005A027FF510AF63682569D3E90073DB0663
:1035700066D4EB689B68002B3FF405AF4FF0200347
:10358000EFF3118283F31288BFF36F8FEB68D3F8E8
:10359000BC100029ACBFD3F8BC60D7F84C6582F3EF
:1035A0001188BFF36F8FEB6893F8CD20002A54D0B9
:1035B0004FF02003EFF3118683F31288BFF36F8F70
:1035C0002946204604F009FA86F31188BFF36F8F6D
:1035D000D9E60126F9E60226F7E60426F5E6583193
:1035E000204604F0D8F84FF02003EFF3118183F365
:1035F0001288BFF36F8FF3685A6EF2B19A65F36861
:103600009A6EDA65F26800235366F2689366F26890
:103610001366D7F84C310BB901233B60D7F8003261
:1036200023F02003C7F8003281F31188BFF36F8FB6
:10363000F368002283F8CE2008E701237B60F3E7DC
:103640004FF48003C7F808330121204604F08BF9BA
:10365000EB68DB68002B8CD195E699681A6991427A
:103660000CD05969DA69B142324428D1DA6128466E
:1036700004F02CF900289BD1EB68DE69E868203063
:1036800004F0C3FD1422002103A804F0D8FEEB6867
:103690009A68CDE90426DB689E421CBF01238DF8A1
:1036A0000C304FF48003C7F80833EA6800239360B6
:1036B000EA6803A9D360204604F04DF863E6164695
:1036C000DCE700BF3F420F0040420F0070B501230E
:1036D00083400E4ABFF35B8FDC4352E8001F01EAD0
:1036E000040542E80056002EF7D1BFF35B8F4FF47C
:1036F000803282400648C0F80823BFF35F8FBFF3D3
:103700006F8F0B4214BF0120002070BD800D002080
:103710000010014070B40E49D1E90034D01AC3182A
:1037200044F1000422F07F46C1E90034A6F50013FD
:10373000B3F5400F09D2074B1B681A0A1B069C19E8
:10374000054B42F10005C3E9004570BC02F01ABA0E
:10375000D0050020840D0020D805002011B3BFF350
:103760005B8F0123104A834052E800CF4CEA030CE0
:1037700042E800C10029F7D1BFF35B8F0B4A4FF439
:1037800080338340C2F80433094BBFF35B8F1B685F
:10379000BFF35B8FC340DB0742BF064B4FF40032E1
:1037A000C3F80021704700BF800D002000100140C9
:1037B0007C0D002000E100E00D4B1868010A0006B6
:1037C000BFF35F8F0B4BD3F80435181841F100019C
:1037D000B3F5801F0AD2084BD3E90023904271EB66
:1037E000030303D210F1807041F10001704700BF64
:1037F000840D002000100140D80500202DE9F04F75
:1038000085B016461F469DF840A00446FFF75EFFB0
:103810000190FFF7D1FFB04271EB070354D23E4B4A
:10382000301A67EB0101984271F100014FD23B4B16
:1038300003EB0413D3E902239F4208BF96425ED0F4
:1038400037494FF4803804F1500508FA04F8AD0008
:10385000C1F848832046ADB204F0D3F926F07F4B7F
:1038600005F1804504F5A87305F58835DC464FF071
:1038700003090293029A2CF07F4341F82230C1F8E9
:103880004483D1F80435274A6FF00200C01A60441F
:1038900020F07F40904232D9286868B1D1F80435D1
:1038A0000393A3EB0B0020F07F40B0F5000F26D967
:1038B000204604F0A6F9039BBAF1000F07D109EBEB
:1038C000030C09F10109D5E7BAF1000F09D06FF037
:1038D000150520460199FFF741FF284605B0BDE8D0
:1038E000F08F0123104ABFF35B8FA34052E8000F13
:1038F000184342E800010029F8D1BFF35B8F074964
:103900000E98230101EB0412C8500F9B5360C2E9CB
:1039100002670025DDE700BF01008000C005002030
:1039200000100140FDFF7F007C0D00207FB51C4C86
:103930001C4BC4F80833C4F848331B4B00254FF028
:10394000FF304FF0FF31C4F80855C3E902014FF4CE
:103950008033C4F80433154B02264FF400320121A2
:10396000C4F804631120C3F880212A46FEF7B8FB8F
:103970001120FEF785FB0E4A0123A360236013602C
:103980000C4B0D4A0093CDE9015500232846FFF763
:1039900035FF3046FEF7BCFE284604B070BD00BFC0
:1039A0000010014003000F00C005002000E100E00E
:1039B000800D002015370000FFFF7F002DE9F74341
:1039C0002F4CD4F8043399070BD5D4F8043143B104
:1039D0002C4A0023C4F80431D4F8043113680133AD
:1039E0001360D4F80433DA032AD5BFF35B8F264B78
:1039F00053E8002F22F0010143E800100028F7D11E
:103A0000BFF35B8FD30702D4D4F84031C3B1002594
:103A1000C4F84051D4F84031FFF7CEFE4FF02003F8
:103A2000EFF3118283F31288BFF36F8F174BD3E943
:103A30000267B042B94106D282F31188BFF36F8F9B
:103A400003B0BDE8F0834FF0FF384FF0FF39C3E912
:103A50000289D3E900101D604FF48033C4F8483365
:103A6000C4F84051D4F8403182F31188BFF36F8F0E
:103A70000029E5D0009032463B4628468847DFE7DC
:103A800000100140840D00207C0D0020C0050020A6
:103A900030B5431C124C85B005D08442A8BF044603
:103AA000012CB8BF0124FFF787FE0E4B0C4DD3E964
:103AB0000013401AB0F5000F10D22218AA4228BFF6
:103AC0002A4652184FF0000007490091CDE9010045
:103AD00043F10003FFF792FE05B030BD2A46F0E740
:103AE000FFFF7F00D00500201537000008B5FFF765
:103AF00063FE024B1B68C01A08BD00BFD005002042
:103B000010B5084C012363601120FEF7C7FA064B7D
:103B1000C4F80833C4F84833044B4FF40032C3F8F8
:103B2000802110BD0010014003000F0000E100E003
:103B30004FF08053D3F83021082A06D1D3F834311E
:103B4000052B02D8024AD05C70470020704700BFA6
:103B5000E6910000024AD2F80034002BFBD07047F7
:103B600000E0014010B54FF08053D3F83021082A0F
:103B70004ED14FF080420021C2F80C11C2F8101152
:103B8000C2F8381502F54042D3F80414C2F82015E3
:103B9000D3F80814C2F82415D3F80C14C2F8281569
:103BA000D3F81014C2F82C15D3F81414C2F8301539
:103BB000D3F81814C2F83415D3F81C14C2F8401501
:103BC000D3F82014C2F84415D3F82414C2F84815C9
:103BD000D3F82814C2F84C15D3F82C14C2F8501599
:103BE000D3F83014C2F85415D3F83414C2F8601561
:103BF000D3F83814C2F86415D3F83C14C2F8681529
:103C0000D3F84014C2F86C15D3F84434C2F87035B8
:103C1000FFF78EFF18B13A4B3A4AC3F88C26FFF7EC
:103C200087FF18B1384BFB22C3F81825FFF780FF38
:103C300070B14FF080414FF08053D1F8E42ED3F8AB
:103C4000583222F00F0203F00F031343C1F8E43E91
:103C5000FFF76EFF20B12D4B4FF40072C3F84026E2
:103C60004FF08053D3F83031082B1AD14FF08043F6
:103C7000D3F80024D20744BF6FF00102C3F8002438
:103C80004FF08053D3F83431052B02D8204AD35C4F
:103C90003BB14FF01023D3F808224FF08043C3F814
:103CA00058254FF01023D3F80022002A03DBD3F865
:103CB0000432002B22DA174901234FF01020C1F8FB
:103CC00004351224FFF746FFC0F80042FFF742FF19
:103CD000C0F80442FFF73EFF0023C1F80435FFF7A8
:103CE00039FFBFF34F8F0C490C4BCA6802F4E062F6
:103CF0001343CB60BFF34F8F00BFFDE710BD00BF84
:103D0000005000404881030000F000400090024055
:103D1000E091000000E0014000ED00E00400FA0541
:103D200030B50468CCB1BFF35B8FB4FA84F3C3F150
:103D30001F03DBB201229A4024EA020250E8005F2E
:103D4000A54204D140E8002CBCF1000FF6D1BFF32E
:103D50005B8FE6D102480B7030BD0248FCE700BF24
:103D60000000AD0B0200AD0B10B50368CB40DB07C4
:103D700014D401238B400268BFF35B8F43EA020136
:103D800050E8004F944204D140E8001CBCF1000F01
:103D9000F6D1BFF35B8FEED1014810BD0148FCE7BF
:103DA0000000AD0B0400AD0B014BC3F804057047D8
:103DB00000F00140F7B5044618B1012823D003B044
:103DC000F0BD4FF080430222C3F808230122DA60DD
:103DD000C3F80401D3F80431064601238DF80730F7
:103DE00042F210754FF08047D4B1012CE7D1D7F8DB
:103DF0000C3403F48033AEBB83B3012003F01DFF0A
:103E0000013DF4D12AE04FF080430022C3F80803BB
:103E10005860C3F80021D3F800310DF10706DCE744
:103E2000D7F8183403F480333EB9002BC7D00120F3
:103E300003F003FF013DF3D1C1E7D7F8182402F0E6
:103E400003023260002BBAD09DF80700012803D18D
:103E500003F0F3FE013DC7D1012CB0D1054B002288
:103E60005A71ACE7D7F80C2402F001023270002B33
:103E7000EAD1F3E7880D0020044B1A7922B9012218
:103E800018609A800248704702487047880D0020E9
:103E90000000AD0B0C00AD0B08B5074B1B682BB138
:103EA0000020FEF70FF908B9FEF7EAF84FF080435B
:103EB0000022C3F8182508BD880D002010B510B1E8
:103EC000012843D010BD4FF08043D3F81814D3F825
:103ED0001824C80321D502F00303012B04D013B129
:103EE0000020FFF767FF00234FF080420220C2F856
:103EF000183508224FF4827303F1804300211960C2
:103F000002F180421C6801241460154A12680AB349
:103F10004FF08043C3F80403D4E7D3F81424D10747
:103F2000E1D5D3F81C249207DAD40D4A12681AB1ED
:103F30000222C3F80423C5E7D3F80421002AFBD0EA
:103F40000022C3F80421D3F80431BBE700224FF468
:103F50008073D1E71A68002AFCD019601B68B1E7AA
:103F6000880D002010B54FF08043D3F800216AB1CE
:103F70000022C3F80021D3F800210122C3F808234E
:103F8000114B587910B95A711B6898474FF080430C
:103F9000D3F8042172B10022C3F80421D3F804211C
:103FA000D3F81824D3F81824920704D10122C3F8B7
:103FB00018259A6010BD0222C3F80823024BBDE801
:103FC00010401B6801201847880D0020036803F08B
:103FD0001F025B09026004D0012B034818BF0020B8
:103FE00070474FF0A040704700030050034A430958
:103FF00000F01F00D35C1844C0B27047EC91000081
:1040000070B50546FFF7F2FF0C4C08300E4634F849
:104010001030DA0508D5C3F3432304EBC302284666
:1040200054F8333052689847A3682BB1E2683146A0
:104030002846BDE87040184770BD00BF80010020D1
:1040400008B5FFF7D3FF034B083033F81000400BDF
:1040500008BD00BF8001002008B5FFF7C7FF034B74
:10406000083033F81000C0F3400008BD8001002084
:1040700008B5FFF7BBFF034B083033F81000C0F35F
:10408000401008BD80010020034611F0010010B56A
:10409000CCB20DD1A207C4F3400012D5094AD2F820
:1040A00020055860C2F82005003818BF012008E03C
:1040B0004FF0A041D1F820251A60C1F82025002A30
:1040C000E8D010BD0003005010B5FFF78FFF124A73
:1040D000083032F81030D9051CD5C3F3432123F43E
:1040E000F85322F8103002F10E04002034F8023F99
:1040F00013F4807F03D0C3F3432399420AD00130E5
:104100003028F3D1002342F831300448BDE8104094
:10411000FFF72ABE10BD00BF80010020F80100207B
:10412000F0B5054600200446012607468C420BD117
:10413000114BD3F87C2132B10022C3F87C21D3F893
:104140007C3140F00040F0BDE3B29B0003F580728B
:104150009B0806FA03F31D420BD002F1804202F5E0
:10416000C042D2F800C0BCF1000F02D01760126844
:1041700018430134DAE700BF00600040F7B5064697
:104180000846FFF733FF194F00F108050C4637F8D2
:104190001530DB0727D5304603F0B5FD2046FFF785
:1041A00067FF40B12046FFF74BFF316800F5A27072
:1041B000002341F820302046FFF786FF002301A8A6
:1041C00027F815300194FFF701FF019B00EB8300F6
:1041D000074BD0F80027134043F00203C0F8003724
:1041E000044803B0F0BD0448FBE700BF8001002095
:1041F000F0F8FCFF0000AD0B0400AD0B2DE9FF4112
:10420000164680460846FFF7F1FE0D463168044623
:1042100009B32846FFF720FF18B12846FFF728FF0B
:1042200010BB0023CDE900338DF80E308DF80F3030
:104230000DF10F020B4628460DF10E0103F00BFDA8
:10424000474A04F1080132F8113023F0020343F029
:10425000010322F81130736863B328461F78596848
:10426000FFF7FAFE10B1D1B13E4826E03C4A04F116
:10427000080032F8103023F02003DB04DB0C22F8B6
:10428000103061B1032FEFD87168496891F800C010
:10429000D8F80010A7B90CF5A27C41F82C70304A70
:1042A00004F1080132F8113023F01C0343EA8703BC
:1042B00022F81130B3684BBB2B4804B0BDE8F08145
:1042C00001EB8C0143EA4C33D1F810E52EF0030EDC
:1042D000C1F810E5D8F8001001EB8C0E43F0200374
:1042E000DEF8101522F8103021F44F3121F440711E
:1042F000CEF810152902DEF8108501F47C5141EA50
:10430000074141EA0801CEF81015C8E7D3E9006774
:104310002846FFF7D9FE002ECED0114DD5E9002357
:10432000964203D19F4201D1002209E00F480DF1CE
:104330000F01FFF7F5FC0C4B9842BED19DF80F2002
:1043400045F8326005EBC20308345F6035F814307D
:1043500043EA422343F4807325F81430ACE700BFEE
:10436000800100200400AD0B0000AD0BF80100201F
:104370002DE9F0430C4685B08046204611461E4686
:10438000FFF734FE054629B32046FFF765FE18B94E
:104390002046FFF76DFE18BB314F05F1080937F8CD
:1043A000193013F01C0F02D04B78012B18D00123C9
:1043B0008DF80F300023CDE900134A1C8B1C2046DA
:1043C0000DF10F0103F047FC37F8193043F00303F8
:1043D00027F81930002E41D02046FFF73DFE18B9CE
:1043E000204805B0BDE8F08396F800C0D8F800304A
:1043F0001B4F0CF5A272002143F8221005F10802B0
:1044000037F8121021F02001C904C90C27F8121046
:1044100075781DB3D8F80000B67800EB8C002D0439
:10442000D0F8103523F4991323F4F853C0F810355D
:10443000230203F47C5305F440353605D0F810E52B
:104440002B4306F4801641EA4C31334341F02001FE
:1044500043EA0E0327F81210C0F810350248C0E7EF
:10446000800100200400AD0B0000AD0B014BC3E93F
:10447000021270478001002010B508461446FFF76D
:10448000F7FD50B10846FFF7B1FD054B083033F892
:10449000103004485B0B237010BD0348FCE700BFDD
:1044A000800100200000AD0B0400AD0B70B5184E6C
:1044B00096F8804005464CBB2146602206F110006C
:1044C00003F0BDFF2D68306F2146884212D10023D2
:1044D000C5F87C3145F30730D5F87C31FDF7D0FDC8
:1044E0004FF00043C5F804330A48012386F88030B2
:1044F000B36770BDCBB29B0003F580727C2B08BF05
:10450000AC5001F1010108BFAB58DEE70248F0E70B
:10451000800100200000AD0B0C00AD0B034B93F8A5
:104520008000003818BF0120704700BF80010020C4
:104530000148FFF719BC00BFF40100200148FFF754
:10454000EFBB00BFF401002073B5054608460C46DA
:104550001646FFF78DFD00B30846FFF77DFD0146C7
:10456000D8B92046FFF76CFD04B2A40004F58072B0
:10457000034628688150296882582144D1F81025C3
:1045800042F00102C1F810252EB12968012202FA79
:1045900003F3C1F8043302B070BD2046FFF726FDD7
:1045A0000F4B083033F81030C3F38203042B12D0C2
:1045B000052B12D001A80194FFF708FD019AD0F84D
:1045C0001035D34003F00103991C204602B0BDE82A
:1045D000704003F089BB0321F7E70221F5E700BF34
:1045E000800100202DE9F04F694BDFF8A881D3F856
:1045F0000403D8F87010C0B289B040F00040FFF753
:104600008FFD051E2FDAC24600235AF87C1F06A82C
:10461000CDE90633FFF738FD5F4B01930DF1180923
:104620004FF0000B019A12F8013B0192DA0803F0F7
:1046300007031AF8022022FA03F3DA071CD409F15F
:104640000409BBF1000F14D0D8F870104FF00040EF
:10465000FFF766FDD8F87C1006A8FFF715FD0028C7
:10466000DAD125F000450124002D79D109B0BDE84B
:10467000F08F4FF0010BD5E7484B5B440293D9F81C
:1046800000100029DBD0029B91FAA1F11C78B1FA4D
:1046900081F141EA44142046FFF7A8FC0830059454
:1046A00038F81070C808BB0819F80020039301F00F
:1046B0000701012303FA01F122EA010209F80020AF
:1046C00005A8FFF783FC059A039B02F5E072C7F388
:1046D000820650F822205B073746C2F3014224D5F8
:1046E00020463946D6B2FFF78BFC05A80594FFF7A4
:1046F0006DFC059B03F5E07350F82330C3F30143D1
:104700009E4207D10021204603F0EEFA31462046B2
:1047100003F0EAFA05A80594FFF758FC059B01226F
:1047200002FA03F3C0F82035A9E7022A0CD10321CD
:10473000204603F0D9FA06F00503012BEAD13946E9
:104740002046FFF75DFCE5E702212046039203F0D7
:10475000CBFA032EF3D0039A032ADBD1022EEDE726
:1047600095FAA5F3B3FA83F304FA03F29B0003F17D
:10477000804303F5C04325EA0205D3F81005D3F8BA
:104780001015C0F30520C1F30141FFF739FC6BE7B9
:104790000060004080010020FC910000FC910000BE
:1047A00001460148FFF7BCBA0402002030B500F012
:1047B0001F04400911D0012812D10C4800EB8400DD
:1047C0001B02D0F800570A4C43EA82022C4042EA0E
:1047D00041012143C0F8001730BD4FF0A040EDE784
:1047E00004F5E074002353F82430FFDE000300508A
:1047F000F0F8FCFFCB7B10B433B9D1E90042036879
:10480000C3F80845C3F80C2503688A68C3F8242553
:1048100003793C225343054AD3582BB1006810BC9E
:1048200040F30730FDF72CBC10BC7047900D002002
:1048300013B53B4B01930023C0F80431D0F8042199
:10484000C0F82431D0F82421C0F81C31D0F81C2144
:10485000C0F80831D0F80821C0F800324B6381F865
:104860002F300123036291F82D209A4218BF8360F4
:104870004B6B8A6A934204460ED24A6AD35CC0F8F4
:104880001C350B6803B340F286238B608B68254888
:10489000C4F8043302B010BD91F82C3013B10123D9
:1048A000C361EEE70B6A13F0400F4FF0010316BF30
:1048B000C361436181F82D30E3E7204603F04BFAF2
:1048C00028B1019B013B0193019B002BF5DC91F882
:1048D0002F305BB91348019B002BDBDC0023C4F8AD
:1048E000003505231048C4F80035D3E7D4F8C434A4
:1048F000C4F8C4348BB10D4A0B4813F0010F18BF34
:10490000104613F0020F02F1010218BF104613F017
:10491000040F074B18BF1846DDE70348DBE700BF6D
:10492000A08601000000AD0B0100AD0B0000AE0B36
:104930000200AE0B13B5334B01930023C0F80431D2
:10494000D0F80421C0F82431D0F82421C0F81C315B
:10495000D0F81C21C0F80831D0F808214B6381F849
:104960002F308B6A012B044617D10B6A5B0614D4D7
:104970000223C4F800320123236291F82D20022A79
:1049800018BF23600B688BB140F286238B608B6865
:104990001D48C4F8043302B010BD0123E9E72046E6
:1049A00003F0D9F928B1019B013B0193019B002B36
:1049B000F5DC91F82F305BB91348019B002BEADC42
:1049C0000023C4F8003505231048C4F80035E2E799
:1049D000D4F8C434C4F8C4348BB10D4A0B4813F076
:1049E000010F18BF104613F0020F02F1010218BFA9
:1049F000104613F0040F074B18BF1846DDE70348B5
:104A0000DBE700BFA08601000000AD0B0100AD0B8D
:104A10000000AE0B0200AE0B2DE9F84390F80490B5
:104A20001C4E07463C2000FB09F035180C4695F853
:104A30002E1061BBA96032506B6085F82D1085F88F
:104A4000311085F83010CCB1637B85F8383094F89C
:104A50000E8085F83980B8F1000F0BD1206806234D
:104A600003224146FFF7A2FE606806230322414667
:104A7000FFF79CFE21463846FFF7BCFE3C2303FBB4
:104A800009660548012386F82E30BDE8F8830348FF
:104A9000FBE700BF900D00200000AD0B0C00AD0B3C
:104AA000036802790521C3F80015044B3C2101FB82
:104AB0000233022283F82E20704700BF900D0020A1
:104AC00003680B4A0179C3F80823D3F8002222F0C7
:104AD0000302C3F800220022C3F80025054B3C2046
:104AE00000FB0133012183F82E1083F8302070473A
:104AF00086420400900D00202DE9F047314F0479E3
:104B0000D0F800903C2303FB04730D4693F82D303E
:104B1000012B944604D10B78012B06D12A4811E0D1
:104B2000022B02D10B78012BF8D13C26274BC9F878
:104B3000083306FB047696F830302BB1B36824486E
:104B4000C9F80433BDE8F0878CF00403C3F3800395
:104B500086F83030C6F820C0A846B8E80F0006F145
:104B60000C0EAEE80F00D8F80030CEF800306B68BD
:104B7000B362EB6873626B78C9F888352B78C4EB45
:104B8000041A012B07EB8A0A17D09BB9CCF3401CFF
:104B90003C2303FB04735146484683F82CC0FFF7BF
:104BA00047FE3C235C433A193B59002BCAD182F89B
:104BB0003030C7E74FF0010CEAE751464846FFF7AF
:104BC000B9FEEEE7900D00200500AD0B8642040013
:104BD0000B00AD0BF0B5324C324887B0214603F0E4
:104BE000BAF8002859D194F82F70FFB9227B931E90
:104BF000012B1BD8606AA369984217D1E3696362ED
:104C00006369A362236A274884F82D70C3F34013B5
:104C1000032A84F82C3004D107B0BDE8F040FFF738
:104C200007BE07B0BDE8F040FFF784BE1E4E0FCEB2
:104C300001AD0FC533682B6047B31A4AD2F8C434AC
:104C4000C2F8C43413F0020106D001238DF80030FD
:104C5000002384F8303007E013F0040209D0022367
:104C60008DF8003084F83010D4E900316846984758
:104C700013E013F0010305D003238DF8003084F80E
:104C80003020F1E704228DF80020E2E7236A8DF856
:104C900000705B0784F83070E6D507B0F0BD00BF48
:104CA000900D0020003000409C0D0020036803F0B0
:104CB0001F025B09026004D0012B034818BF0020CB
:104CC00070474FF0A040704700030050F7B506460C
:104CD00003F0D9F8084603F0D6F801A80196FFF7CB
:104CE000E5FF019B2E4D00EB83000C46D0F800370A
:104CF000019440F20D612B400B43C0F8003701A82E
:104D0000FFF7D4FF019B00EB83000127D0F80037A9
:104D10002B400B43C0F80037042002F08EFF09251A
:104D200001A80194FFF7C2FF019AD0F81035D340D3
:104D3000DB0715D401A80196FFF7B8FF019B07FA1E
:104D400003F3C0F80C35042002F077FF304603F07F
:104D50009AF8013D042002F070FF15F0FF05DFD145
:104D600001A80194FFF7A2FF019A01239340C0F824
:104D70000C35042002F061FF204603F084F8042083
:104D800002F05BFF01A80194FFF790FF019AD0F8B1
:104D900010350448D34003F00103C01A03B0F0BD3E
:104DA000F0F8FCFF0100AD0B08B5144BA822002160
:104DB000184603F044FB0322026111494261114A83
:104DC0008161C2614FF480620262002282624262AB
:104DD000C26201660C494166102181660346026782
:104DE000C2664267BFF35F8F084911F8010D9854FE
:104DF0000132102AF9D1BFF35F8F08BDCC0D00201E
:104E0000FE91000002110020F21000201792000015
:104E100038B54FF02003EFF3118583F31288BFF309
:104E20006F8F064B9C6802F0F8FE85F31188BFF384
:104E30006F8F2046BDE83840FDF7B2B8780E0020ED
:104E4000104B70B553F82040013053F82060A64253
:104E500000D870BDD4E9003595B153B128469847C4
:104E600038B10028B8BF4042EB68FF28A8BFFF2038
:104E70001870EA68537843F0010353700834E6E78A
:104E80009847FBE7508C000008B50A4B012203202D
:104E90001A70FFF7D5FF00F0D1FF0420FFF7D0FF15
:104EA00000F04CF9FCF7A2F8034A137B23F001034E
:104EB000137308BD021500206006002008B50348E2
:104EC000034A0021121A03F002F808BD4003002033
:104ED0000415002070B5002386B00122CDE904231B
:104EE000194E1A4D01930F22CDE9023218491423AD
:104EF00003FB005506EBC01604464FF4C070154B7B
:104F000000954FF4A07200FB0411304600F0D6F873
:104F1000737B114AEE6023F0040373734FF4046350
:104F200004FB033313446B600C4B2C74BFF35B8F97
:104F300053E8001F013143E80012002AF8D1BFF303
:104F40005B8F06B070BD00BFE0050020780E00202A
:104F5000C0320020777F0000802A0020740E0020DD
:104F600080B50020A6B0FFF76BFF2D4B83F30888B8
:104F70002C4D2D4E6B692D4F43F400736B61002453
:104F8000E02385F82230EC772C766C76AC7685F8C9
:104F900020406B6A43F4E0236B6285F82340FCF702
:104FA0006DFFFDF71FF94FF0FF33AB62EB62FDF7CA
:104FB000C1F9FDF757F940F20113ADF8243006AB03
:104FC000B360CDE91E44219402F075FF0120FFF784
:104FD00037FF0220164DFFF733FF00F053FC154B4F
:104FE00075610593012314490094CDE903434FF4FF
:104FF00080623B46CDE90144284600F05FF86A7BB9
:10500000064622F0040228466A7303F009F8204697
:10501000FFF760FF3A4631462846FDF7C7F800BF64
:10502000C032002000ED00E0780E0020894E000024
:1050300060060020189200004034002038B5064C6D
:10504000064D0020AC4200D338BD204602F043FF9D
:105050000028F9DB1C34F5E7F0020020F002002004
:1050600073B50C464FF02005EFF3118185F31288DC
:10507000BFF36F8FC5685DB125602B68C36083691E
:1050800001338361002081F31188BFF36F8F11E03A
:1050900052EA030603D125606FF00B00F3E7CDE978
:1050A00000230246083000F029FB18B9024B9B6828
:1050B0005B69236002B070BD780E00202DE9F043DB
:1050C00085B00732994600F1580322F00706C0E97F
:1050D0001633109B037306F1400504230027437326
:1050E0000D440F9B83738846C0E906772946876085
:1050F000C7730446FCF742FD08F140030730C4E9DA
:10510000183620F007000E9BA06602930D9B0193BA
:105110002D1A0C9B00932A464B4641462046FDF72C
:1051200013F8054B67659B6803B1DB6EE3662846A1
:1051300005B0BDE8F08300BF780E002070B5224CAA
:10514000224D86B02646AE4204F130040AD300F068
:1051500069FB1D4C1E4EAC4220D306B0BDE870402A
:1051600000F074BB54F80C3C059354F8103C0493C5
:1051700054F8143C039354F8183C029354F81C3C24
:10518000019354F8203C009354E90A2354E90C019C
:10519000FFF794FF54F8303C5E65D3E7D4E90A2367
:1051A000B3F1FF3F08BFB2F1FF3F05D052EA030160
:1051B000206803D100F018FB3034CCE731461830BA
:1051C00000F06AFCF8E700BFE8860000D88700001E
:1051D000DF80000038B5836804466BB3194A9268D3
:1051E00093422CD1C368012B03D9013BC36000203B
:1051F00038BD4FF02003EFF3118583F31288BFF31E
:105200006F8F0169806802F0C2FE204602F082FFC3
:10521000A06058B190F90E2022610022826702F04E
:10522000FFFE0948294600F0CDFAE0E7E06085F38B
:105230001188BFF36F8FDAE76FF01500D8E74FF0F2
:10524000FF30D5E7780E0020031500202DE9F3414B
:10525000044617461E464FF02003EFF3118883F3F0
:105260001288BFF36F8FC368334A7BB1806891683F
:10527000884219D057EA060318D188F31188BFF382
:105280006F8F6FF00F0002B0BDE8F081916891F967
:105290000E1021610133E3609368A36088F31188E5
:1052A000BFF36F8F0020EEE72169F2E791F90E104E
:1052B00090F90E309942A8BF19466FF07E029142D4
:1052C000B8BF11468B422EDD02F061FE0546CDE9E6
:1052D00000761A482246414600F010FA0028E1D034
:1052E0004FF02003EFF3118683F31288BFF36F8F23
:1052F000A068D0B1236821699C420AD04BB193F9D0
:105300000E309942A8BF19466FF07E039942B8BF8C
:10531000194602F03CFE40B10848314600F052FA0E
:105320006FF00A00AFE70025D1E7002DF4D186F336
:105330001188BFF36F8FF3E7780E0020031500206C
:1053400038B504464FF02003EFF3118583F312883C
:10535000BFF36F8F02F0DEFE48B10022826702F0D9
:105360005FFE29460748BDE8384000F02BBAD4E973
:1053700002329A4218BF0133A36085F31188BFF34C
:105380006F8F38BD0315002013B54FF02004EFF3E5
:10539000118184F31288BFF36F8F846844B1013C9C
:1053A000846081F31188BFF36F8F002002B010BDBD
:1053B00052EA030406D181F31188BFF36F8F6FF0B7
:1053C0000F00F3E7CDE900230246024800F096F90A
:1053D000ECE700BF03150020C3897F2B12D80A4BCE
:1053E0001B6863B1094B90F90E201B689A4209DBD8
:1053F000437BDB0606D1064BC31A18BF012303F01B
:10540000010070470023FAE7A00E00209C0E002048
:10541000E0050020044BC01A044BC0105843044B55
:1054200001221A54704700BFE0060020ABAAAAAAC6
:105430000315002070B50E4B0E4C1E7C06EB460388
:1054400004EBC3040546204602F0B7FE0A4B0022D7
:1054500028469A55FFF7C0FF48B1084B08491A681B
:10546000013A2046D317BDE8704000F015BB70BD6F
:10547000780E0020E006002003150020A00E00207A
:105480001554000038B50D4D2B4653F8184F9C426B
:1054900000D004B9EC68AB6838B95A7BD20604D1A5
:1054A000A26912B9DA897F2A05D89C4202D0204627
:1054B000FFF7C0FF23466B6138BD00BF780E0020A8
:1054C00070B590F90D20437B002A014604DA03F001
:1054D0007F03437302F06AFD4B7B154A63F07F0341
:1054E00010464B7350F8183FD469834208BF00231D
:1054F00023B9C1E900042160D1610CE091F90E509B
:1055000093F90E60B5420ED0AE420CDD5868C1E989
:105510000030016059609068431A5842BDE87040FD
:105520005841FFF7AFBF9C42E3D01B68E0E700BFE4
:10553000780E002070B490F90D30427B002B29DBEF
:10554000D30627D183692BBB134962F07F024273D4
:105550000A4652F8184F944218BF2346CC6923B923
:10556000C0E900242060C8610CE090F90E5093F966
:105570000E60B5420AD0AE4208DD5A68C0E900327A
:105580001060586070BC0020FFF77CBFA342E7D0DA
:105590001B68E4E770BC7047780E002008B590F9EE
:1055A0000D20437B002A014604DA03F07F03437396
:1055B00002F0FCFC044B9868431A58425841BDE87D
:1055C0000840FFF75FBF00BF780E002070B515469A
:1055D0001C46064602F0FCFCB4F1FF3F08BFB5F1E3
:1055E000FF3F08D02A46234606F118000249BDE8CD
:1055F000704000F051BA70BDDF8000002DE9F0412D
:10560000002A437B0E460CBF102108211942044694
:105610000AD10B43DD0903F09F0211D1427308291F
:1056200014D00120FFF72EFF1B4B9B68A3422CD107
:10563000EFF305834BBB3046BDE8F041FCF7C6BC39
:1056400003F01F03437302F0B1FCE8E7A36813B152
:10565000204602F0B3FC04F1180002F0AEFD04F1A4
:1056600058074FF00008A56DBD42DAD0002DD8D004
:10567000284602F0A3FC05F1180002F09EFDC5F8D3
:1056800078802846FFF756FFEDE786F31188BFF3D1
:105690006F8FBDE8F08100BF780E002038B54FF065
:1056A0002003EFF3118583F31288BFF36F8F104B44
:1056B000104A9C681068A04206D1FFF7BBFE85F334
:1056C0001188BFF36F8F38BD00211B7C11600A4A1F
:1056D000D35C002BF3D02046FFF77EFE0028EED0EF
:1056E000637BDB0602D12046FFF7EAFE2046E4E7B3
:1056F000780E0020980E00200315002070B50C488D
:105700000C4D86682E600C461146DDE904234FF0EF
:105710002006EFF3118586F31288BFF36F8F806840
:10572000FFF754FF2046BDE87040FCF74FBC00BFB8
:10573000780E0020980E0020F8B504464FF02003A4
:10574000EFF3118683F31288BFF36F8F437BDA0682
:1057500049B219D18569BDB903F07F03437302F0E3
:1057600025FC437B164A817363F07F034373134622
:1057700053F8180F984218BF0546D0695DB9C4E9BF
:1057800000300460D46111E0A173002086F3118819
:10579000BFF36F8FF8BD95F90E70B9420BD08F42F1
:1057A00009DD6B68C4E900531C606C600120FFF7E1
:1057B00069FE0120EAE7A842E1D02D68DEE700BFDC
:1057C000780E002049B9EFF3058030B9054B5A69CE
:1057D0009B689A4201D0FCF7F9BB81F31188BFF3B3
:1057E0006F8F7047780E002010B54FF02002EFF356
:1057F000118482F31288BFF36F8F427B510704D468
:1058000084F31188BFF36F8F10BD22F0040242733E
:10581000FFF790FE21460248BDE81040FFF7D2BFD7
:10582000041500204FF02003EFF3118183F3128859
:10583000BFF36F8F044B9A68D37B013BD37381F323
:105840001188BFF36F8F7047780E002010B54FF0AE
:105850002003EFF3118483F31288BFF36F8F084B9B
:105860009A68D37B0133D3730020FFF70BFE84F3D8
:105870001188BFF36F8FBDE8104002F073BC00BF0A
:10588000780E0020024B03F11802C3E9062270478C
:10589000780E0020F8B54FF02003EFF3118583F365
:1058A0001288BFF36F8F19498868437B03F07F0329
:1058B000437302F07BFB8B685A7B084662F07F02E1
:1058C0005A7350F8182FCC69824208BF002222B9BF
:1058D000C3E900042360CB610CE093F90E6092F9F8
:1058E0000E70BE420ED0B7420CDD5168C3E90021F4
:1058F0000B6053600120FFF7C5FD2846BDE8F84066
:10590000FCF764BBA242E3D01268E0E7780E002007
:1059100050EA01032DE9F04105460E4603D1FFF799
:10592000B9FF00202CE0831C71F1FF332ADB02F069
:105930005AFC2C184FF02003EFF3118883F31288E0
:10594000BFF36F8F114F124BB8681860FFF726FE38
:10595000B86810492A463346183000F09DF8BA68F6
:10596000537B43F0100353734046FCF72FFB02F0C8
:105970003AFC201A63EB0303012873F10003D0DB28
:10598000BDE8F0816FF00104241AD3E7780E0020FF
:10599000980E0020DF800000B1F1FF3F08BFB0F19A
:1059A000FF3F08B506D1084B986802F049FB4FF05D
:1059B000FF3008BDFFF7ACFF4FF47A7380FB0303A1
:1059C000C00B40EA4340F4E7780E0020014B986892
:1059D000704700BF780E002008B50648064A074900
:1059E000121A02F076FABDE80840054A0549064851
:1059F00002F06FBA0000002040030020689200000F
:105A0000000000006892000000000020034B1B68AB
:105A10000BB9FEF76BB80020704700BFA40E002042
:105A200010B50E4B1C689C4204D1FFF7EFFF6FF0DE
:105A3000004010BDFFF7EAFF002CF8D0D4E9043293
:105A40001B1A62EBE072B3F1004F72F10001EEDA63
:105A5000002AACBF18460020EBE700BF0802002078
:105A600030B570B10B4B5B6898420AD0036843B104
:105A7000D3E90421D0E90445121941EB0501C3E93A
:105A80000421D0E9003213605A600023C0E90033DA
:105A900030BD00BF08020020B3F1FF3F08BFB2F1E4
:105AA000FF3FF8B504461D4616465CD081604FF0B6
:105AB0002003EFF3118783F31288BFF36F8F013256
:105AC00075F1FF3324DA2D49D1E900206FF001038D
:105AD0009B1A4FF0FF3262EB00009E1B60EB05004B
