:10000000403A00201D200000616E00000920000021
:100010000920000009200000092000000000000065
:10002000000000000000000000000000DD210000D2
:1000300009200000000000007921000009200000D4
:10004000B9230000B9230000B9230000B923000040
:10005000B9230000B9230000B9230000B923000030
:10006000B9230000B9230000B9230000B923000020
:10007000B9230000B9230000B9230000B923000010
:10008000B9230000B9230000B9230000B923000000
:10009000B9230000B9230000B9230000B9230000F0
:1000A000B9230000B9230000B9230000B9230000E0
:1000B000B9230000B9230000B9230000B9230000D0
:1000C000B9230000B9230000B9230000B9230000C0
:1000D000B9230000B9230000B9230000B9230000B0
:1000E000B9230000B9230000B9230000B9230000A0
:1000F000B9230000B9230000B9230000B923000090
:1001000080F0004002E000BF81F0004142001FBFCC
:100110005FEA410392EA030F7FEA226C7FEA236CD5
:100120006AD04FEA1262D2EB1363C1BFD2184140CA
:1001300048404140B8BF5B42192B88BF704710F060
:10014000004F40F4000020F07F4018BF404211F003
:10015000004F41F4000121F07F4118BF494292EA6B
:10016000030F3FD0A2F1010241FA03FC10EB0C0097
:10017000C3F1200301FA03F100F0004302D5494224
:1001800060EB4000B0F5000F13D3B0F1807F06D3D1
:1001900040084FEA310102F10102FE2A51D2B1F1C9
:1001A000004F40EBC25008BF20F0010040EA0300BE
:1001B0007047490040EB0000013A28BFB0F5000F3E
:1001C000EDD2B0FA80FCACF1080CB2EB0C0200FAF4
:1001D0000CF0AABF00EBC25052421843BCBFD04043
:1001E0001843704792F0000F81F4000106BF80F4BD
:1001F00000000132013BB5E74FEA41037FEA226C80
:1002000018BF7FEA236C21D092EA030F04D092F04A
:10021000000F08BF0846704790EA010F1CBF00207E
:10022000704712F07F4F04D1400028BF40F00040DB
:10023000704712F100723CBF00F50000704700F0FB
:10024000004343F0FE4040F4000070477FEA226222
:1002500016BF08467FEA23630146420206BF5FEAF3
:10026000412390EA010F40F4800070474FF00003F3
:1002700004E000BF10F0004348BF40425FEA000CBA
:1002800008BF704743F0964301464FF000001CE062
:1002900050EA010208BF70474FF000030AE000BFB8
:1002A00050EA010208BF704711F0004302D54042F6
:1002B00061EB41015FEA010C02BF84460146002068
:1002C00043F0B64308BFA3F18053A3F50003BCFA83
:1002D0008CF2083AA3EBC25310DB01FA02FC634430
:1002E00000FA02FCC2F12002BCF1004F20FA02F237
:1002F00043EB020008BF20F00100704702F120022A
:1003000001FA02FCC2F1200250EA4C0021FA02F28A
:1003100043EB020008BF20EADC7070474FF0FF0C8F
:100320001CEAD0521EBF1CEAD15392EA0C0F93EA8A
:100330000C0F6FD01A4480EA010C400218BF5FEA2C
:1003400041211ED04FF0006343EA501043EA51119F
:10035000A0FB01310CF00040B1F5000F3EBF490099
:1003600041EAD3715B0040EA010062F17F02FD2A9D
:100370001DD8B3F1004F40EBC25008BF20F0010080
:10038000704790F0000F0CF0004C08BF49024CEA97
:10039000502040EA51207F3AC2BFD2F1FF0340EA29
:1003A000C250704740F400004FF00003013A5DDC9A
:1003B00012F1190FDCBF00F000407047C2F10002DB
:1003C000410021FA02F1C2F1200200FA02FC5FEAC8
:1003D000310040F1000053EA4C0308BF20EADC7012
:1003E000704792F0000F00F0004C02BF400010F484
:1003F000000F013AF9D040EA0C0093F0000F01F031
:10040000004C02BF490011F4000F013BF9D041EA52
:100410000C018FE70CEAD15392EA0C0F18BF93EA54
:100420000C0F0AD030F0004C18BF31F0004CD8D17E
:1004300080EA010000F00040704790F0000F17BF05
:1004400090F0004F084691F0000F91F0004F14D04B
:1004500092EA0C0F01D142020FD193EA0C0F03D1A3
:100460004B0218BF084608D180EA010000F00040A6
:1004700040F0FE4040F40000704740F0FE4040F481
:10048000400070474FF0FF0C1CEAD0521EBF1CEA20
:10049000D15392EA0C0F93EA0C0F69D0A2EB03023E
:1004A00080EA010C49024FEA402037D04FF08053D8
:1004B00043EA111143EA10130CF000408B4238BF9D
:1004C0005B0042F17D024FF4000C8B4224BF5B1AAB
:1004D00040EA0C00B3EB510F24BFA3EB510340EAF9
:1004E0005C00B3EB910F24BFA3EB910340EA9C00A7
:1004F000B3EBD10F24BFA3EBD10340EADC001B0117
:1005000018BF5FEA1C1CE0D1FD2A3FF650AF8B42BA
:1005100040EBC25008BF20F0010070470CF0004CC7
:100520004CEA50207F32C2BFD2F1FF0340EAC250F2
:10053000704740F400004FF00003013A37E792F0B3
:10054000000F00F0004C02BF400010F4000F013A11
:10055000F9D040EA0C0093F0000F01F0004C02BF0C
:10056000490011F4000F013BF9D041EA0C0195E775
:100570000CEAD15392EA0C0F08D142027FF47DAF0E
:1005800093EA0C0F7FF470AF084676E793EA0C0FFE
:1005900004D14B023FF44CAF08466EE730F0004CFC
:1005A00018BF31F0004CCAD130F000427FF45CAF8C
:1005B00031F000437FF43CAF5FE700BF4FF0FF3CFA
:1005C00006E000BF4FF0010C02E000BF4FF0010C4D
:1005D0004DF804CD4FEA40024FEA41037FEA226C16
:1005E00018BF7FEA236C11D001B052EA530C18BF38
:1005F00090EA010F58BFB2EB030088BFC81738BF9D
:100600006FEAE17018BF40F0010070477FEA226C8A
:1006100002D15FEA402C05D17FEA236CE4D15FEA86
:10062000412CE1D05DF8040B704700BF84460846BA
:100630006146FFE70FB5FFF7C9FF002848BF10F17B
:10064000000F0FBD4DF808EDFFF7F4FF0CBF0120C0
:1006500000205DF808FB00BF4DF808EDFFF7EAFF4A
:1006600034BF012000205DF808FB00BF4DF808ED05
:10067000FFF7E0FF94BF012000205DF808FB00BFFA
:100680004DF808EDFFF7D2FF94BF012000205DF880
:1006900008FB00BF4DF808EDFFF7C8FF34BF01208D
:1006A00000205DF808FB00BF4FEA4002B2F1FE4FA8
:1006B0000FD34FF09E03B3EB12620DD94FEA002324
:1006C00043F0004310F0004F23FA02F018BF4042FD
:1006D00070474FF00000704712F1610F01D14202E4
:1006E00005D110F0004008BF6FF0004070474FF098
:1006F0000000704753B94AB9002908BF00281CBF41
:100700004FF0FF314FF0FF3000F00CB8ADF1080CA6
:100710006DE904CE00F008F8DDF804E0DDE902231D
:1007200004B07047704700BF2DE9F04786468C46FD
:100730000846089E154674461946002B40F0C280B4
:100740008542B2FA82F245D94AB1C2F1200300FAD9
:1007500002FC2EFA03F3954043EA0C0C94404FEA56
:10076000154EA8B2BCFBFEF8230C0EFB18CC08FB00
:1007700000F943EA0C43994528D9EB1808F1FF37F3
:1007800004D2994502D9A8F102072B44A3EB09032F
:10079000A4B2B3FBFEFC0EFB1C330CFB00F044EADE
:1007A0000344A04214D92C190CF1FF3304D2A04207
:1007B00002D9ACF102032C44241A43EA07401EB1CB
:1007C000D440002334607360BDE8F0874746DDE71E
:1007D0006346F1E792BB431B01214FEA154EAFB2CE
:1007E000B3FBFEFC200C0EFB1C330CFB07F840EAAD
:1007F0000343984562D9EB180CF1FF3004D29845B9
:1008000002D9ACF102002B44A3EB0803A4B2B3FB62
:10081000FEFC0EFB1C330CFB07F744EA0344A74223
:100820004ED92C190CF1FF3304D2A74202D9ACF1F6
:1008300002032C44E41B43EA0040C0E7C2F120035A
:1008400020FA03F1954090402EFA03F303434FEA58
:10085000154EAFB2B1FBFEFC0EFB1C10190C0CFBCD
:1008600007F841EA0041884504FA02F422D96918E0
:100870000CF1FF3004D2884502D9ACF102002944C2
:10088000A1EB08019BB2B1FBFEFC0EFB1C110CFBA3
:1008900007F743EA01439F420ED9EB180CF1FF31F1
:1008A00004D29F4202D9ACF102012B44DB1B41EA86
:1008B000004192E76046E3E76146F7E76046A3E759
:1008C0006346B7E7834206D916B9002108467BE79D
:1008D000C6E900E0F9E7B3FA83F78FB9834201D3A1
:1008E000724508D8BEEB020460EB030301209C466E
:1008F0001EB9002168E73846FAE7C6E9004CF8E778
:10090000C7F1200CBB4022FA0CF41C432EFA0CF168
:1009100020FA0CF3B84001434FEA14490EFA07F5E8
:10092000B3FBF9F81FFA84FE09FB18300B0C08FB27
:100930000EFA43EA00439A4502FA07F240D9E31857
:1009400008F1FF3004D29A4502D9A8F102002344ED
:10095000A3EB0A0389B2B3FBF9F809FB183308FBD0
:100960000EFE41EA03418E452CD9611808F1FF3390
:1009700004D28E4502D9A8F10203214443EA004083
:10098000A0FB0298A1EB0E014145CE46434602D39F
:1009900006D14D4504D2B9EB020E68EB04030138D1
:1009A000002EA6D0B5EB0E0261EB030101FA0CFCA0
:1009B00022FA07F34CEA0303F940C6E9003198E74D
:1009C0004046C5E74346D9E7034613F8012B002A02
:1009D000FBD1181A013870472DE9F041DFF8588033
:1009E000164E174F00254FF0FF324FF0FF334046B1
:1009F00004F088FD00F048FB014658B9002DF2D004
:100A0000304606F042F83B78002BECD00D4806F05B
:100A1000CDF8E8E700F0AAFB8542044609D001467C
:100A2000304606F032F83B781BB10748214606F005
:100A3000BDF82546D7E700BFE00000206881000030
:100A400051110020348400004D8400002DE9F7434B
:100A500000234FF480421E481D4FDFF878801E4E61
:100A6000CDE9002305F042FA384605F079FA00F0A6
:100A70000BFB054600F02EFB814600F051FB29469A
:100A80000446404606F001F865B92946304605F0AF
:100A9000FCFF2946114805F0F8FF2946104805F0EB
:100AA000F4FFE1E7A4EB0904A11C04298CBF002199
:100AB0000121304605F0E9FFA31CACBF0021012154
:100AC000064805F0E2FF022CD4BF00210121E5E732
:100AD0008002002088810000808100007881000071
:100AE00070810000F0B587B000258DF80B504FF4F1
:100AF000005200232948CDE9002305F0F7F9284CDE
:100B0000204606F0EDFE002840D001220223039586
:100B100004928DF81430A368204E9D6803A94D23DC
:100B20002046A8471F4D304605F01AFA0DF10B0379
:100B300003930122032304928DF81430A36803A9C0
:100B40009F6820464D23B8479DF90B0000F0D4FA6A
:100B500007F061F82B78ABB14FF47A72A0FB020377
:100B600002FB0131C00B40EA41404FF47A7200238E
:100B7000C90BFFF7BFFD9DF80B10134602460A484C
:100B800006F014F8094804F099FCCCE721680848FD
:100B900006F00CF84FF0FF3007B0F0BDB8020020AF
:100BA000D47E0000511100207C840000F000002061
:100BB000618400002DE9F041214E224D224FDCB02E
:100BC0004FF0FF324FF0FF33304604F09BFC3B46C2
:100BD00064220021009503A807F048F800F074FB98
:100BE00002A91CA800F022FE184805F0DFFF1CAC8B
:100BF0004FF00008029B43451BDC154805F0D6FF6B
:100C0000144B03A81C68FFF7DFFE0246A36803A984
:100C1000D3F8048020464FF0FF33C0470146002838
:100C2000CED00D4805F0C2FF4FF0FF305CB0BDE8FC
:100C3000F08114F8010B05F0C3FB08F10108D9E7B6
:100C4000D000002052110020A5840000B9840000CB
:100C5000B486000000010020C48400002DE9F843A0
:100C60000B780E46062B73D8DFE803F026045156A6
:100C7000265D70003748BDE8F84305F097BFB368BC
:100C8000DFF8D48009EB0702D45C232C16D10123B2
:100C900088F8003000232B602B685A1C2A602F4AEA
:100CA0002046D45400F0ECFA2D48214605F07EFF92
:100CB0000137F368BB42E2D8BDE8F88398F800300A
:100CC000002BF5D02B683A2B1ADC2B685A1C2A60B3
:100CD000224A2046D45400F0D3FA2148214605F098
:100CE00065FF212CE4D11F4805F060FF2B681B4AEB
:100CF0000024D4541C4804F0E1FB88F80040D7E7F6
:100D00001A4805F053FF002388F80030E5E7DFF8C4
:100D10006090184D0027CCE7174805F047FF0E4BB1
:100D200000221A70C8E7154B186883681049DC6800
:100D30003C224FF47A73A04701460028BCD01048EB
:100D400005F034FF4FF0FF3005F02CFB0D4892E723
:100D50000D4890E7E584000050110020521100205A
:100D6000FE840000B4860000D0000020038500004F
:100D70008E110020000700200185000000010020E6
:100D80002185000049850000628500002DE9F843B7
:100D900017461E46FFF7B8F901460546FFF7B6F9B4
:100DA000DDF82090394680462846FFF7B7FAD9F893
:100DB0000010FFF7ABF913490446FFF76BFCF8B9D5
:100DC00011492046FFF748FC00B10F4CC9F800401C
:100DD00031682846FFF798F93946FFF753FB0B496E
:100DE000FFF79CFA0A49356007462046FFF796FA56
:100DF0004146FFF78BF93946FFF788F9BDE8F883DC
:100E0000004CE3E70000A0410000A0C1CDCC4C3D68
:100E1000CDCCCC3D2DE9F04385B00024DFF88880AF
:100E2000029403944FF07A594FF0FF324FF0FF33A2
:100E3000404604F067FB00F073F9FFF71BFA054624
:100E400000F048F9FFF716FA02AB0093294603AB0E
:100E50004A460646FFF79AFF21460746FFF71AFC67
:100E600008B100F011F900F0010000F06BF90F4B30
:100E70001B78ABB121463846FFF70CFC0C4F0D4BED
:100E8000002808BF1F463046FFF70EFC06462846DE
:100E9000FFF70AFC334602463946074805F086FE4E
:100EA000064804F00BFBBFE7F000002051110020C2
:100EB000798500007C85000080850000E00000202E
:100EC00010B51A4C1A49A6B09522684606F04FFF95
:100ED000206806F005FD38B9164805F067FE4FF0AA
:100EE000FF34204626B010BD206883681B6843B1DC
:100EF000114900229847014630B1104805F056FECE
:100F0000EDE76FF05701F8E7206883680C49DC686B
:100F10003C224FF47A73A047044610B101460948B9
:100F2000ECE70948694605F041FEDAE700010020D8
:100F300021860000C08500005D0C0000F3850000E4
:100F40008E110020218500001E86000008B50D4886
:100F500005F0AFFD0C4805F0ACFD0C4805F0A9FD0F
:100F60000B4805F0A6FD0B4805F0A3FDFFF7A8FF11
:100F700000F05EF800F01AF800F04CFC00F03EFCC7
:100F8000002008BD88810000808100007881000079
:100F90007081000068810000014603488368DB69B6
:100FA0000BB1012218477047AC7E000070B5174E98
:100FB000174D184C304605F0D1FD284605F0CEFD02
:100FC000204605F0CBFD304605F0AFFD284605F084
:100FD000ACFD204605F0A9FD0F48104B43604FF4CF
:100FE00000638360FFF7D8FF0D480E4B43604FF45A
:100FF00080538360FFF7D0FF0B480C4B43604FF0EA
:1010000000738360BDE87040FFF7C6BFA081000099
:1010100098810000908100001C070020E76A000012
:1010200010070020136B000004070020FB6A00007B
:1010300010B50A4C002323701C23C4E9013304F1CA
:10104000100006F0C0FC04F1240006F0BCFC04F122
:101050003800BDE8104006F0B6BC00BF28070020ED
:1010600038B5084C05464FF0FF3320464FF0FF32AD
:1010700005F08BFD04F8105C2046BDE8384005F013
:1010800086BD00BF3807002038B5074C4FF0FF324F
:101090004FF0FF33204605F078FD14F8105C204631
:1010A00005F075FD284638BD3807002038B5084CD6
:1010B00005464FF0FF3320464FF0FF3205F065FD47
:1010C00044F8205C2046BDE8384005F060BD00BF14
:1010D0004C07002038B5074C4FF0FF324FF0FF337C
:1010E000204605F052FD54F8205C204605F04FFDE7
:1010F000284638BD4C07002038B5084C05464FF04F
:10110000FF3320464FF0FF3205F03FFD44F8305CDE
:101110002046BDE8384005F03ABD00BF600700201A
:1011200038B5074C4FF0FF324FF0FF33204605F043
:101130002CFD54F8305C204605F029FD284638BDCA
:101140006007002038B5084C05464FF0FF332046B5
:101150004FF0FF3205F019FD04F8405C2046BDE871
:10116000384005F014BD00BF7407002038B5074CA7
:101170004FF0FF324FF0FF33204605F006FD14F824
:10118000405C204605F003FD284638BD740700206A
:1011900010B50F4B1A68062A84BF00221A601A681D
:1011A000511C19600B4B0C4953F822400A680B4B39
:1011B000132A05D8501C43F822400860204610BD71
:1011C0004C22191D184606F0E0FDC464F6E700BF86
:1011D0008C080020E0810000380800203C08002036
:1011E00010B50F4B1A68062A84BF00221A601A68CD
:1011F000511C19600B4B0C4953F822400A680B4BE9
:10120000132A05D8501C43F822400860204610BD20
:101210004C22191D184606F0B8FDC464F6E700BF5D
:1012200034080020C4810000E0070020E40700200B
:1012300010B50F4B1A68062A84BF00221A601A687C
:10124000511C19600B4B0C4953F822400A680B4B98
:10125000132A05D8501C43F822400860204610BDD0
:101260004C22191D184606F090FDC464F6E700BF35
:10127000DC070020A8810000880700208C070020E0
:10128000064A1378132B9FBF0549C8540133002029
:1012900094BF13704FF0FF30704700BFE012002082
:1012A000E1120020064A1378132B9FBF0549C8544A
:1012B0000133002094BF13704FF0FF30704700BF20
:1012C000CB120020CC1200202DE9F047B84E337825
:1012D000CAB0002B00F08282B64A0024154612F8EC
:1012E000017B232F05D00134A342F8DC6FF003000B
:1012F000D2E0A342FADDAF48FFF766FB043828448A
:1013000006F0CEFC31786B18804613F8013C212B97
:10131000ECD1601C2B5C502B00F0F28107D8412BE4
:1013200036D04C2B00F0C6806FF00100B4E0522B99
:10133000FAD10539284405F02CFC404540F04B8299
:1013400025446D79212DD1D1502200219A4806F0F3
:1013500036FD0024994B9A481C605022214606F025
:101360002EFD984B98481C605022214606F027FD20
:10137000964B38461C60FFF795FF7220FFF792FFEF
:101380003120FFF78FFF3120FFF78CFF34207CE006
:101390000539284405F0FDFB404540F01C822C44F3
:1013A0006379212BA2D1FFF7F3FE0746FFF718FF61
:1013B0000546FFF73DFF87EAE773A3EBE77300936A
:1013C0000C22834B0AAC8046002104A806F04EFC98
:1013D00047F26143002F23800DF11009B4BF2D2384
:1013E0002B23A3700DF12A024B464FF0030A13F88A
:1013F000011B0AF10107002951D1002DB8BF6D4230
:10140000744B00950C2204A806F030FC682304F805
:101410000A30E21904AB13F8011B7D1C002942D1EC
:1014200088EAE873A3EBE87300930C226A4B04A8E4
:1014300006F01CFC6323E355294619F8012BB2BBC7
:101440002046134610F8015B1746013291422B44A7
:10145000F8D1604ADBB2052102A804F0B7FF2320CF
:10146000FFF720FF002514F8010BFFF71BFFBD421B
:1014700005F10105F7D19DF80800FFF713FF9DF86E
:101480000900FFF70FFF9DF80A00FFF70BFF21206F
:10149000FFF708FF002030704AB0BDE8F08702F87F
:1014A000011FBA46A3E702F8011B2F46B3E76254B7
:1014B0000131C2E70539284405F06BFB404540F097
:1014C0008A812B195A79212A40F0F480434D444CEB
:1014D000DFF8E480DFF8E490DFF8F4A02846FF228C
:1014E000002106F06CFC01232370742305F8013DF4
:1014F0000027D9F80030BB4274D82378DFF8C080C9
:10150000DFF8C090DFF8CCA05A1C22706822EA54A1
:101510000027D9F80030BB4200F28E802378DFF834
:10152000A880DFF8A890DFF8B0A05A1C22706322D0
:10153000EA540027D9F80030BB4200F29A806C23AD
:101540008DF828302378032B82BF0F22B3FBF2F3F0
:1015500001331F4A8CBFDBB20023052107A804F02A
:1015600035FF07AB0AAA012113F8010B002840F050
:101570009D800AAD00222846134610F8014B1746FD
:10158000013291422344F8D1124ADBB2052102A86C
:1015900004F01CFF2320FFF785FE002415F8010B43
:1015A000FFF780FEBC4204F10104F7D163E700BFFE
:1015B000E0120020E11200203C0800203808002042
:1015C000E4070020E00700208C07002088070020A7
:1015D000FD8600000287000007870000CC11002074
:1015E000CA110020D8F80030002BB8BF5B420021A0
:1015F00000930C22534604A806F038FB58F8043B2D
:10160000002B237803F10102B4BF2D212B21D2B28C
:10161000E954227004A9002011F801CB531CDBB25D
:10162000BCF1000F03D100B12270013761E705F86A
:1016300002C001201A46EFE758F8043B002BB8BF60
:101640005B4200930C225346002104A806F00EFBD7
:1016500022780DF1100C00231CF8010B511CC9B2AB
:1016600018B903B12270013753E7A85401230A4681
:10167000F2E758F8043B002BB8BF5B4200930C2202
:101680005346002104A806F0F1FA22780DF1100C5F
:1016900000231CF8010B511CC9B218B903B1227008
:1016A000013747E7A85401230A46F2E702F8010F81
:1016B000013159E7DB79212B7FF418AE2C440A2144
:1016C000A278E378474F303A303B01FB02336C227B
:1016D0000E218DF82820444A03FB01104B43147857
:1016E000C3F101050AAA9C4205EB03017FF741AF54
:1016F00098427FF73EAFF95C02F8011F0133F2E731
:101700002C4494F80290A9F16303DBB2112B3FF64D
:101710000BAE364F1F4117F001077FF405AE0539B8
:10172000284405F036FA404555D1A379212B7FF4A2
:10173000DDAD7023B9F1740F0AAC237084F8019009
:101740002AD1FFF725FD0028ACBF2B232D2300282D
:10175000B8BF4042A3700C220090254B394607A821
:1017600006F084FA032507AB13F8012B82BB294648
:10177000204605F00EFA1F4A0346052102A804F090
:1017800025FE2320FFF78EFD14F8010B0137FFF72C
:1017900089FDBD42F8D16EE6B9F1680F0DD1FFF7B2
:1017A0001FFD0028B8BF4042124B00900C220021C0
:1017B00007A806F05BFA0225D5E7B9F1630FFAD165
:1017C000FFF736FD0028B8BF40420B4B0090EDE715
:1017D00062550135C8E76FF002005DE64FF0FF305B
:1017E0005AE600BFCB110020CA110020DEFFFDFF2A
:1017F000FD8600000287000007870000034B0448B5
:1018000000211422197006F0DABA00BFE01200209D
:10181000E1120020034B044800211422197006F045
:10182000CEBA00BFCB120020CC120020034B1A7896
:101830000A6012B1024906F09ABA7047CB12002032
:10184000CC120020014B1B68184700BF0401002088
:10185000014B1860704700BF0401002030B585B00F
:1018600004460D4610220021684606F0A8FA02231D
:101870008DF802302A46044B01932146684604F055
:1018800047FE05B030BD00BF4518000080B50546D5
:101890000E461746984604F057F9034606F0B4FA88
:1018A000DFF81890044649F8003042463046394681
:1018B000A84754F8090000F031FC00BF0800000000
:1018C0002DE9F047058B04462807904611D40229DC
:1018D00005F0070540F0CD80204605F0DDF978B130
:1018E0000138218B042811D8DFE800F0C3106D8582
:1018F000950001290CBF45F0100545F02005258312
:1019000088F31188BFF36F8FBDE8F08701F0070AF5
:10191000AA4500F0A6800027B9463E46A368002BE2
:1019200000F0BD8041F00801218388F31188BFF3E6
:101930006F8FA168002900F0BB800D68002900F0BE
:10194000B780D1F80480334652462046C047002D68
:1019500076D02B6829461D46F0E701F007035A1F91
:10196000012A1BD8002221F00701062B276889B223
:10197000C4E9002209D13B4603E0628B0132628355
:101980001B68002BF9D141F002012183204605F0AC
:1019900083F900287BD041F0200177E0042B0AD1A5
:1019A00021F0070189B22183204605F075F910B1B5
:1019B00041F020012183218B01F0070AAA4550D074
:1019C0000027B946AAE7236921F0070141F0060183
:1019D000062DD3F8009021832DD1B9F1000F40D00E
:1019E00041F00801218388F31188BFF36F8F3A49D2
:1019F0002046C84729E021F00701236941F004018E
:101A000089B2042DD3F804902183E6D000273E4606
:101A10004FF0040A82E721F00701236941F0050134
:101A200089B2052DD3F808902183D6D000273E46F1
:101A30004FF0050A72E700273E464FF0060A6DE7B1
:101A40002B4687E7B9F1000FD1D14FF02003EFF318
:101A5000118883F31288BFF36F8F238B23F0080361
:101A60002383258BEA062ED525F01003238305F06A
:101A700007056669218B002EBFF66FAF002327682C
:101A8000C4E9003321F0070141F001012183218BDA
:101A900001F0070AAA454FF000097FF43FAF002F7D
:101AA0009BD041F00801218388F31188BFF36F8F29
:101AB000002FC7D03D68394633465246204605F0D0
:101AC00017F92F46F4E7AB067FF51AAF25F0200390
:101AD000238305F00705FFE61D6D000008B50446E9
:101AE0004FF02002EFF3118382F31288BFF36F8F60
:101AF00002F0C4F8204600F0BBFA034805F056F89F
:101B000000F034FCFCE700BF0C870000014B0360D1
:101B100000207047FC810000014804F09BBA00BF20
:101B2000FC81000038B5044618B90F4B0F485B68BC
:101B300098476168B1F5683F10D0B1F5680F0DD0D6
:101B40000B4DA9420AD011F46861206807D0014604
:101B5000084805F0F8FE00232360656038BD1422B4
:101B600006F02DF9F9E700BF1002002035870000CC
:101B70002C5F5CA9900D002008B520B34368B3F535
:101B8000683F10D101220368BFF35B8F53E8001F49
:101B9000002903D143E800200028F7D1BFF35B8F71
:101BA0000DD1002008BD094A93420AD000684FF0C9
:101BB000FF324FF0FF3303F007FC0028F1D0044858
:101BC000F0E70448EEE76FF4E040EBE72C5F5CA938
:101BD000E98FFFFFEA8FFFFF08B5D8B14368B3F57F
:101BE000683F10D100220368BFF35B8F53E8001FEA
:101BF000012903D143E800200028F7D1BFF35B8F10
:101C00000BD1002008BD074A934208D0006803F0BA
:101C10009FFBF6E76FF4E040F4E70348F2E7034880
:101C2000F0E700BF2C5F5CA9E98FFFFFEA8FFFFFA1
:101C300010B5044618B91D4B1D485B68984763688A
:101C4000B3F5683F2FD0B3F5680F2CD0194A9342F3
:101C500019D1236803BB18484FF0FF324FF0FF3310
:101C6000214603F0BBFA08B923681BB90F4B134890
:101C70005B68984720681422002106F0A0F84FF412
:101C80006863636008E0B3F5683F0DD83A2B03D072
:101C900040F6BA629342DED1206805F094FE636894
:101CA00043F03A03636010BD054AF3E710020020D9
:101CB000358700002C5F5CA9900D00205B87000039
:101CC0003A00003A08B5064906484023142205F0B8
:101CD0002CFEBDE808400449044804F02DBA00BFBA
:101CE00090080020900D002004820000188200005F
:101CF00030BFFFF7FDBF00BF114B124A2DE9F04185
:101D0000D518DFF84480013DB5FBF3F55D430F4B7B
:101D100008EB0304013CB4FBF3F403FB04540E1B77
:101D200007460B49304606F022F87019424600215A
:101D3000083E06F044F83E6704F10800BDE8F08173
:101D40000100000000000000080000000400000086
:101D500058810000044B99685869884203D00349B0
:101D60004FF080520A607047480F002004ED00E0F9
:101D700070B5264B15469A6A12F0100F9A6A14BF76
:101D80001124102412F0080F9A6A18BF1224920727
:101D900006460AD5586B9A6A140634D519B19A6A60
:101DA00022F080029A62132401E06FF01500174BB5
:101DB0009A6A12F0010F9A6A18BF142412F0200FC9
:101DC0009A6A18BF1524D20602D49B6A9B070AD5CB
:101DD0000E4B5B68190506D5314600F08FFA10B13D
:101DE00080F309880224094B9A6A920642BF5A6A14
:101DF00022F400525A629A6A42F0FF029A62002369
:101E00002B70204670BD6FF01500CCE700ED00E0B0
:101E1000134B9A6A12F0007F9A6A14BF1E201D208D
:101E200012F0807F9A6A18BF1F2012F4002F9A6A5E
:101E300018BF212012F4802F9A6A18BF222012F4B2
:101E4000003F9A6A18BF232012F4803F9A6A6FEA13
:101E500002426FEA12429A6218BF2420704700BF04
:101E600000ED00E010B5194B0246986A9C6A10F428
:101E7000805F14BF1720162014F4006F9C6A18BFEF
:101E80001820A40509D5986B986A000404D51AB1E6
:101E90009A6A22F400429A6219200C4B9A6A12F450
:101EA000806F9A6A18BF1A20D2050CD49B6A13F46B
:101EB000005F18BF1C20054A936A43F47F43936276
:101EC00000230B7010BD1B20F5E700BF00ED00E004
:101ED000F0B5484B5B688BB00446C3F3080300259C
:101EE00085F31188BFF36F8F02F07F40B0F17F4F11
:101EF00011D102F00C0008280DD010074CBF0C4681
:101F000001250022033B8DF80720032B05D8DFE8CD
:101F100003F0246367602C46F3E700239DF8072055
:101F2000CAB902AE04F1200720686168324603C2D4
:101F30000834BC421646F7D1099A002D54D0C2F39A
:101F4000080121B96FEA52226FEA4222099202A9DE
:101F5000184604F07FFF0BB0F0BD264BDA6A9107FC
:101F6000DBD4DA6A002AD8DBDA6A5200D5D55A699E
:101F7000A16942F480725A61BFF34F8FBFF36F8F34
:101F80005A6931F8021C22F480725A61BFF34F8FF4
:101F9000BFF36F8F4DF6027291420AD09A6AD2B2A5
:101FA0004AB10DF1070201212046FFF7E1FE034689
:101FB000B4E72368B2E79A6A12F47F4F05D00DF1B7
:101FC00007010120FFF74EFFF1E79B6AB3F5803F61
:101FD000A3D3FFF71DFFEAE70DF107020021E3E7B6
:101FE0000DF107010020EDE722F4FF7222F001025B
:101FF000ACE700BF00ED00E0024A536943F0100374
:102000005361704700ED00E0EFF30880EFF30981C2
:1020100001B57246FFF75CFF01BD00BF002080F3F1
:102020001488BFF36F8F00F03BFB00200D49086060
:10203000BFF34F8F0C4880F3088800F03DF8202054
:1020400080F3118809484FF40461401880F309882F
:10205000EFF314800221084380F31488BFF36F8FDD
:1020600000F014F994ED00E0403A0020802C0020AC
:10207000BFF34F8F0549064BCA6802F4E062134371
:10208000CB60BFF34F8F00BFFDE700BF00ED00E066
:102090000400FA050749D1F890200023C2F3072273
:1020A0001846934200DB7047C1F89830C1F8A00091
:1020B0000133F6E700ED00E008B572B6002383F3C4
:1020C0001388FFF7E7FF144B4FF0FF32C3F880206F
:1020D000C3F88420C3F88820C3F88C20C3F890206C
:1020E000C3F89420C3F89820C3F89C20C3F880213B
:1020F000C3F88421C3F88821C3F88C21C3F8902148
:10210000C3F89421C3F89821C3F89C2162B6BFF3A9
:102110004F8FBFF36F8F08BD00E100E0084B9B6855
:1021200083420BD1EFF3058343B1064B5A6842F06B
:1021300080525A605A6A22F400425A6205F030BD59
:10214000480F002000ED00E0094A93686FF00A0193
:102150009967084958674B6843F080534B600023E8
:1021600083F31188BFF36F8F9368986F704700BF38
:10217000480F002000ED00E015498A684FF030005C
:102180001044EFF3098C80E8F01F202080F31288C0
:10219000BFF36F8F0F4F4FF000664A698A603E6051
:1021A0004FF07004141920680B4C2060506F00230E
:1021B000536780F3118804B5104600F01DF9BDE89F
:1021C000044002F1300090E8F01F8CF3098870475A
:1021D000480F002004ED00E0AC0D00201EF0040FBD
:1021E0000CBFEFF30880EFF30980816911F8021C3E
:1021F0000229FFD001B504F02FFE01BD40B2002836
:1022000007DB044A4109012300F01F00834042F824
:102210002130704700E100E040B200280CDB4309A8
:10222000064900F01F0020330122824041F823209C
:10223000BFF34F8FBFF36F8F704700BF00E100E027
:10224000054B420900F01F0053F82220012303FA36
:1022500000F01040704700BF00E100E040B20028ED
:10226000A8BF00F1604001F10101B8BF064B4FEA81
:102270004111ACBF00F5614000F00F00C9B2B4BF1E
:10228000195480F80013704714ED00E00B4A08B5AC
:102290000B4B22F07F029A60BFF34F8FBFF36F8F1B
:1022A000D3F8882022F47002C3F8882002F0C4FE1C
:1022B00003F050FC00F074F802F010FF0000000082
:1022C00000ED00E042F8203C009B42F81C3C0A492B
:1022D000019B42F8183C029B42F8143C21F001019A
:1022E0004FF0807342F8043C42F8081C0023203A67
:1022F00002654367704700BF8D180000094A034616
:10230000906870B113F1160F006E05D0A0F1400275
:102310009A4205D8834203D2814228BF00207047E9
:1023200000207047480F002008B514460A4A0B4B9E
:102330009060026F1A600D4600F05EF8204685F34B
:102340000988002163B681F31188BFF36F8F0022E3
:102350000023FFF79BFA00BF480F0020AC0D0020C0
:10236000014910220A60704710ED00E072B640404B
:1023700080F31188BFF36F8FBFF34F8F30BF62B60A
:10238000BFF36F8F704700BF72B6494081F3118869
:10239000BFF34F8F20BF80F3118862B6704700BF34
:1023A000044800232021C2180133302B82F8001387
:1023B000F9D1704700E100E001B5EFF30580A0F12D
:1023C00010004FEAC0000449014409C99847BDE81C
:1023D0000140024908470000E87E0000551D00004A
:1023E000024B034A0348012100F040B800000420DA
:1023F0000000002028820000026E054B403A1A605F
:10240000044A4021C3E901121846012100F038B8FE
:10241000B00D002000000B15084AC2F898000B68A8
:1024200023F01F03034343F01003C2F89C308B6872
:1024300043F00103C2F8A030704700BF00ED00E098
:10244000044B0522C3F89420BFF34F8FBFF36F8F67
:10245000704700BF00ED00E0BFF35F8F024B00222A
:10246000C3F89420704700BF00ED00E010B5034CA6
:102470000123227804F00FFD207010BDF51200201A
:1024800008B5094A0023127804F005FD10F1160F73
:1024900003D0064B0022072800DD08BDC3F89800D2
:1024A000C3F8A0200130F6E7F512002000ED00E0AF
:1024B000F0B5454D2C68082C85B000F28280FFF7FE
:1024C000CBFF00200C2684420DD1404D404F2C7094
:1024D0006846FFF71BFB00240646A6420AD1FFF719
:1024E000AFFF00201CE0696806FB0011FFF794FFB6
:1024F0000130E8E7009800EB04114FEA041CCB68B8
:102500003B40B3F5000F4AD00CD8B3F5001F30D0D4
:10251000B3F5800F38D0B3F5801F12D06FF01500DF
:1025200005B0F0BDB3F1807F42D0B3F1007FF5D1AB
:1025300050F80C3088684A6804F09DFC40F4802014
:1025400009E050F80C3088684A6804F094FC40F0C8
:10255000885040F43020039028780728CDE90123E3
:10256000DCD801A9FFF758FF2B7801332B70013419
:10257000B3E750F80C3088684A6804F07CFC40F0FF
:10258000885040F40020E6E750F80C3088684A682C
:1025900004F071FC40F0E06040F40030DBE750F8FC
:1025A0000C3088684A6804F066FC40F08270D2E71C
:1025B00050F80C3088684A6804F05DFC40F0887080
:1025C000C9E74FF0FF30ABE734820000F51200207E
:1025D0000000F0FF08B5024B1B689847002008BDBB
:1025E000BC0D0020034B044A1860937843F00203AB
:1025F00093707047BC0D00202801002008B50248E8
:1026000004F0D4FAFEE700BF9787000008B504483D
:1026100004F0CCFA404080F311884FF0020002DF52
:102620009D87000008B50649064821F00701C1F161
:10263000005202F5802204F0F2FA002008BD00BF2B
:10264000873A0020C00D00200E4A0123C2F8403511
:102650004FF080424FF08051C2F87835D1F8300108
:10266000082808D1D1F83411052904D80648415C5E
:1026700009B1C2F838364FF080430122C3F88025F3
:102680000020704700E00140BB87000020B1034BF1
:10269000800143F001031847704700BF60810000CC
:1026A00001F01EBB084B70B5C31A0D4607499B10BD
:1026B000044659430648402204F03CFC2B460146A0
:1026C0002046BDE870401847E00D0020B76DDBB62E
:1026D000847E000073B50C4C0C4A4023041B00930D
:1026E0000D460B460A49A41061430646094804F00A
:1026F0004EFC011E05DA30462B4602B0BDE87040A4
:10270000184702B070BD00BFE00D0020FB6F000055
:10271000B76DDBB6847E0000002270B5012104464F
:102720001046FFF79BFD0F4801F064FC0E4B9842EA
:1027300015D101F06FFC26690C49304604F0FCFA13
:1027400000280BDB012535642469084904F11C00CD
:1027500004F0F2FA002801DBE564002070BD6FF0A0
:102760000400FBE7A52700000000AD0B5882000025
:1027700070B501460C2309484B43C418D4E90E56E2
:10278000403300221844A26304F0C1FB2DB132464D
:102790002B460348BDE87040184770BDE00D00208F
:1027A000847E000010B1012804D07047034B1B6CDD
:1027B0005B0701D1FFF7DCBF704700BFE00D0020D1
:1027C00008B54FF02003EFF3118183F31288BFF3B4
:1027D0006F8F124A136843F002001060DA0708D4C2
:1027E00081F31188BFF36F8F0120BDE8084001F02D
:1027F00023BC4FF08043D3F80C24D3F80C34DB0710
:10280000EED5074804F083FB81F31188BFF36F8F87
:102810000020BDE80840FFF7ABBF00BF300E00202E
:10282000200E00201FB500220123CDE90223094A12
:10283000CDF800D06B46CDF804D004F0D7FB0028CB
:1028400005DB4FF480420023684602F05BFE05B0D2
:102850005DF804FB1970000010B54FF02003EFF392
:10286000118483F31288BFF36F8F074A136823F034
:102870000201DB07116002D4012004F0FEFE84F3A4
:102880001188BFF36F8F10BD300E00202DE9F0418D
:102890003849BFF35B8F0746012251E8003F41E80A
:1028A00000200028F9D1BFF35B8F33B93249334898
:1028B0004B60CB608A6004F052FA7B1E012B2BD850
:1028C000012F07D14FF08043D3F81C3403F00303EA
:1028D000012B21D005F05DF80546F8B9284B1B788F
:1028E000E3B14FF080430222C3F808230646DFF825
:1028F00094804FF08044D4F81824D4F81834D203CC
:1029000016D503F00303012B01D0012F10D15DB3C5
:1029100086F31188BFF36F8FBDE8F0814FF020037D
:10292000EFF3118683F31288BFF36F8F0125DEE783
:10293000ADB13046FFF728FDD4F81835002BDAD1B9
:10294000D4F80421002AD6D0C4F80431D4F80431D4
:102950000123C4F81835C8F88031A360CBE7002103
:10296000212003F0D7F8E7E74FF080430222C3F8B5
:102970000423D1E7DC0D0020CC0D0020FC0D00204D
:102980001017002000E100E008B5074804F0A8FF98
:1029900038B10648FFF726FE0448FEF759FF00202D
:1029A00008BD6FF01200FBE7C07E0000B1290000F7
:1029B0000A2838B5074D044604D1AB680D21DB6900
:1029C00028469847AB680348DB69E1B29847204640
:1029D00038BD00BFC07E0000F0B54068057B01F047
:1029E0001F0444EA4514056987B0002D64D0B2F590
:1029F000001F00F1100506D12146284604F0BDFE57
:102A0000002007B0F0BD01AE0027B2F5800F01979E
:102A1000776039D1B3F1007F14BF052304238DF80B
:102A200004300023CDE904630393836823FA01F1A2
:102A300011F001011AD1B2F1A07F17D104F01F03E8
:102A4000620903F5E0732AD0012A3BD11F4A52F8EC
:102A50002330DB070AD40DF103063246214628460F
:102A600001F0C8FD1A4B98421CD0029603AA2146D9
:102A7000284601F081FC174B984220D101222146C3
:102A8000284601F01FFEBBE7B3F1C06F05D0B3F1DC
:102A9000007F14BF01230223C1E70323BFE74FF0E8
:102AA000A042D4E73146284601F006FE094B984281
:102AB000DBD06FF00B00A4E76FF08500A1E76FF0AB
:102AC00015009EE751F82330FFDE00BF00030050E1
:102AD0000400AD0B0000AD0B38B545682B69B3B1F0
:102AE0001035284601F0D8FD044680B90146284635
:102AF00001F09AFD084B98420BD10849224628461E
:102B000001F072FD224605210620FFF7A7FB0020F9
:102B100038BD6FF00400FBE70000AD0B212B000077
:102B2000420970B5034602D0012A17D070BD0D4E80
:102B3000326951680029F9D003F01F0301250C68A0
:102B40009D400029F2D08A682A4002D04B68304666
:102B500098472CB1236821461C46F2E7024EE7E76E
:102B60002346F8E7AC7E0000987E00002DE9F04394
:102B7000466840F20635D006337B87B002EA050589
:102B800054BFC2F34010032001F01F07B5F5837F47
:102B9000144647EA43178DF8030044D00FD8062D9A
:102BA00018D007D8B5B1022D3FD06FF0150007B08F
:102BB000BDE8F083B5F5807FF7D101250AE040F24A
:102BC0000222954233D0B5F5407F32D0B5F5007F73
:102BD000EBD1022522032ED5726801238B40C2F867
:102BE0000835326992BB07F01F037F092BD0012FF4
:102BF00079D13F4A02EB830284F48033D2F8001784
:102C0000C3F30043C4F3404444EA430421F4E161C4
:102C100044EA800421F0070144EA05230B43C2F88B
:102C200000370020C3E70725D4E70425D2E70525B0
:102C3000D0E70325CEE7630341BF012372688B40D1
:102C4000C2F80C35CDE74FF0A042D3E710360DF1B6
:102C500002023946304601F0CDFC14F4403F804674
:102C60000CD13946304604F086FD224B9845D8D128
:102C70009DF80210304601F019FDD2E701AB4FF08C
:102C8000000903AA39463046CDE90439CDE9019956
:102C9000CDF80C9001F070FB164B984285D114F4DE
:102CA000003315D09DF803308DF80E3084F4803455
:102CB000C4F300444B4603AA394630468DF80C5005
:102CC0008DF80D4001F012FC0A4B9842CDD06CE714
:102CD000CDE9043303AA0DF10303394630460393CB
:102CE00001F04AFBF0E703F5E07352F82330FFDE12
:102CF000000300500000AD0B08B543681B68D3F813
:102D00000805D3F80C1502F09FF8034B984214BF46
:102D10006FF00F00002008BD0000AD0B37B5044672
:102D2000002201210320FFF799FA63689D6901AA37
:102D30000021284604F0E1F9002814DB019B2A68F1
:102D40001979186800F0C0F800280CDB6068236966
:102D5000064A00F1080101F01DFF054B984214BF1F
:102D60006FF00F00002003B030BD00BF752D0000D4
:102D70000000AD0B0378012B08D0022B08D04BB913
:102D8000054B0B6201F1100002F098BB034BF8E712
:102D9000034BF6E7034BF4E70000AD0B0100AE0B6D
:102DA0000200AE0B0100AD0B2DE9F04F8BB00546D4
:102DB0000C4691460193476806694FF0FF324FF089
:102DC000FF33304602F09EFB06F1100A002200237A
:102DD000504602F097FB384601F020FFDFF8C0B004
:102DE0004FF00008C14501D800242EE0237A039358
:102DF00013F008014DD112220DF11600029104F0DA
:102E0000DEFF039B60680199069003F001022068D1
:102E10008DF8151013F0020F02998DF81420089008
:102E20001DD109F1FF33434502D9237D5B0718D536
:102E30007ABB202205A9384601F01CFF584512D064
:102E4000184B984228D06FF00404384601F0F6FE83
:102E5000304602F033FB20460BB0BDE8F08F0A4647
:102E6000E8E74022E6E74FF480420023504602F0B4
:102E700049FB30B1384601F0E1FE2846FFF73CFF40
:102E8000E1E7336A5B4504F10C04DCD108F1010889
:102E9000A8E76FF08504D8E76FF00F04D5E700BF0F
:102EA0000000AD0B0B00AD0B036803F01F025B09C4
:102EB000026004D0012B034818BF002070474FF078
:102EC000A0407047000300502DE9F04FDFF89881D3
:102ED000DFF8989185B01546824600EB8101514597
:102EE00003D1002005B0BDE8F08FDAF80030D80437
:102EF000C3F3432203F07F0400F1AF807F2C4FEA3D
:102F0000134318F8027008BF4FF0FF34222B00F271
:102F1000A780DFE803F0122228432B3243A5A5A5A2
:102F2000A54672A5A5A5A5A5A5A5A5A57580838679
:102F3000A5A5A5899194979A9D00C5F80C45601C9C
:102F400018D003A80394FFF7AFFF039B012606FAEE
:102F500003F3C0F80835B3462CE0C5F81445631CEC
:102F600008D00026F7E7C5F80845E8E7621CC5F871
:102F7000084570D10AF1040AB1E7631CC5F80C4595
:102F8000F8D0012603A80394FFF78EFF039B4FF0B0
:102F9000010B0BFA03F3C0F80C350BE0C5F8104534
:102FA000DDE7C5F80845002FD9D1671CE2D000261F
:102FB000B3460627DAF80030019303F40052002AE2
:102FC00003A81CBF4FF0000B01260394FFF76CFF12
:102FD000039A019B00EB8200C3F3C114D0F80027D1
:102FE0003B0243EA840343EA0B0302EA0902134368
:102FF00043EA4603C0F80037BCE7C5F80C45D2E702
:10300000C5F86045661CDAF80030B3D0C3F38033EE
:10301000002BB6D095E7C5F86445F3E7C5F86845D9
:10302000F0E7C5F86C45EDE7C5F82445621CA1D072
:103030004FF0000B0126BDE7C5F828457FE7C5F82E
:103040003045F3E7C5F83445F0E7C5F83845EDE716
:10305000C5F83C45EAE7002694E76FF0150041E724
:103060006FF085003EE700BFF9870000F0F8FCFF35
:10307000F7B51D4643680469D3F800C006464FF013
:103080002003EFF3118783F31288BFF36F8FE36898
:10309000D86838B187F31188BFF36F8F6FF00F00D6
:1030A00003B0F0BDDA60E36899604FF48003CCF8B8
:1030B000043301F06043B3F1005FE36811D119619B
:1030C000E3685A612146304604F09BF987F3118882
:1030D000BFF36F8FE37A012B01D16B1C06D1002067
:1030E000DEE7D861204604F005F9EBE70B480C4A0F
:1030F000E46825EAE5754FF4004600210023C5FB8E
:103100000601FDF7F7FA203402460B4600200021A5
:10311000CDE90001204602F0E9FEE0E73F420F0062
:1031200040420F002DE9F74307460022012102200B
:10313000FFF794F80220FFF761F87E683D69346874
:103140004FF00008C4F800852F60D6F80C9001AA53
:103150004146484603F0D1FF002839DB019BD9F8EE
:10316000002019791868FFF7AFFE002830DB6B7A72
:10317000D7F810C0012B03D0032B27D14FF0100834
:10318000AB7A032B22D1E97A09B101291ED12A7A1F
:1031900012B1022A1AD10E226B687868B3F5164F65
:1031A000006800F0E88034D8B3F5165F00F0E680E0
:1031B0001AD8B3F5966F00F0E3800CD8B3F5967F7C
:1031C00000F0E180B3F5167F00F0E0806FF085003D
:1031D00003B0BDE8F083B3F5166F00F0DA80B3F505
:1031E000965FF3D1804B45E0B3F5E14F00F0D4801A
:1031F00008D8B3F5615F00F0D180B3F5964FE5D103
:103200007A4B37E047F6122E7345DFD14FF40003B7
:1032100030E0B3F5613F00F0C38015D8B3F5963FB9
:1032200000F0C1800AD84DF6C02E734500F0BD8075
:10323000B3F5614FCAD14FF46B031BE0B3F5E13F27
:10324000C4D14FF0EB7315E0B3F5612F00F0B080FF
:103250000AD8DFF89CE1734500F0AD80B3F5E12FAB
:10326000B4D14FF0E86305E0DFF888E17345ADD1F4
:103270004FF08053C0F824357B6841EA08011B6891
:103280000A43C3F86C25D5E901010CF1040383E876
:1032900003007368990713D505F11C0001F03EFB8C
:1032A000554B984240F09C80287F04F10C0204F5B5
:1032B000907104F0D8F92B7F0120984000F032FE85
:1032C000EB68002B7AD07B68D7F810801B6804224B
:1032D000C3F80423D8F80C100122C1F8C0204749D4
:1032E000C3F804130821C3F80015D3F84C11A1B199
:1032F0005A60D3F844211AB9D3F82421002AF8D00F
:103300000022C3F84C21D3F84C11C3F81021D3F894
:103310001011C3F84421D3F84431D8F80C003849CF
:103320000022803004F079FCD8F80C30C3F8B48067
:10333000D8F80C0033490022203004F06EFCD8F895
:103340000C30C3F8548073689A075CBF4FF48073E5
:10335000C4F804337368DB0644BF4FF48003C4F839
:1033600004336B69C4F8443500200123C4F84805D0
:10337000A360E3602CE74FF41D037BE7224B79E762
:103380004FF49E2376E74FF4A03373E74FF41C33DA
:1033900070E74FF41D236DE71C4B6BE71C4B69E78F
:1033A0004FF06C7366E71B4B64E74FF4650361E70E
:1033B0004FF070635EE74FF080635BE70823C4F86B
:1033C0000035337A002BBED1C4F81031D4F8103157
:1033D000AB69C4F834350123C4F838352360B2E74B
:1033E0006FF00400F4E600BF00B0130000A04E0030
:1033F00090D0030040420F000000AD0B10020A0005
:103400004F750000237600000050270000C07500B3
:1034100000F03A0000903A012DE9F04104460569B8
:103420000E4604F0B6FAB0B92A4B1B789BB164275C
:10343000606803F0D6FF002838D1012004F011F9AC
:10344000013FF5D10021212002F064FBEFE781F379
:103450001188BFF36F8F4FF02003EFF3118183F3D7
:103460001288BFF36F8FD4F8048040460F4603F0F4
:10347000B8FF0028EBD0EB685BB1DA684AB1D3F84B
:10348000BC20002A05DAD8F80020D2F84C25C3F871
:10349000BC206B691E7069690122204603F047FE5B
:1034A00087F31188BFF36F8FBDE8F0814FF02003E1
:1034B000EFF3118183F31288BFF36F8F60680F46BB
:1034C00003F08FFF0028E4D181F31188BFF36F8FE1
:1034D000B8E700BF101700202DE9F04143681D68D0
:1034E0000369D5F8081188B0044669B10022C5F80F
:1034F0000821D5F80821DA68D2F8B8300133C2F8CB
:10350000B83008B0BDE8F081D5F8243123B3C5F850
:103510002411D5F8243143681B68D3F88064C3F8BC
:103520008064142203A804F04AFC0623F2078DF8F5
:103530000C3000F10C81B30700F10B81770700F12B
:103540000A8106F00806204603A98DF8106003F0F2
:1035500016FE204603F0A9FED5F81031002B33D01B
:10356000D5F80433D8062FD54FF00008C5F81081E0
:103570002669D5F8103163681F68F368012283F863
:10358000CE20F068803004F054FBF268D7F83C1588
:1035900092F8C93082F8C980F268106E1B1A0B4489
:1035A000106F23EAE37108444345106702DD2046AB
:1035B00003F0ECFDF16891F8CA3003F0FF02002B34
:1035C00040F0CB8081F8CE20D5F84C3183B3D5F8CC
:1035D00010616EBBC5F84C6114222769D5F84C31D7
:1035E000314603A804F0EBFB032303A920468DF822
:1035F0000C3003F0C4FDFB685A6F511C18D0DA6719
:10360000FF688F49B86F8F4A20EAE07C8E464FF4FE
:1036100000403146CCFB00E100237046FDF76AF81C
:1036200002460B46CDE9000107F1800002F05EFC86
:10363000D5F8443163B3D5F810614EBBC5F8446189
:103640002769D5F84431F968D4F804805831204608
:1036500003F0B5FDF9682046643103F0B0FDFB6866
:1036600083F8CA60FB6893F8CB2032B183F8CB6053
:1036700060683246314603F055FED8F80430D8066B
:1036800003D50221204603F082FE204603F0AFFD61
:10369000D5F82031DBB1D5F80433D90517D56368E7
:1036A0001B684FF02001EFF3118281F31288BFF302
:1036B0006F8FD3F8201131B10021C3F82011D3F856
:1036C00020110121D96082F31188BFF36F8FD5F8E3
:1036D0005831002B3FF415AFD5F804335A027FF56B
:1036E00010AF63682569D3E90073DB0666D4EB6825
:1036F0009B68002B3FF405AF4FF02003EFF31182DE
:1037000083F31288BFF36F8FEB68D3F8BC100029E6
:10371000ACBFD3F8BC60D7F84C6582F31188BFF317
:103720006F8FEB6893F8CD20002A54D04FF0200320
:10373000EFF3118683F31288BFF36F8F294620467B
:1037400003F05FFE86F31188BFF36F8FD9E6012681
:10375000F9E60226F7E60426F5E65831204603F09E
:103760002EFD4FF02003EFF3118183F31288BFF396
:103770006F8FF3685A6EF2B19A65F3689A6EDA65E4
:10378000F26800235366F2689366F2681366D7F80E
:103790004C310BB901233B60D7F8003223F02003F2
:1037A000C7F8003281F31188BFF36F8FF3680022EE
:1037B00083F8CE2008E701237B60F3E74FF4800312
:1037C000C7F808330121204603F0E1FDEB68DB6810
:1037D000002B8CD195E699681A6991420CD05969F1
:1037E000DA69B142324428D1DA61284603F082FD19
:1037F00000289BD1EB68DE69E868203004F019FAF4
:103800001422002103A804F0DAFAEB689A68CDE9E3
:103810000426DB689E421CBF01238DF80C304FF458
:103820008003C7F80833EA6800239360EA6803A9B5
:10383000D360204603F0A3FC63E61646DCE700BF36
:103840003F420F0040420F0070B5012383400E4AF3
:10385000BFF35B8FDC4352E8001F01EA040542E836
:103860000056002EF7D1BFF35B8F4FF480328240B9
:103870000648C0F80823BFF35F8FBFF36F8F0B427A
:1038800014BF0120002070BD500E00200010014028
:1038900070B40E49D1E90034D01AC31844F10004C1
:1038A00022F07F46C1E90034A6F50013B3F5400FBE
:1038B00009D2074B1B681A0A1B069C19054B42F1DB
:1038C0000005C3E9004570BC02F01ABAD00500201B
:1038D000540E0020D805002011B3BFF35B8F0123E5
:1038E000104A834052E800CF4CEA030C42E800C182
:1038F0000029F7D1BFF35B8F0B4A4FF4803383402D
:10390000C2F80433094BBFF35B8F1B68BFF35B8FB7
:10391000C340DB0742BF064B4FF40032C3F800211F
:10392000704700BF500E0020001001404C0E0020D8
:1039300000E100E00D4B1868010A0006BFF35F8F3D
:103940000B4BD3F80435181841F10001B3F5801F73
:103950000AD2084BD3E90023904271EB030303D250
:1039600010F1807041F10001704700BF540E00203B
:1039700000100140D80500202DE9F04F85B0164613
:103980001F469DF840A00446FFF75EFF0190FFF739
:10399000D1FFB04271EB070354D23E4B301A67EBB4
:1039A0000101984271F100014FD23B4B03EB04132C
:1039B000D3E902239F4208BF96425ED037494FF4B5
:1039C000803804F1500508FA04F8AD00C1F84883C6
:1039D0002046ADB203F029FE26F07F4B05F180456D
:1039E00004F5A87305F58835DC464FF0030902930A
:1039F000029A2CF07F4341F82230C1F84483D1F879
:103A00000435274A6FF00200C01A604420F07F405E
:103A1000904232D9286868B1D1F804350393A3EBFA
:103A20000B0020F07F40B0F5000F26D9204603F0B0
:103A3000FCFD039BBAF1000F07D109EB030C09F160
:103A40000109D5E7BAF1000F09D06FF0150520463E
:103A50000199FFF741FF284605B0BDE8F08F01232B
:103A6000104ABFF35B8FA34052E8000F184342E8AF
:103A700000010029F8D1BFF35B8F07490E9823019D
:103A800001EB0412C8500F9B5360C2E90267002586
:103A9000DDE700BF01008000C005002000100140EC
:103AA000FDFF7F004C0E00207FB51C4C1C4BC4F862
:103AB0000833C4F848331B4B00254FF0FF304FF05C
:103AC000FF31C4F80855C3E902014FF48033C4F84C
:103AD0000433154B02264FF400320121C4F804636D
:103AE0001120C3F880212A46FEF7B8FB1120FEF70B
:103AF00085FB0E4A0123A360236013600C4B0D4A23
:103B00000093CDE9015500232846FFF735FF3046E5
:103B1000FEF7BCFE284604B070BD00BF0010014097
:103B200003000F00C005002000E100E0500E00205F
:103B300091380000FFFF7F002DE9F7432F4CD4F8A8
:103B4000043399070BD5D4F8043143B12C4A002330
:103B5000C4F80431D4F80431136801331360D4F885
:103B60000433DA032AD5BFF35B8F264B53E8002FCB
:103B700022F0010143E800100028F7D1BFF35B8F6A
:103B8000D30702D4D4F84031C3B10025C4F8405162
:103B9000D4F84031FFF7CEFE4FF02003EFF311824F
:103BA00083F31288BFF36F8F174BD3E90267B042DC
:103BB000B94106D282F31188BFF36F8F03B0BDE81D
:103BC000F0834FF0FF384FF0FF39C3E90289D3E9A2
:103BD00000101D604FF48033C4F84833C4F84051DE
:103BE000D4F8403182F31188BFF36F8F0029E5D0FC
:103BF000009032463B4628468847DFE700100140E8
:103C0000540E00204C0E0020C005002030B5431C8F
:103C1000124C85B005D08442A8BF0446012CB8BF21
:103C20000124FFF787FE0E4B0C4DD3E90013401A19
:103C3000B0F5000F10D22218AA4228BF2A46521807
:103C40004FF0000007490091CDE9010043F1000366
:103C5000FFF792FE05B030BD2A46F0E7FFFF7F0078
:103C6000D00500209138000008B5FFF763FE024B35
:103C70001B68C01A08BD00BFD005002010B5084C55
:103C8000012363601120FEF7C7FA064BC4F808331E
:103C9000C4F84833044B4FF40032C3F8802110BD00
:103CA0000010014003000F0000E100E04FF08053DE
:103CB000D3F83021082A06D1D3F83431052B02D8A5
:103CC000024AD05C70470020704700BF1588000092
:103CD000024AD2F80034002BFBD0704700E00140CC
:103CE00010B54FF08053D3F83021082A4ED14FF051
:103CF00080420021C2F80C11C2F81011C2F8381528
:103D000002F54042D3F80414C2F82015D3F8081481
:103D1000C2F82415D3F80C14C2F82815D3F81014DF
:103D2000C2F82C15D3F81414C2F83015D3F81814AF
:103D3000C2F83415D3F81C14C2F84015D3F8201477
:103D4000C2F84415D3F82414C2F84815D3F828143F
:103D5000C2F84C15D3F82C14C2F85015D3F830140F
:103D6000C2F85415D3F83414C2F86015D3F83814D7
:103D7000C2F86415D3F83C14C2F86815D3F840149F
:103D8000C2F86C15D3F84434C2F87035FFF78EFFD3
:103D900018B13A4B3A4AC3F88C26FFF787FF18B19F
:103DA000384BFB22C3F81825FFF780FF70B14FF0A6
:103DB00080414FF08053D1F8E42ED3F8583222F0EE
:103DC0000F0203F00F031343C1F8E43EFFF76EFF49
:103DD00020B12D4B4FF40072C3F840264FF08053B2
:103DE000D3F83031082B1AD14FF08043D3F8002498
:103DF000D20744BF6FF00102C3F800244FF0805394
:103E0000D3F83431052B02D8204AD35C3BB14FF0B4
:103E10001023D3F808224FF08043C3F858254FF001
:103E20001023D3F80022002A03DBD3F80432002B3E
:103E300022DA174901234FF01020C1F8043512246B
:103E4000FFF746FFC0F80042FFF742FFC0F8044208
:103E5000FFF73EFF0023C1F80435FFF739FFBFF33A
:103E60004F8F0C490C4BCA6802F4E0621343CB60DD
:103E7000BFF34F8F00BFFDE710BD00BF00500040F3
:103E80004881030000F00040009002400F880000CD
:103E900000E0014000ED00E00400FA0530B50468E0
:103EA000CCB1BFF35B8FB4FA84F3C3F11F03DBB271
:103EB00001229A4024EA020250E8005FA54204D1A0
:103EC00040E8002CBCF1000FF6D1BFF35B8FE6D1C8
:103ED00002480B7030BD0248FCE700BF0000AD0B8C
:103EE0000200AD0B10B50368CB40DB0714D40123EF
:103EF0008B400268BFF35B8F43EA020150E8004F3A
:103F0000944204D140E8001CBCF1000FF6D1BFF38D
:103F10005B8FEED1014810BD0148FCE70000AD0BFE
:103F20000400AD0B014BC3F80405704700F00140DD
:103F3000F7B5044618B1012823D003B0F0BD4FF007
:103F400080430222C3F808230122DA60C3F8040187
:103F5000D3F80431064601238DF8073042F210757C
:103F60004FF08047D4B1012CE7D1D7F80C3403F4DB
:103F70008033AEBB83B3012003F073FB013DF4D16A
:103F80002AE04FF080430022C3F808035860C3F8CA
:103F90000021D3F800310DF10706DCE7D7F818341B
:103FA00003F480333EB9002BC7D0012003F059FB46
:103FB000013DF3D1C1E7D7F8182402F003023260C3
:103FC000002BBAD09DF80700012803D103F049FB6C
:103FD000013DC7D1012CB0D1054B00225A71ACE78D
:103FE000D7F80C2402F001023270002BEAD1F3E77B
:103FF000580E0020044B1A7922B9012218609A80C9
:104000000248704702487047580E00200000AD0B70
:104010000C00AD0B08B5074B1B682BB10020FEF759
:104020000FF908B9FEF7EAF84FF080430022C3F811
:10403000182508BD580E002010B510B1012843D036
:1040400010BD4FF08043D3F81814D3F81824C803D8
:1040500021D502F00303012B04D013B10020FFF798
:1040600067FF00234FF080420220C2F81835082273
:104070004FF4827303F180430021196002F1804202
:104080001C6801241460154A12680AB34FF080437B
:10409000C3F80403D4E7D3F81424D107E1D5D3F847
:1040A0001C249207DAD40D4A12681AB10222C3F80E
:1040B0000423C5E7D3F80421002AFBD00022C3F86B
:1040C0000421D3F80431BBE700224FF48073D1E719
:1040D0001A68002AFCD019601B68B1E7580E00204E
:1040E00010B54FF08043D3F800216AB10022C3F825
:1040F0000021D3F800210122C3F80823114B58797D
:1041000010B95A711B6898474FF08043D3F80421C7
:1041100072B10022C3F80421D3F80421D3F8182483
:10412000D3F81824920704D10122C3F818259A6005
:1041300010BD0222C3F80823024BBDE810401B68E3
:1041400001201847580E0020036803F01F025B0986
:10415000026004D0012B034818BF002070474FF0C5
:10416000A040704700030050034A430900F01F00BD
:10417000D35C1844C0B270471B88000070B5054678
:10418000FFF7F2FF0C4C08300E4634F81030DA0519
:1041900008D5C3F3432304EBC302284654F8333055
:1041A00052689847A3682BB1E26831462846BDE8BB
:1041B0007040184770BD00BF8001002008B5FFF7B0
:1041C000D3FF034B083033F81000400B08BD00BF8D
:1041D0008001002008B5FFF7C7FF034B083033F814
:1041E0001000C0F3400008BD8001002008B5FFF7B3
:1041F000BBFF034B083033F81000C0F3401008BD7C
:1042000080010020034611F0010010B5CCB20DD1A1
:10421000A207C4F3400012D5094AD2F8200558601D
:10422000C2F82005003818BF012008E04FF0A04177
:10423000D1F820251A60C1F82025002AE8D010BD49
:104240000003005010B5FFF78FFF124A083032F814
:104250001030D9051CD5C3F3432123F4F85322F8B9
:10426000103002F10E04002034F8023F13F4807F76
:1042700003D0C3F3432399420AD001303028F3D14D
:10428000002342F831300448BDE81040FFF72ABE51
:1042900010BD00BF80010020F8010020F0B50546E8
:1042A00000200446012607468C420BD1114BD3F85F
:1042B0007C2132B10022C3F87C21D3F87C3140F05C
:1042C0000040F0BDE3B29B0003F580729B0806FA44
:1042D00003F31D420BD002F1804202F5C042D2F836
:1042E00000C0BCF1000F02D01760126818430134FF
:1042F000DAE700BF00600040F7B506460846FFF762
:1043000033FF194F00F108050C4637F81530DB076D
:1043100027D5304603F00BFA2046FFF767FF40B180
:104320002046FFF74BFF316800F5A270002341F8EB
:1043300020302046FFF786FF002301A827F815301C
:104340000194FFF701FF019B00EB8300074BD0F8BE
:104350000027134043F00203C0F80037044803B0BD
:10436000F0BD0448FBE700BF80010020F0F8FCFF2F
:104370000000AD0B0400AD0B2DE9FF411646804651
:104380000846FFF7F1FE0D463168044609B328469A
:10439000FFF720FF18B12846FFF728FF10BB0023C6
:1043A000CDE900338DF80E308DF80F300DF10F028E
:1043B0000B4628460DF10E0103F061F9474A04F15E
:1043C000080132F8113023F0020343F0010322F810
:1043D0001130736863B328461F785968FFF7FAFEF7
:1043E00010B1D1B13E4826E03C4A04F1080032F851
:1043F000103023F02003DB04DB0C22F8103061B115
:10440000032FEFD87168496891F800C0D8F8001000
:10441000A7B90CF5A27C41F82C70304A04F10801D0
:1044200032F8113023F01C0343EA870322F81130DD
:10443000B3684BBB2B4804B0BDE8F08101EB8C01A5
:1044400043EA4C33D1F810E52EF0030EC1F810E525
:10445000D8F8001001EB8C0E43F02003DEF81015A5
:1044600022F8103021F44F3121F44071CEF81015AC
:104470002902DEF8108501F47C5141EA074141EA46
:104480000801CEF81015C8E7D3E900672846FFF702
:10449000D9FE002ECED0114DD5E90023964203D18E
:1044A0009F4201D1002209E00F480DF10F01FFF7F3
:1044B000F5FC0C4B9842BED19DF80F2045F83260B8
:1044C00005EBC20308345F6035F8143043EA422339
:1044D00043F4807325F81430ACE700BF800100205E
:1044E0000400AD0B0000AD0BF80100202DE9F043F6
:1044F0000C4685B08046204611461E46FFF734FE26
:10450000054629B32046FFF765FE18B92046FFF798
:104510006DFE18BB314F05F1080937F8193013F05B
:104520001C0F02D04B78012B18D001238DF80F30CF
:104530000023CDE900134A1C8B1C20460DF10F010E
:1045400003F09DF837F8193043F0030327F81930CA
:10455000002E41D02046FFF73DFE18B9204805B097
:10456000BDE8F08396F800C0D8F800301B4F0CF57A
:10457000A272002143F8221005F1080237F8121048
:1045800021F02001C904C90C27F8121075781DB359
:10459000D8F80000B67800EB8C002D04D0F8103568
:1045A00023F4991323F4F853C0F81035230203F4CD
:1045B0007C5305F440353605D0F810E52B4306F45E
:1045C000801641EA4C31334341F0200143EA0E03A7
:1045D00027F81210C0F810350248C0E7800100200B
:1045E0000400AD0B0000AD0B014BC3E90212704794
:1045F0008001002010B508461446FFF7F7FD50B1C2
:104600000846FFF7B1FD054B083033F81030044879
:104610005B0B237010BD0348FCE700BF8001002046
:104620000000AD0B0400AD0B70B5184E96F880403D
:1046300005464CBB2146602206F1100003F0BFFB8B
:104640002D68306F2146884212D10023C5F87C3195
:1046500045F30730D5F87C31FDF7D0FD4FF000432E
:10466000C5F804330A48012386F88030B36770BD6B
:10467000CBB29B0003F580727C2B08BFAC5001F1DC
:10468000010108BFAB58DEE70248F0E780010020D7
:104690000000AD0B0C00AD0B034B93F8800000380D
:1046A00018BF0120704700BF800100200148FFF7BC
:1046B00019BC00BFF40100200148FFF7EFBB00BFA9
:1046C000F401002073B5054608460C461646FFF770
:1046D0008DFD00B30846FFF77DFD0146D8B92046A1
:1046E000FFF76CFD04B2A40004F58072034628684D
:1046F0008150296882582144D1F8102542F00102E6
:10470000C1F810252EB12968012202FA03F3C1F87D
:10471000043302B070BD2046FFF726FD0F4B083072
:1047200033F81030C3F38203042B12D0052B12D0C0
:1047300001A80194FFF708FD019AD0F81035D34085
:1047400003F00103991C204602B0BDE8704002F05E
:10475000DFBF0321F7E70221F5E700BF800100205A
:104760002DE9F04F694BDFF8A881D3F80403D8F89E
:104770007010C0B289B040F00040FFF78FFD051EF9
:104780002FDAC24600235AF87C1F06A8CDE906336B
:10479000FFF738FD5F4B01930DF118094FF0000B47
:1047A000019A12F8013B0192DA0803F007031AF8A4
:1047B000022022FA03F3DA071CD409F10409BBF141
:1047C000000F14D0D8F870104FF00040FFF766FDCE
:1047D000D8F87C1006A8FFF715FD0028DAD125F0DF
:1047E00000450124002D79D109B0BDE8F08F4FF0CC
:1047F000010BD5E7484B5B440293D9F80010002920
:10480000DBD0029B91FAA1F11C78B1FA81F141EA67
:1048100044142046FFF7A8FC0830059438F81070BF
:10482000C808BB0819F80020039301F00701012311
:1048300003FA01F122EA010209F8002005A8FFF7B6
:1048400083FC059A039B02F5E072C7F3820650F8D9
:1048500022205B073746C2F3014224D52046394661
:10486000D6B2FFF78BFC05A80594FFF76DFC059BFE
:1048700003F5E07350F82330C3F301439E4207D1A0
:104880000021204602F044FF3146204602F040FF5E
:1048900005A80594FFF758FC059B012202FA03F3D3
:1048A000C0F82035A9E7022A0CD10321204602F0E6
:1048B0002FFF06F00503012BEAD139462046FFF70A
:1048C0005DFCE5E702212046039202F021FF032E62
:1048D000F3D0039A032ADBD1022EEDE795FAA5F374
:1048E000B3FA83F304FA03F29B0003F1804303F568
:1048F000C04325EA0205D3F81005D3F81015C0F31C
:104900000520C1F30141FFF739FC6BE7006000406F
:10491000800100202B8800002B8800000146014800
:10492000FFF7BCBA0402002030B500F01F044009B4
:1049300011D0012812D10C4800EB84001B02D0F8E2
:1049400000570A4C43EA82022C4042EA41012143CB
:10495000C0F8001730BD4FF0A040EDE704F5E0745B
:10496000002353F82430FFDE00030050F0F8FCFF72
:10497000CB7B10B433B9D1E900420368C3F80845D2
:10498000C3F80C2503688A68C3F8242503793C2200
:104990005343054AD3582BB1006810BC40F307308D
:1049A000FDF72CBC10BC7047600E002013B53B4BCC
:1049B00001930023C0F80431D0F80421C0F8243159
:1049C000D0F82421C0F81C31D0F81C21C0F80831DF
:1049D000D0F80821C0F800324B6381F82F30012352
:1049E000036291F82D209A4218BF83604B6B8A6A4C
:1049F000934204460ED24A6AD35CC0F81C350B6859
:104A000003B340F286238B608B682548C4F80433D7
:104A100002B010BD91F82C3013B10123C361EEE751
:104A20000B6A13F0400F4FF0010316BFC3614361DF
:104A300081F82D30E3E7204602F0A1FE28B1019B6A
:104A4000013B0193019B002BF5DC91F82F305BB902
:104A50001348019B002BDBDC0023C4F80035052341
:104A60001048C4F80035D3E7D4F8C434C4F8C434CB
:104A70008BB10D4A0B4813F0010F18BF104613F00D
:104A8000020F02F1010218BF104613F0040F074B8A
:104A900018BF1846DDE70348DBE700BFA08601002A
:104AA0000000AD0B0100AD0B0000AE0B0200AE0B21
:104AB00013B5334B01930023C0F80431D0F804211F
:104AC000C0F82431D0F82421C0F81C31D0F81C21C2
:104AD000C0F80831D0F808214B6381F82F308B6A79
:104AE000012B044617D10B6A5B0614D40223C4F8C9
:104AF00000320123236291F82D20022A18BF23607F
:104B00000B688BB140F286238B608B681D48C4F81C
:104B1000043302B010BD0123E9E7204602F02FFE66
:104B200028B1019B013B0193019B002BF5DC91F81F
:104B30002F305BB91348019B002BEADC0023C4F83B
:104B4000003505231048C4F80035E2E7D4F8C43432
:104B5000C4F8C4348BB10D4A0B4813F0010F18BFD1
:104B6000104613F0020F02F1010218BF104613F0B5
:104B7000040F074B18BF1846DDE70348DBE700BF0B
:104B8000A08601000000AD0B0100AD0B0000AE0BD4
:104B90000200AE0B2DE9F84390F804901C4E074636
:104BA0003C2000FB09F035180C4695F82E1061BB2F
:104BB000A96032506B6085F82D1085F8311085F8AA
:104BC0003010CCB1637B85F8383094F80E8085F8CE
:104BD0003980B8F1000F0BD120680623032241462B
:104BE000FFF7A2FE6068062303224146FFF79CFE02
:104BF00021463846FFF7BCFE3C2303FB0966054807
:104C0000012386F82E30BDE8F8830348FBE700BF98
:104C1000600E00200000AD0B0C00AD0B03680279A4
:104C20000521C3F80015044B3C2101FB023302228D
:104C300083F82E20704700BF600E002003680B4AE7
:104C40000179C3F80823D3F8002222F00302C3F845
:104C500000220022C3F80025054B3C2000FB013355
:104C6000012183F82E1083F830207047864204001B
:104C7000600E00202DE9F047314F0479D0F8009004
:104C80003C2303FB04730D4693F82D30012B94460F
:104C900004D10B78012B06D12A4811E0022B02D156
:104CA0000B78012BF8D13C26274BC9F8083306FBBB
:104CB000047696F830302BB1B3682448C9F8043331
:104CC000BDE8F0878CF00403C3F3800386F830302E
:104CD000C6F820C0A846B8E80F0006F10C0EAEE8F2
:104CE0000F00D8F80030CEF800306B68B362EB6884
:104CF00073626B78C9F888352B78C4EB041A012BE2
:104D000007EB8A0A17D09BB9CCF3401C3C2303FB6A
:104D100004735146484683F82CC0FFF747FE3C23F6
:104D20005C433A193B59002BCAD182F83030C7E7AF
:104D30004FF0010CEAE751464846FFF7B9FEEEE7AF
:104D4000600E00200500AD0B864204000B00AD0B89
:104D5000F0B5324C324887B0214602F010FD0028F1
:104D600059D194F82F70FFB9227B931E012B1BD8C9
:104D7000606AA369984217D1E36963626369A362B9
:104D8000236A274884F82D70C3F34013032A84F85C
:104D90002C3004D107B0BDE8F040FFF707BE07B0E4
:104DA000BDE8F040FFF784BE1E4E0FCE01AD0FC52B
:104DB00033682B6047B31A4AD2F8C434C2F8C434FB
:104DC00013F0020106D001238DF80030002384F88F
:104DD000303007E013F0040209D002238DF80030D0
:104DE00084F83010D4E900316846984713E013F096
:104DF000010305D003238DF8003084F83020F1E75B
:104E000004228DF80020E2E7236A8DF800705B072A
:104E100084F83070E6D507B0F0BD00BF600E00200A
:104E2000003000406C0E0020036803F01F025B0995
:104E3000026004D0012B034818BF002070474FF0D8
:104E4000A040704700030050F7B5064602F02FFD62
:104E5000084602F02CFD01A80196FFF7E5FF019B33
:104E60002E4D00EB83000C46D0F80037019440F241
:104E70000D612B400B43C0F8003701A8FFF7D4FFAA
:104E8000019B00EB83000127D0F800372B400B4338
:104E9000C0F80037042002F0E4FB092501A80194C2
:104EA000FFF7C2FF019AD0F81035D340DB0715D4C5
:104EB00001A80196FFF7B8FF019B07FA03F3C0F8BA
:104EC0000C35042002F0CDFB304602F0F0FC013D31
:104ED000042002F0C6FB15F0FF05DFD101A8019404
:104EE000FFF7A2FF019A01239340C0F80C3504207C
:104EF00002F0B7FB204602F0DAFC042002F0B1FB1E
:104F000001A80194FFF790FF019AD0F810350448EA
:104F1000D34003F00103C01A03B0F0BDF0F8FCFF6A
:104F20000100AD0B08B5144BA8220021184602F071
:104F300046FF0322026111494261114A8161C26147
:104F40004FF480620262002282624262C2620166A3
:104F50000C4941661021816603460267C2664267BA
:104F6000BFF35F8F084911F8010D98540132102AE0
:104F7000F9D1BFF35F8F08BD9C0E00202D88000083
:104F800010130020001300204688000038B54FF0B1
:104F90002003EFF3118583F31288BFF36F8F064B65
:104FA0009C6802F04EFB85F31188BFF36F8F20469B
:104FB000BDE83840FDF7B2B8480F0020104B70B57F
:104FC00053F82040013053F82060A64200D870BD4D
:104FD000D4E9003595B153B12846984738B1002837
:104FE000B8BF4042EB68FF28A8BFFF201870EA68EE
:104FF000537843F0010353700834E6E79847FBE722
:105000009483000008B50A4B012203201A70FFF7B1
:10501000D5FF00F0D1FF0420FFF7D0FF00F04CF9DE
:10502000FBF794FF034A137B23F00103137308BDBE
:10503000101700206006002008B50348034A00212D
:10504000121A02F058FC08BD40030020141700207B
:1050500070B5002386B00122CDE90423194E1A4D04
:1050600001930F22CDE902321849142303FB0055A6
:1050700006EBC01604464FF4C070154B00954FF474
:10508000A07200FB0411304600F0D6F8737B114A81
:10509000EE6023F0040373734FF4046304FB0333E3
:1050A00013446B600C4B2C74BFF35B8F53E8001FF1
:1050B000013143E80012002AF8D1BFF35B8F06B03C
:1050C00070BD00BFE0050020480F0020C034002064
:1050D0009F790000802C0020440F002080B5002024
:1050E000A6B0FFF76BFF2D4B83F308882C4D2D4E98
:1050F0006B692D4F43F400736B610024E02385F846
:105100002230EC772C766C76AC7685F820406B6A92
:1051100043F4E0236B6285F82340FCF76DFFFDF755
:105120001FF94FF0FF33AB62EB62FDF7C1F9FDF7FA
:1051300057F940F20113ADF8243006ABB360CDE966
:105140001E44219402F0CBFB0120FFF737FF022021
:10515000164DFFF733FF00F053FC154B75610593B7
:10516000012314490094CDE903434FF480623B4688
:10517000CDE90144284600F05FF86A7B064622F03C
:10518000040228466A7302F05FFC2046FFF760FFC6
:105190003A4631462846FDF7C7F800BFC034002024
:1051A00000ED00E0480F00200550000060060020E0
:1051B000478800004036002038B5064C064D0020D8
:1051C000AC4200D338BD204602F099FB0028F9DB41
:1051D0001C34F5E7F0020020F002002073B50C4605
:1051E0004FF02005EFF3118185F31288BFF36F8F25
:1051F000C5685DB125602B68C36083690133836135
:10520000002081F31188BFF36F8F11E052EA03068B
:1052100003D125606FF00B00F3E7CDE900230246D0
:10522000083000F029FB18B9024B9B685B692360CA
:1052300002B070BD480F00202DE9F04385B0073261
:10524000994600F1580322F00706C0E91633109B77
:10525000037306F140050423002743730D440F9B9D
:1052600083738846C0E9067729468760C77304467A
:10527000FCF742FD08F140030730C4E9183620F07E
:1052800007000E9BA06602930D9B01932D1A0C9BA9
:1052900000932A464B4641462046FDF713F8054B3E
:1052A00067659B6803B1DB6EE366284605B0BDE821
:1052B000F08300BF480F002070B5224C224D86B00D
:1052C0002646AE4204F130040AD300F069FB1D4CBF
:1052D0001E4EAC4220D306B0BDE8704000F074BB57
:1052E00054F80C3C059354F8103C049354F8143CC7
:1052F000039354F8183C029354F81C3C019354F85F
:10530000203C009354E90A2354E90C01FFF794FF71
:1053100054F8303C5E65D3E7D4E90A23B3F1FF3F8C
:1053200008BFB2F1FF3F05D052EA0301206803D164
:1053300000F018FB3034CCE73146183000F06AFC3E
:10534000F8E700BF6880000058810000077B00007C
:1053500038B5836804466BB3194A926893422CD1DE
:10536000C368012B03D9013BC360002038BD4FF057
:105370002003EFF3118583F31288BFF36F8F016968
:10538000806802F018FB204602F0D8FBA06058B1FC
:1053900090F90E2022610022826702F055FB094835
:1053A000294600F0CDFAE0E7E06085F31188BFF30D
:1053B0006F8FDAE76FF01500D8E74FF0FF30D5E7D1
:1053C000480F0020111700202DE9F341044617462D
:1053D0001E464FF02003EFF3118883F31288BFF3CA
:1053E0006F8FC368334A7BB180689168884219D057
:1053F00057EA060318D188F31188BFF36F8F6FF057
:105400000F0002B0BDE8F081916891F90E102161A2
:105410000133E3609368A36088F31188BFF36F8F53
:105420000020EEE72169F2E791F90E1090F90E30B5
:105430009942A8BF19466FF07E029142B8BF11464B
:105440008B422EDD02F0B7FA0546CDE900761A4808
:105450002246414600F010FA0028E1D04FF0200328
:10546000EFF3118683F31288BFF36F8FA068D0B17A
:10547000236821699C420AD04BB193F90E309942BE
:10548000A8BF19466FF07E039942B8BF194602F0D3
:1054900092FA40B10848314600F052FA6FF00A0023
:1054A000AFE70025D1E7002DF4D186F31188BFF3D3
:1054B0006F8FF3E7480F00201117002038B504461E
:1054C0004FF02003EFF3118583F31288BFF36F8F42
:1054D00002F034FB48B10022826702F0B5FA294697
:1054E0000748BDE8384000F02BBAD4E902329A42AE
:1054F00018BF0133A36085F31188BFF36F8F38BDE8
:105500001117002013B54FF02004EFF3118184F33D
:105510001288BFF36F8F846844B1013C846081F3CB
:105520001188BFF36F8F002002B010BD52EA030450
:1055300006D181F31188BFF36F8F6FF00F00F3E78F
:10554000CDE900230246024800F096F9ECE700BFDF
:1055500011170020C3897F2B12D80A4B1B6863B137
:10556000094B90F90E201B689A4209DB437BDB064E
:1055700006D1064BC31A18BF012303F00100704780
:105580000023FAE7700F00206C0F0020E0050020D8
:10559000044BC01A044BC0105843044B01221A5448
:1055A000704700BFE0060020ABAAAAAA111700208E
:1055B00070B50E4B0E4C1E7C06EB460304EBC30489
:1055C0000546204602F00DFB0A4B002228469A555C
:1055D000FFF7C0FF48B1084B08491A68013A204656
:1055E000D317BDE8704000F015BB70BD480F002018
:1055F000E006002011170020700F002091550000D8
:1056000038B50D4D2B4653F8184F9C4200D004B9C5
:10561000EC68AB6838B95A7BD20604D1A26912B9DA
:10562000DA897F2A05D89C4202D02046FFF7C0FFC6
:1056300023466B6138BD00BF480F002070B590F95C
:105640000D20437B002A014604DA03F07F034373F5
:1056500002F0C0F94B7B154A63F07F0310464B7391
:1056600050F8183FD469834208BF002323B9C1E929
:1056700000042160D1610CE091F90E5093F90E60A5
:10568000B5420ED0AE420CDD5868C1E90030016071
:1056900059609068431A5842BDE870405841FFF77E
:1056A000AFBF9C42E3D01B68E0E700BF480F00207B
:1056B00070B490F90D30427B002B29DBD30627D143
:1056C00083692BBB134962F07F0242730A4652F88A
:1056D000184F944218BF2346CC6923B9C0E900246F
:1056E0002060C8610CE090F90E5093F90E60B5424D
:1056F0000AD0AE4208DD5A68C0E900321060586036
:1057000070BC0020FFF77CBFA342E7D01B68E4E732
:1057100070BC7047480F002008B590F90D20437BFE
:10572000002A014604DA03F07F03437302F052F9C2
:10573000044B9868431A58425841BDE80840FFF7A7
:105740005FBF00BF480F002070B515461C460646D7
:1057500002F052F9B4F1FF3F08BFB5F1FF3F08D0A6
:105760002A46234606F118000249BDE8704000F0C1
:1057700051BA70BD077B00002DE9F041002A437B40
:105780000E460CBF10210821194204460AD10B43D2
:10579000DD0903F09F0211D14273082914D00120C2
:1057A000FFF72EFF1B4B9B68A3422CD1EFF3058321
:1057B0004BBB3046BDE8F041FCF7C6BC03F01F030D
:1057C000437302F007F9E8E7A36813B1204602F03B
:1057D00009F904F1180002F004FA04F158074FF037
:1057E0000008A56DBD42DAD0002DD8D0284602F0C1
:1057F000F9F805F1180002F0F4F9C5F878802846A8
:10580000FFF756FFEDE786F31188BFF36F8FBDE812
:10581000F08100BF480F002038B54FF02003EFF3B0
:10582000118583F31288BFF36F8F104B104A9C6869
:105830001068A04206D1FFF7BBFE85F31188BFF3C5
:105840006F8F38BD00211B7C11600A4AD35C002B8E
:10585000F3D02046FFF77EFE0028EED0637BDB0608
:1058600002D12046FFF7EAFE2046E4E7480F002079
:10587000680F00201117002070B50C480C4D866889
:105880002E600C461146DDE904234FF02006EFF3AD
:10589000118586F31288BFF36F8F8068FFF754FF7E
:1058A0002046BDE87040FCF74FBC00BF480F002009
:1058B000680F0020F8B504464FF02003EFF311867F
:1058C00083F31288BFF36F8F437BDA0649B219D195
:1058D0008569BDB903F07F03437302F07BF8437B16
:1058E000164A817363F07F034373134653F8180F0E
:1058F000984218BF0546D0695DB9C4E9003004601C
:10590000D46111E0A173002086F31188BFF36F8F7B
:10591000F8BD95F90E70B9420BD08F4209DD6B6866
:10592000C4E900531C606C600120FFF769FE012090
:10593000EAE7A842E1D02D68DEE700BF480F00206B
:1059400049B9EFF3058030B9054B5A699B689A4213
:1059500001D0FCF7F9BB81F31188BFF36F8F70475B
:10596000480F002010B54FF02002EFF3118482F3AE
:105970001288BFF36F8F427B510704D484F31188E0
:10598000BFF36F8F10BD22F004024273FFF790FE49
:1059900021460248BDE81040FFF7D2BF1217002091
:1059A0004FF02003EFF3118183F31288BFF36F8F61
:1059B000044B9A68D37B013BD37381F31188BFF307
:1059C0006F8F7047480F002010B54FF02003EFF3A2
:1059D000118483F31288BFF36F8F084B9A68D37BCF
:1059E0000133D3730020FFF70BFE84F31188BFF35C
:1059F0006F8FBDE8104002F0C9B800BF480F00200B
:105A0000024B03F11802C3E906227047480F002039
:105A1000F8B54FF02003EFF3118583F31288BFF33D
:105A20006F8F19498868437B03F07F03437301F04C
:105A3000D1FF8B685A7B084662F07F025A7350F898
:105A4000182FCC69824208BF002222B9C3E90004A2
:105A50002360CB610CE093F90E6092F90E70BE42A8
:105A60000ED0B7420CDD5168C3E900210B605360D2
:105A70000120FFF7C5FD2846BDE8F840FCF764BBF0
:105A8000A242E3D01268E0E7480F002050EA010389
:105A90002DE9F04105460E4603D1FFF7B9FF00207E
:105AA0002CE0831C71F1FF332ADB02F0B0F82C18D4
:105AB0004FF02003EFF3118883F31288BFF36F8F49
:105AC000114F124BB8681860FFF726FEB8681049EE
:105AD0002A463346183000F09DF8BA68537B43F0ED
