:10000000C01E0020650D000037510000510D00009A
:10001000510D0000510D0000510D000000000000C6
:10002000000000000000000000000000250F00009C
:10003000510D000000000000C10E0000510D000035
:100040000111000001110000011100000111000068
:100050000111000001110000011100000111000058
:100060000111000001110000011100000111000048
:100070000111000001110000011100000111000038
:100080000111000001110000011100000111000028
:100090000111000001110000011100000111000018
:1000A0000111000001110000011100000111000008
:1000B00001110000011100000111000001110000F8
:1000C00001110000011100000111000001110000E8
:1000D00001110000011100000111000001110000D8
:1000E00001110000011100000111000001110000C8
:1000F00001110000011100000111000001110000B8
:1001000053B94AB9002908BF00281CBF4FF0FF317E
:100110004FF0FF3000F00CB8ADF1080C6DE904CEE3
:1001200000F008F8DDF804E0DDE9022304B07047D0
:10013000704700BF2DE9F04786468C460846089E6A
:10014000154674461946002B40F0C2808542B2FA2B
:1001500082F245D94AB1C2F1200300FA02FC2EFA1C
:1001600003F3954043EA0C0C94404FEA154EA8B2B5
:10017000BCFBFEF8230C0EFB18CC08FB00F943EA8D
:100180000C43994528D9EB1808F1FF3704D299455B
:1001900002D9A8F102072B44A3EB0903A4B2B3FBD5
:1001A000FEFC0EFB1C330CFB00F044EA0344A042AF
:1001B00014D92C190CF1FF3304D2A04202D9ACF1AE
:1001C00002032C44241A43EA07401EB1D440002302
:1001D00034607360BDE8F0874746DDE76346F1E7CA
:1001E00092BB431B01214FEA154EAFB2B3FBFEFC9D
:1001F000200C0EFB1C330CFB07F840EA0343984528
:1002000062D9EB180CF1FF3004D2984502D9ACF159
:1002100002002B44A3EB0803A4B2B3FBFEFC0EFBCD
:100220001C330CFB07F744EA0344A7424ED92C19B0
:100230000CF1FF3304D2A74202D9ACF102032C44E3
:10024000E41B43EA0040C0E7C2F1200320FA03F1B7
:10025000954090402EFA03F303434FEA154EAFB298
:10026000B1FBFEFC0EFB1C10190C0CFB07F841EA5D
:100270000041884504FA02F422D969180CF1FF30D4
:1002800004D2884502D9ACF102002944A1EB08014F
:100290009BB2B1FBFEFC0EFB1C110CFB07F743EA03
:1002A00001439F420ED9EB180CF1FF3104D29F425B
:1002B00002D9ACF102012B44DB1B41EA004192E779
:1002C0006046E3E76146F7E76046A3E76346B7E7C2
:1002D000834206D916B9002108467BE7C6E900E04B
:1002E000F9E7B3FA83F78FB9834201D3724508D88F
:1002F000BEEB020460EB030301209C461EB9002103
:1003000068E73846FAE7C6E9004CF8E7C7F1200C81
:10031000BB4022FA0CF41C432EFA0CF120FA0CF329
:10032000B84001434FEA14490EFA07F5B3FBF9F858
:100330001FFA84FE09FB18300B0C08FB0EFA43EA87
:1003400000439A4502FA07F240D9E31808F1FF305A
:1003500004D29A4502D9A8F102002344A3EB0A0370
:1003600089B2B3FBF9F809FB183308FB0EFE41EA2A
:1003700003418E452CD9611808F1FF3304D28E4514
:1003800002D9A8F10203214443EA0040A0FB0298ED
:10039000A1EB0E014145CE46434602D306D14D4561
:1003A00004D2B9EB020E68EB04030138002EA6D08C
:1003B000B5EB0E0261EB030101FA0CFC22FA07F324
:1003C0004CEA0303F940C6E9003198E74046C5E727
:1003D0004346D9E7034613F8012B002AFBD1181A2C
:1003E0000138704738B50B780C46062B3AD8DFE851
:1003F00003F004090B1D1F2137001B48BDE83840DE
:1004000004F03FBD1948F9E719481A4D04F039FDC9
:10041000D4E9021218482B6801441848184405F022
:100420004FFD2B68E26813442B6038BD1448E5E7A4
:100430001448E3E7144804F024FD144B186883685B
:100440000D49DC683C224FF47A73A047014600282E
:10045000EBD00F4804F015FD4FF0FF3004F044FAE4
:100460000C48CBE70C48C9E72C630000426300004E
:100470005B630000B0030020740C0020380C0020E7
:10048000706300008D630000AB630000D0000020AB
:10049000C5630000ED630000066400002DE9F04133
:1004A0002F4C3049B0B04D2203A805F009FD20685B
:1004B00005F0C3FA38B92C4804F0E3FC4FF0FF30E4
:1004C00030B0BDE8F081206883681B6843B12749DC
:1004D00000229847014630B1254804F0D2FCEDE7F0
:1004E0006FF05701F8E7206883682249DD683C22F5
:1004F0004FF47A73A847014608B11F48EDE720681A
:10050000836803A95D684D224FF0FF33A847014679
:1005100018BB1A4D1A4E4FF40040002103F0C8FDDD
:100520002B68002BF7DD2B680021F1542960154B57
:100530000096642217A805F046FC17A8FFF74AFFAB
:1005400027680246BB6817A9D3F8048038464FF0E5
:10055000FF33C04701460028DDD00B48BDE700BF90
:10056000D0000020AD6400001D640000E503000021
:1005700050640000740C0020C5630000B00300202C
:10058000380C00209C6400007B640000014B1B6859
:10059000184700BFD4000020014B1860704700BF0F
:1005A000D400002030B585B004460D46102200214D
:1005B000684605F093FC02238DF802302A46044B6E
:1005C00001932146684604F09DF905B030BD00BF97
:1005D0008D05000080B505460E461746984603F087
:1005E00081FD034605F08AFCDFF81890044649F8BF
:1005F0000030424630463946A84754F8090000F01A
:1006000031FC00BF080000002DE9F047058B0446CF
:100610002807904611D4022905F0070540F0CD8047
:10062000204604F0A4FC78B10138218B042811D8AD
:10063000DFE800F0C3106D85950001290CBF45F07F
:10064000100545F02005258388F31188BFF36F8FCF
:10065000BDE8F08701F0070AAA4500F0A680002750
:10066000B9463E46A368002B00F0BD8041F008016A
:10067000218388F31188BFF36F8FA168002900F0F0
:10068000BB800D68002900F0B780D1F804803346A4
:1006900052462046C047002D76D02B6829461D467D
:1006A000F0E701F007035A1F012A1BD8002221F0AE
:1006B0000701062B276889B2C4E9002209D13B460D
:1006C00003E0628B013262831B68002BF9D141F099
:1006D00002012183204604F04AFC00287BD041F02F
:1006E000200177E0042B0AD121F0070189B2218390
:1006F000204604F03CFC10B141F020012183218B05
:1007000001F0070AAA4550D00027B946AAE7236995
:1007100021F0070141F00601062DD3F80090218356
:100720002DD1B9F1000F40D041F00801218388F3A9
:100730001188BFF36F8F3A492046C84729E021F05E
:100740000701236941F0040189B2042DD3F8049014
:100750002183E6D000273E464FF0040A82E721F0CD
:100760000701236941F0050189B2052DD3F80890EE
:100770002183D6D000273E464FF0050A72E70027B6
:100780003E464FF0060A6DE72B4687E7B9F1000FAA
:10079000D1D14FF02003EFF3118883F31288BFF318
:1007A0006F8F238B23F008032383258BEA062ED536
:1007B00025F01003238305F007056669218B002EC1
:1007C000BFF66FAF00232768C4E9003321F00701AB
:1007D00041F001012183218B01F0070AAA454FF066
:1007E00000097FF43FAF002F9BD041F00801218327
:1007F00088F31188BFF36F8F002FC7D03D6839464B
:1008000033465246204604F0DEFB2F46F4E7AB06A3
:100810007FF51AAF25F02003238305F00705FFE6D7
:10082000F34F000008B504464FF02002EFF31183A8
:1008300082F31288BFF36F8F01F0ECFF204600F0C7
:10084000BBFA034804F01DFB00F034FCFCE700BFDA
:10085000FA640000014B036000207047486100000B
:10086000014803F099BE00BF4861000038B5044656
:1008700018B90F4B0F485B6898476168B1F5683F3E
:1008800010D0B1F5680F0DD00B4DA9420AD011F46C
:100890006861206807D00146084805F001F9002387
:1008A0002360656038BD142205F018FBF9E700BF2E
:1008B000B8010020236500002C5F5CA9B40800206B
:1008C00008B520B34368B3F5683F10D1012203682F
:1008D000BFF35B8F53E8001F002903D143E80020DA
:1008E0000028F7D1BFF35B8F0DD1002008BD094A66
:1008F00093420AD000684FF0FF324FF0FF3303F00D
:1009000031F80028F1D00448F0E70448EEE76FF42E
:10091000E040EBE72C5F5CA9E98FFFFFEA8FFFFF68
:1009200008B5D8B14368B3F5683F10D10022036819
:10093000BFF35B8F53E8001F012903D143E8002078
:100940000028F7D1BFF35B8F0BD1002008BD074A09
:10095000934208D0006802F0C9FFF6E76FF4E04068
:10096000F4E70348F2E70348F0E700BF2C5F5CA917
:10097000E98FFFFFEA8FFFFF10B5044618B91D4B42
:100980001D485B6898476368B3F5683F2FD0B3F59F
:10099000680F2CD0194A934219D1236803BB184819
:1009A0004FF0FF324FF0FF33214602F0E5FE08B969
:1009B00023681BB90F4B13485B68984720681422C3
:1009C000002105F08BFA4FF46863636008E0B3F52B
:1009D000683F0DD83A2B03D040F6BA629342DED17D
:1009E000206805F09DF8636843F03A03636010BD2A
:1009F000054AF3E7B8010020236500002C5F5CA9DD
:100A0000B4080020496500003A00003A08B50649DC
:100A100006484023142205F035F8BDE80840044993
:100A2000044803F02BBE00BFB4030020B40800202C
:100A3000506100006461000030BFFFF7FDBF00BFE0
:100A4000114B124A2DE9F041D518DFF84480013DE1
:100A5000B5FBF3F55D430F4B08EB0304013CB4FB1E
:100A6000F3F403FB04540E1B07460B49304605F014
:100A700027FA701942460021083E05F02FFA3E671A
:100A800004F10800BDE8F081010000000000000052
:100A9000040000000400000040610000044B99685D
:100AA0005869884203D003494FF080520A6070476A
:100AB000300A002004ED00E070B5264B15469A6A16
:100AC00012F0100F9A6A14BF1124102412F0080FAC
:100AD0009A6A18BF1224920706460AD5586B9A6A7A
:100AE000140634D519B19A6A22F080029A6213244E
:100AF00001E06FF01500174B9A6A12F0010F9A6A25
:100B000018BF142412F0200F9A6A18BF1524D206B9
:100B100002D49B6A9B070AD50E4B5B68190506D564
:100B2000314600F08FFA10B180F309880224094B96
:100B30009A6A920642BF5A6A22F400525A629A6A2C
:100B400042F0FF029A6200232B70204670BD6FF0C6
:100B50001500CCE700ED00E0134B9A6A12F0007F1D
:100B60009A6A14BF1E201D2012F0807F9A6A18BF57
:100B70001F2012F4002F9A6A18BF212012F4802F30
:100B80009A6A18BF222012F4003F9A6A18BF2320E5
:100B900012F4803F9A6A6FEA02426FEA12429A6246
:100BA00018BF2420704700BF00ED00E010B5194BBE
:100BB0000246986A9C6A10F4805F14BF17201620C2
:100BC00014F4006F9C6A18BF1820A40509D5986B0F
:100BD000986A000404D51AB19A6A22F400429A6213
:100BE00019200C4B9A6A12F4806F9A6A18BF1A2067
:100BF000D2050CD49B6A13F4005F18BF1C20054A71
:100C0000936A43F47F43936200230B7010BD1B2053
:100C1000F5E700BF00ED00E0F0B5484B5B688BB036
:100C20000446C3F30803002585F31188BFF36F8FD3
:100C300002F07F40B0F17F4F11D102F00C00082884
:100C40000DD010074CBF0C4601250022033B8DF848
:100C50000720032B05D8DFE803F0246367602C46E8
:100C6000F3E700239DF80720CAB902AE04F120077C
:100C700020686168324603C20834BC421646F7D188
:100C8000099A002D54D0C2F3080121B96FEA52220B
:100C90006FEA4222099202A9184604F046FA0BB004
:100CA000F0BD264BDA6A9107DBD4DA6A002AD8DB7A
:100CB000DA6A5200D5D55A69A16942F480725A6144
:100CC000BFF34F8FBFF36F8F5A6931F8021C22F4C4
:100CD00080725A61BFF34F8FBFF36F8F4DF6027270
:100CE00091420AD09A6AD2B24AB10DF107020121AB
:100CF0002046FFF7E1FE0346B4E72368B2E79A6AAD
:100D000012F47F4F05D00DF107010120FFF74EFFD0
:100D1000F1E79B6AB3F5803FA3D3FFF71DFFEAE736
:100D20000DF107020021E3E70DF107010020EDE7D7
:100D300022F4FF7222F00102ACE700BF00ED00E0F8
:100D4000024A536943F010035361704700ED00E01D
:100D5000EFF30880EFF3098101B57246FFF75CFFFE
:100D600001BD00BF002080F31488BFF36F8F00F037
:100D70003BFB00200D490860BFF34F8F0C4880F308
:100D8000088800F03DF8202080F3118809484FF4CE
:100D90000461401880F30988EFF3148002210843AE
:100DA00080F31488BFF36F8F00F014F994ED00E026
:100DB000C01E002000110020BFF34F8F0549064BD5
:100DC000CA6802F4E0621343CB60BFF34F8F00BFE9
:100DD000FDE700BF00ED00E00400FA050749D1F887
:100DE00090200023C2F307221846934200DB70478D
:100DF000C1F89830C1F8A0000133F6E700ED00E03B
:100E000008B572B6002383F31388FFF7E7FF144B8E
:100E10004FF0FF32C3F88020C3F88420C3F8882045
:100E2000C3F88C20C3F89020C3F89420C3F898200E
:100E3000C3F89C20C3F88021C3F88421C3F888211B
:100E4000C3F88C21C3F89021C3F89421C3F89821EA
:100E5000C3F89C2162B6BFF34F8FBFF36F8F08BDFD
:100E600000E100E0084B9B6883420BD1EFF3058360
:100E700043B1064B5A6842F080525A605A6A22F4D3
:100E800000425A6204F039BF300A002000ED00E051
:100E9000094A93686FF00A019967084958674B68D7
:100EA00043F080534B60002383F31188BFF36F8FAF
:100EB0009368986F704700BF300A002000ED00E093
:100EC00015498A684FF030001044EFF3098C80E830
:100ED000F01F202080F31288BFF36F8F0F4F4FF069
:100EE00000664A698A603E604FF0700414192068F9
:100EF0000B4C2060506F0023536780F3118804B5BA
:100F0000104600F01DF9BDE8044002F1300090E801
:100F1000F01F8CF309887047300A002004ED00E0D0
:100F2000D00800201EF0040F0CBFEFF30880EFF391
:100F30000980816911F8021C0229FFD001B504F073
:100F4000F6F801BD40B2002807DB044A410901233D
:100F500000F01F00834042F82130704700E100E0BC
:100F600040B200280CDB4309064900F01F00203383
:100F70000122824041F82320BFF34F8FBFF36F8FD0
:100F8000704700BF00E100E0054B420900F01F0080
:100F900053F82220012303FA00F01040704700BFED
:100FA00000E100E040B20028A8BF00F1604001F17C
:100FB0000101B8BF064B4FEA4111ACBF00F56140DB
:100FC00000F00F00C9B2B4BF195480F80013704785
:100FD00014ED00E00B4A08B50B4B22F07F029A603B
:100FE000BFF34F8FBFF36F8FD3F8882022F47002C6
:100FF000C3F8882002F0EEFA03F07AF800F074F8F3
:1010000002F03AFB0000000000ED00E042F8203C56
:10101000009B42F81C3C0A49019B42F8183C029B89
:1010200042F8143C21F001014FF0807342F8043C77
:1010300042F8081C0023203A02654367704700BF4E
:10104000D5050000094A0346906870B113F1160FE8
:10105000006E05D0A0F140029A4205D8834203D227
:10106000814228BF0020704700207047300A0020CE
:1010700008B514460A4A0B4B9060026F1A600D4681
:1010800000F05EF8204685F30988002163B681F3FD
:101090001188BFF36F8F00220023FFF79BFA00BF78
:1010A000300A0020D0080020014910220A60704751
:1010B00010ED00E072B6404080F31188BFF36F8FEF
:1010C000BFF34F8F30BF62B6BFF36F8F704700BF63
:1010D00072B6494081F31188BFF34F8F20BF80F370
:1010E000118862B6704700BF044800232021C2184F
:1010F0000133302B82F80013F9D1704700E100E092
:1011000001B5EFF30580A0F110004FEAC0000449DB
:10111000014409C99847BDE8014002490847000059
:10112000C05F00009D0A0000024B034A03480121F2
:1011300000F040B8000004200000002074610000AE
:10114000026E054B403A1A60044A4021C3E901127D
:101150001846012100F038B8D408002000000B1513
:10116000084AC2F898000B6823F01F03034343F0BA
:101170001003C2F89C308B6843F00103C2F8A03022
:10118000704700BF00ED00E0044B0522C3F8942037
:10119000BFF34F8FBFF36F8F704700BF00ED00E0CC
:1011A000BFF35F8F024B0022C3F89420704700BF4B
:1011B00000ED00E010B5034C0123227803F0D6FFC8
:1011C000207010BDB00C002008B5094A0023127829
:1011D00003F0CCFF10F1160F03D0064B00220728B6
:1011E00000DD08BDC3F89800C3F8A0200130F6E781
:1011F000B00C002000ED00E0F0B5454D2C68082C47
:1012000085B000F28280FFF7CBFF00200C268442DD
:101210000DD1404D404F2C706846FFF71BFB00245A
:101220000646A6420AD1FFF7AFFF00201CE069681E
:1012300006FB0011FFF794FF0130E8E7009800EB90
:1012400004114FEA041CCB683B40B3F5000F4AD0B1
:101250000CD8B3F5001F30D0B3F5800F38D0B3F5FC
:10126000801F12D06FF0150005B0F0BDB3F1807F84
:1012700042D0B3F1007FF5D150F80C3088684A684D
:1012800003F064FF40F4802009E050F80C308868D7
:101290004A6803F05BFF40F0885040F43020039030
:1012A00028780728CDE90123DCD801A9FFF758FFEA
:1012B0002B7801332B700134B3E750F80C30886879
:1012C0004A6803F043FF40F0885040F40020E6E70E
:1012D00050F80C3088684A6803F038FF40F0E0604E
:1012E00040F40030DBE750F80C3088684A6803F0BF
:1012F0002DFF40F08270D2E750F80C3088684A68C1
:1013000003F024FF40F08870C9E74FF0FF30ABE7EF
:1013100080610000B00C00200000F0FF08B5024B17
:101320001B689847002008BDE0080020034B044AD2
:101330001860937843F0020393707047E008002030
:10134000F800002008B5024803F09BFDFEE700BF4F
:101350008565000008B5044803F093FD404080F324
:1013600011884FF0020002DF8B65000008B50649C6
:10137000064821F00701C1F1005202F5802203F076
:10138000B9FD002008BD00BF071F0020E4080020B1
:101390000E4A0123C2F840354FF080424FF0805191
:1013A000C2F87835D1F83001082808D1D1F83411C5
:1013B000052904D80648415C09B1C2F838364FF017
:1013C00080430122C3F880250020704700E00140DF
:1013D000A965000020B1034B800143F001031847C9
:1013E000704700BF4061000001F046BA084B70B57D
:1013F000C31A0D4607499B1004465943064840222C
:1014000003F003FF2B4601462046BDE87040184715
:1014100004090020B76DDBB6705F000073B50C4C9B
:101420000C4A4023041B00930D460B460A49A410A6
:1014300061430646094803F015FF011E05DA3046F0
:101440002B4602B0BDE87040184702B070BD00BF27
:1014500004090020D1520000B76DDBB6705F0000B8
:10146000002270B5012104461046FFF79BFD0F488E
:1014700001F08CFB0E4B984215D101F097FB2669C9
:101480000C49304603F0C3FD00280BDB0125356411
:101490002469084904F11C0003F0B9FD002801DBB0
:1014A000E564002070BD6FF00400FBE7ED14000060
:1014B0000000AD0BA061000070B501460C23094887
:1014C0004B43C418D4E90E56403300221844A2639B
:1014D00003F088FE2DB132462B460348BDE870402C
:1014E000184770BD04090020705F000010B101288A
:1014F00004D07047034B1B6C5B0701D1FFF7DCBFC7
:10150000704700BF0409002008B54FF02003EFF337
:10151000118183F31288BFF36F8F124A136843F06F
:1015200002001060DA0708D481F31188BFF36F8FCF
:101530000120BDE8084001F04BBB4FF08043D3F8D9
:101540000C24D3F80C34DB07EED5074803F04AFE31
:1015500081F31188BFF36F8F0020BDE80840FFF7CB
:10156000ABBF00BF54090020440900201FB5002272
:101570000123CDE90223094ACDF800D06B46CDF80E
:1015800004D003F09EFE002805DB4FF480420023C8
:10159000684602F085FA05B05DF804FBEF520000E2
:1015A00010B54FF02003EFF3118483F31288BFF3DB
:1015B0006F8F074A136823F00201DB07116002D422
:1015C000012004F0ACF984F31188BFF36F8F10BDD4
:1015D000540900202DE9F0413849BFF35B8F0746DD
:1015E000012251E8003F41E800200028F9D1BFF373
:1015F0005B8F33B9324933484B60CB608A6003F06C
:1016000019FD7B1E012B2BD8012F07D14FF08043F2
:10161000D3F81C3403F00303012B21D004F066FA45
:101620000546F8B9284B1B78E3B14FF080430222FE
:10163000C3F808230646DFF894804FF08044D4F8BE
:101640001824D4F81834D20316D503F00303012B61
:1016500001D0012F10D15DB386F31188BFF36F8FD6
:10166000BDE8F0814FF02003EFF3118683F3128879
:10167000BFF36F8F0125DEE7ADB13046FFF728FDE0
:10168000D4F81835002BDAD1D4F80421002AD6D0AA
:10169000C4F80431D4F804310123C4F81835C8F86B
:1016A0008031A360CBE70021212002F001FDE7E7B4
:1016B0004FF080430222C3F80423D1E70009002041
:1016C000F008002020090020CB10002000E100E0FD
:1016D00008B5074804F0B1F938B10648FFF726FE0F
:1016E0000448FEF759FF002008BD6FF01200FBE729
:1016F000AC5F0000F91600000A2838B5074D044613
:1017000004D1AB680D21DB6928469847AB680348D4
:10171000DB69E1B29847204638BD00BFAC5F0000EE
:10172000F0B54068057B01F01F0444EA45140569E3
:1017300087B0002D64D0B2F5001F00F1100506D16E
:101740002146284604F06BF9002007B0F0BD01AE39
:101750000027B2F5800F0197776039D1B3F1007F90
:1017600014BF052304238DF804300023CDE904635E
:101770000393836823FA01F111F001011AD1B2F148
:10178000A07F17D104F01F03620903F5E0732AD08C
:10179000012A3BD11F4A52F82330DB070AD40DF14E
:1017A000030632462146284601F0F0FC1A4B9842C7
:1017B0001CD0029603AA2146284601F0A9FB174B2C
:1017C000984220D101222146284601F047FDBBE77F
:1017D000B3F1C06F05D0B3F1007F14BF0123022322
:1017E000C1E70323BFE74FF0A042D4E731462846C4
:1017F00001F02EFD094B9842DBD06FF00B00A4E7FF
:101800006FF08500A1E76FF015009EE751F82330D7
:10181000FFDE00BF000300500400AD0B0000AD0B65
:1018200038B545682B69B3B11035284601F000FD85
:10183000044680B90146284601F0C2FC084B984294
:101840000BD108492246284601F09AFC2246052180
:101850000620FFF7A7FB002038BD6FF00400FBE770
:101860000000AD0B69180000420970B5034602D0B4
:10187000012A17D070BD0D4E326951680029F9D088
:1018800003F01F0301250C689D400029F2D08A68EF
:101890002A4002D04B68304698472CB12368214635
:1018A0001C46F2E7024EE7E72346F8E7985F0000A0
:1018B000845F00002DE9F043466840F20635D0060B
:1018C000337B87B002EA050554BFC2F34010032002
:1018D00001F01F07B5F5837F144647EA43178DF8DB
:1018E000030044D00FD8062D18D007D8B5B1022D6B
:1018F0003FD06FF0150007B0BDE8F083B5F5807FED
:10190000F7D101250AE040F20222954233D0B5F525
:10191000407F32D0B5F5007FEBD1022522032ED5D2
:10192000726801238B40C2F80835326992BB07F018
:101930001F037F092BD0012F79D13F4A02EB83028D
:1019400084F48033D2F80017C3F30043C4F3404457
:1019500044EA430421F4E16144EA800421F00701F0
:1019600044EA05230B43C2F800370020C3E70725EC
:10197000D4E70425D2E70525D0E70325CEE76303A6
:1019800041BF012372688B40C2F80C35CDE74FF0A0
:10199000A042D3E710360DF102023946304601F07D
:1019A000F5FB14F4403F80460CD13946304604F034
:1019B00034F8224B9845D8D19DF80210304601F0FA
:1019C00041FCD2E701AB4FF0000903AA394630468B
:1019D000CDE90439CDE90199CDF80C9001F098FAE0
:1019E000164B984285D114F4003315D09DF803307E
:1019F0008DF80E3084F48034C4F300444B4603AABF
:101A0000394630468DF80C508DF80D4001F03AFB08
:101A10000A4B9842CDD06CE7CDE9043303AA0DF10F
:101A2000030339463046039301F072FAF0E703F5F9
:101A3000E07352F82330FFDE000300500000AD0BCE
:101A4000036803F01F025B09026004D0012B034806
:101A500018BF002070474FF0A040704700030050AF
:101A60002DE9F04FDFF89881DFF8989185B01546A1
:101A7000824600EB8101514503D1002005B0BDE84D
:101A8000F08FDAF80030D804C3F3432203F07F0468
:101A900000F1AF807F2C4FEA134318F8027008BFA3
:101AA0004FF0FF34222B00F2A780DFE803F0122270
:101AB00028432B3243A5A5A5A54672A5A5A5A5A596
:101AC000A5A5A5A575808386A5A5A5899194979AB6
:101AD0009D00C5F80C45601C18D003A80394FFF7BF
:101AE000AFFF039B012606FA03F3C0F80835B3469F
:101AF0002CE0C5F81445631C08D00026F7E7C5F8AC
:101B00000845E8E7621CC5F8084570D10AF1040AE7
:101B1000B1E7631CC5F80C45F8D0012603A803946F
:101B2000FFF78EFF039B4FF0010B0BFA03F3C0F896
:101B30000C350BE0C5F81045DDE7C5F80845002F6A
:101B4000D9D1671CE2D00026B3460627DAF8003068
:101B5000019303F40052002A03A81CBF4FF0000BAE
:101B600001260394FFF76CFF039A019B00EB8200B0
:101B7000C3F3C114D0F800273B0243EA840343EACD
:101B80000B0302EA0902134343EA4603C0F8003795
:101B9000BCE7C5F80C45D2E7C5F86045661CDAF825
:101BA0000030B3D0C3F38033002BB6D095E7C5F82F
:101BB0006445F3E7C5F86845F0E7C5F86C45EDE71F
:101BC000C5F82445621CA1D04FF0000B0126BDE7EB
:101BD000C5F828457FE7C5F83045F3E7C5F8344533
:101BE000F0E7C5F83845EDE7C5F83C45EAE70026DB
:101BF00094E76FF0150041E76FF085003EE700BF06
:101C0000DA650000F0F8FCFFF7B51D46436804698B
:101C1000D3F800C006464FF02003EFF3118783F39B
:101C20001288BFF36F8FE368D86838B187F31188E3
:101C3000BFF36F8F6FF00F0003B0F0BDDA60E368A1
:101C400099604FF48003CCF8043301F06043B3F1A2
:101C5000005FE36811D11961E3685A61214630469B
:101C600003F021FD87F31188BFF36F8FE37A012B17
:101C700001D16B1C06D10020DEE7D861204603F0BD
:101C80008BFCEBE70B480C4AE46825EAE5754FF45A
:101C9000004600210023C5FB0601FEF731FA20347F
:101CA00002460B4600200021CDE90001204602F04B
:101CB000EBFBE0E73F420F0040420F002DE9F74306
:101CC0000746002201210220FFF76CF90220FFF7EE
:101CD00039F97E683D6934684FF00008C4F8008522
:101CE0002F60D6F80C9001AA4146484603F057FBF6
:101CF000002839DB019BD9F8002019791868FFF713
:101D0000AFFE002830DB6B7AD7F810C0012B03D070
:101D1000032B27D14FF01008AB7A032B22D1E97A9D
:101D200009B101291ED12A7A12B1022A1AD10E2232
:101D30006B687868B3F5164F006800F0E88034D817
:101D4000B3F5165F00F0E6801AD8B3F5966F00F091
:101D5000E3800CD8B3F5967F00F0E180B3F5167FF1
:101D600000F0E0806FF0850003B0BDE8F083B3F5CC
:101D7000166F00F0DA80B3F5965FF3D1804B45E043
:101D8000B3F5E14F00F0D48008D8B3F5615F00F0FF
:101D9000D180B3F5964FE5D17A4B37E047F6122E56
:101DA0007345DFD14FF4000330E0B3F5613F00F03D
:101DB000C38015D8B3F5963F00F0C1800AD84DF620
:101DC000C02E734500F0BD80B3F5614FCAD14FF40A
:101DD0006B031BE0B3F5E13FC4D14FF0EB7315E0AB
:101DE000B3F5612F00F0B0800AD8DFF89CE17345AD
:101DF00000F0AD80B3F5E12FB4D14FF0E86305E01A
:101E0000DFF888E17345ADD14FF08053C0F8243539
:101E10007B6841EA08011B680A43C3F86C25D5E9D1
:101E200001010CF1040383E803007368990713D5DB
:101E300005F11C0001F03EFB554B984240F09C80A0
:101E4000287F04F10C0204F5907103F05EFD2B7FF6
:101E50000120984000F032FEEB68002B7AD07B68BE
:101E6000D7F810801B680422C3F80423D8F80C109C
:101E70000122C1F8C0204749C3F804130821C3F860
:101E80000015D3F84C11A1B15A60D3F844211AB906
:101E9000D3F82421002AF8D00022C3F84C21D3F82B
:101EA0004C11C3F81021D3F81011C3F84421D3F812
:101EB0004431D8F80C0038490022803003F05AFF32
:101EC000D8F80C30C3F8B480D8F80C00334900229D
:101ED000203003F04FFFD8F80C30C3F854807368FB
:101EE0009A075CBF4FF48073C4F804337368DB0651
:101EF00044BF4FF48003C4F804336B69C4F844351D
:101F000000200123C4F84805A360E3602CE74FF4E8
:101F10001D037BE7224B79E74FF49E2376E74FF4CE
:101F2000A03373E74FF41C3370E74FF41D236DE7C4
:101F30001C4B6BE71C4B69E74FF06C7366E71B4B60
:101F400064E74FF4650361E74FF070635EE74FF0BD
:101F500080635BE70823C4F80035337A002BBED1D9
:101F6000C4F81031D4F81031AB69C4F8343501230A
:101F7000C4F838352360B2E76FF00400F4E600BF20
:101F800000B0130000A04E0090D0030040420F00AC
:101F90000000AD0B10020A00F3570000C758000004
:101FA0000050270000C0750000F03A0000903A0190
:101FB0002DE9F041044605690E4603F097FDB0B9DE
:101FC0002A4B1B789BB16427606803F05CFB0028F8
:101FD00038D1012003F097FC013FF5D100212120E9
:101FE00002F066F8EFE781F31188BFF36F8F4FF0CF
:101FF0002003EFF3118183F31288BFF36F8FD4F8BE
:10200000048040460F4603F03EFB0028EBD0EB680F
:102010005BB1DA684AB1D3F8BC20002A05DAD8F8F7
:102020000020D2F84C25C3F8BC206B691E7069698A
:102030000122204603F0CDF987F31188BFF36F8F9B
:10204000BDE8F0814FF02003EFF3118183F3128894
:10205000BFF36F8F60680F4603F015FB0028E4D1D3
:1020600081F31188BFF36F8FB8E700BFCB1000205A
:102070002DE9F04143681D680369D5F8081188B05F
:10208000044669B10022C5F80821D5F80821DA68AC
:10209000D2F8B8300133C2F8B83008B0BDE8F081EA
:1020A000D5F8243123B3C5F82411D5F82431436879
:1020B0001B68D3F88064C3F88064142203A803F07B
:1020C0000DFF0623F2078DF80C3000F10C81B307E9
:1020D00000F10B81770700F10A8106F0080620461F
:1020E00003A98DF8106003F09CF9204603F02FFA45
:1020F000D5F81031002B33D0D5F80433D8062FD5BE
:102100004FF00008C5F810812669D5F810316368D2
:102110001F68F368012283F8CE20F068803003F056
:1021200035FEF268D7F83C1592F8C93082F8C980BC
:10213000F268106E1B1A0B44106F23EAE371084417
:102140004345106702DD204603F072F9F16891F80B
:10215000CA3003F0FF02002B40F0CB8081F8CE2084
:10216000D5F84C3183B3D5F810616EBBC5F84C611E
:1021700014222769D5F84C31314603A803F0AEFE8E
:10218000032303A920468DF80C3003F04AF9FB68BD
:102190005A6F511C18D0DA67FF688F49B86F8F4AA1
:1021A00020EAE07C8E464FF400403146CCFB00E153
:1021B00000237046FDF7A4FF02460B46CDE900015F
:1021C00007F1800002F060F9D5F8443163B3D5F827
:1021D00010614EBBC5F844612769D5F84431F968F0
:1021E000D4F804805831204603F03BF9F9682046C2
:1021F000643103F036F9FB6883F8CA60FB6893F832
:10220000CB2032B183F8CB6060683246314603F0B0
:10221000DBF9D8F80430D80603D50221204603F0B4
:1022200008FA204603F035F9D5F82031DBB1D5F8AE
:102230000433D90517D563681B684FF02001EFF30D
:10224000118281F31288BFF36F8FD3F8201131B15F
:102250000021C3F82011D3F820110121D96082F3A5
:102260001188BFF36F8FD5F85831002B3FF415AFAD
:10227000D5F804335A027FF510AF63682569D3E9B6
:102280000073DB0666D4EB689B68002B3FF405AF58
:102290004FF02003EFF3118283F31288BFF36F8FA7
:1022A000EB68D3F8BC100029ACBFD3F8BC60D7F8FA
:1022B0004C6582F31188BFF36F8FEB6893F8CD20E4
:1022C000002A54D04FF02003EFF3118683F31288D5
:1022D000BFF36F8F2946204603F0E5F986F3118896
:1022E000BFF36F8FD9E60126F9E60226F7E604264A
:1022F000F5E65831204603F0B4F84FF02003EFF331
:10230000118183F31288BFF36F8FF3685A6EF2B1B5
:102310009A65F3689A6EDA65F26800235366F2688C
:102320009366F2681366D7F84C310BB901233B6012
:10233000D7F8003223F02003C7F8003281F3118868
:10234000BFF36F8FF368002283F8CE2008E70123E4
:102350007B60F3E74FF48003C7F808330121204680
:1023600003F067F9EB68DB68002B8CD195E6996880
:102370001A6991420CD05969DA69B142324428D1C4
:10238000DA61284603F008F900289BD1EB68DE6982
:10239000E868203003F0FAFC1422002103A803F0BF
:1023A0009DFDEB689A68CDE90426DB689E421CBF60
:1023B00001238DF80C304FF48003C7F80833EA6826
:1023C00000239360EA6803A9D360204603F029F84C
:1023D00063E61646DCE700BF3F420F0040420F00B5
:1023E00070B5012383400E4ABFF35B8FDC4352E894
:1023F000001F01EA040542E80056002EF7D1BFF3A2
:102400005B8F4FF4803282400648C0F80823BFF348
:102410005F8FBFF36F8F0B4214BF0120002070BD90
:10242000740900200010014070B40E49D1E9003455
:10243000D01AC31844F1000422F07F46C1E90034E9
:10244000A6F50013B3F5400F09D2074B1B681A0A13
:102450001B069C19054B42F10005C3E9004570BC01
:1024600001F01CBF800200207809002088020020B3
:1024700011B3BFF35B8F0123104A834052E800CFB2
:102480004CEA030C42E800C10029F7D1BFF35B8F8F
:102490000B4A4FF480338340C2F80433094BBFF337
:1024A0005B8F1B68BFF35B8FC340DB0742BF064BEC
:1024B0004FF40032C3F80021704700BF74090020B8
:1024C000001001407009002000E100E00D4B186889
:1024D000010A0006BFF35F8F0B4BD3F804351818C1
:1024E00041F10001B3F5801F0AD2084BD3E9002364
:1024F000904271EB030303D210F1807041F10001AF
:10250000704700BF780900200010014088020020B9
:102510002DE9F04F85B016461F469DF840A00446B1
:10252000FFF75EFF0190FFF7D1FFB04271EB0703A9
:1025300054D23E4B301A67EB0101984271F1000111
:102540004FD23B4B03EB0413D3E902239F4208BF56
:1025500096425ED037494FF4803804F1500508FAAE
:1025600004F8AD00C1F848832046ADB203F0AFF9DE
:1025700026F07F4B05F1804504F5A87305F58835F5
:10258000DC464FF003090293029A2CF07F4341F896
:102590002230C1F84483D1F80435274A6FF0020095
:1025A000C01A604420F07F40904232D9286868B158
:1025B000D1F804350393A3EB0B0020F07F40B0F576
:1025C000000F26D9204603F082F9039BBAF1000FD1
:1025D00007D109EB030C09F10109D5E7BAF1000FA6
:1025E00009D06FF0150520460199FFF741FF2846F5
:1025F00005B0BDE8F08F0123104ABFF35B8FA34005
:1026000052E8000F184342E800010029F8D1BFF357
:102610005B8F07490E98230101EB0412C8500F9BF2
:102620005360C2E902670025DDE700BF01008000BA
:102630007002002000100140FDFF7F0070090020A3
:102640007FB51C4C1C4BC4F80833C4F848331B4BF3
:1026500000254FF0FF304FF0FF31C4F80855C3E9B3
:1026600002014FF48033C4F80433154B02264FF4B3
:1026700000320121C4F804631120C3F880212A46E6
:10268000FEF790FC1120FEF75DFC0E4A0123A360CB
:10269000236013600C4B0D4A0093CDE901550023D4
:1026A0002846FFF735FF3046FEF794FF284604B072
:1026B00070BD00BF0010014003000F007002002039
:1026C00000E100E07409002029240000FFFF7F00E2
:1026D0002DE9F7432F4CD4F8043399070BD5D4F8E0
:1026E000043143B12C4A0023C4F80431D4F8043136
:1026F000136801331360D4F80433DA032AD5BFF327
:102700005B8F264B53E8002F22F0010143E80010B5
:102710000028F7D1BFF35B8FD30702D4D4F8403140
:10272000C3B10025C4F84051D4F84031FFF7CEFEC4
:102730004FF02003EFF3118283F31288BFF36F8F02
:10274000174BD3E90267B042B94106D282F3118830
:10275000BFF36F8F03B0BDE8F0834FF0FF384FF049
:10276000FF39C3E90289D3E900101D604FF48033BB
:10277000C4F84833C4F84051D4F8403182F311888A
:10278000BFF36F8F0029E5D0009032463B462846C4
:102790008847DFE700100140780900207009002019
:1027A0007002002030B5431C124C85B005D0844225
:1027B000A8BF0446012CB8BF0124FFF787FE0E4BCB
:1027C0000C4DD3E90013401AB0F5000F10D22218B7
:1027D000AA4228BF2A4652184FF00000074900912C
:1027E000CDE9010043F10003FFF792FE05B030BDD3
:1027F0002A46F0E7FFFF7F00800200202924000026
:1028000008B5FFF763FE024B1B68C01A08BD00BF86
:102810008002002010B5084C012363601120FEF7F0
:102820009FFB064BC4F80833C4F84833044B4FF4FD
:102830000032C3F8802110BD0010014003000F00DA
:1028400000E100E04FF08053D3F83021082A06D190
:10285000D3F83431052B02D8024AD05C70470020EF
:10286000704700BFF6650000024AD2F80034002B22
:10287000FBD0704700E0014010B54FF08053D3F813
:102880003021082A4ED14FF080420021C2F80C11AD
:10289000C2F81011C2F8381502F54042D3F80414FA
:1028A000C2F82015D3F80814C2F82415D3F80C1474
:1028B000C2F82815D3F81014C2F82C15D3F8141444
:1028C000C2F83015D3F81814C2F83415D3F81C1414
:1028D000C2F84015D3F82014C2F84415D3F82414D4
:1028E000C2F84815D3F82814C2F84C15D3F82C14A4
:1028F000C2F85015D3F83014C2F85415D3F8341474
:10290000C2F86015D3F83814C2F86415D3F83C1433
:10291000C2F86815D3F84014C2F86C15D3F84434E3
:10292000C2F87035FFF78EFF18B13A4B3A4AC3F838
:102930008C26FFF787FF18B1384BFB22C3F8182508
:10294000FFF780FF70B14FF080414FF08053D1F816
:10295000E42ED3F8583222F00F0203F00F03134392
:10296000C1F8E43EFFF76EFF20B12D4B4FF400722B
:10297000C3F840264FF08053D3F83031082B1AD1DA
:102980004FF08043D3F80024D20744BF6FF0010218
:10299000C3F800244FF08053D3F83431052B02D80C
:1029A000204AD35C3BB14FF01023D3F808224FF0FC
:1029B0008043C3F858254FF01023D3F80022002A93
:1029C00003DBD3F80432002B22DA174901234FF03E
:1029D0001020C1F804351224FFF746FFC0F800426A
:1029E000FFF742FFC0F80442FFF73EFF0023C1F8A3
:1029F0000435FFF739FFBFF34F8F0C490C4BCA6802
:102A000002F4E0621343CB60BFF34F8F00BFFDE7DA
:102A100010BD00BF005000404881030000F000409E
:102A200000900240F065000000E0014000ED00E091
:102A30000400FA0530B50468CCB1BFF35B8FB4FA7B
:102A400084F3C3F11F03DBB201229A4024EA02029D
:102A500050E8005FA54204D140E8002CBCF1000F13
:102A6000F6D1BFF35B8FE6D102480B7030BD024850
:102A7000FCE700BF0000AD0B0200AD0B10B5036812
:102A8000CB40DB0714D401238B400268BFF35B8F7C
:102A900043EA020150E8004F944204D140E8001C90
:102AA000BCF1000FF6D1BFF35B8FEED1014810BD32
:102AB0000148FCE70000AD0B0400AD0B014BC3F86F
:102AC0000405704700F00140F7B5044618B101282D
:102AD00023D003B0F0BD4FF080430222C3F8082397
:102AE0000122DA60C3F80401D3F804310646012359
:102AF0008DF8073042F210754FF08047D4B1012CA9
:102B0000E7D1D7F80C3403F48033AEBB83B3012094
:102B100002F0F9FE013DF4D12AE04FF0804300229B
:102B2000C3F808035860C3F80021D3F800310DF151
:102B30000706DCE7D7F8183403F480333EB9002BDE
:102B4000C7D0012002F0DFFE013DF3D1C1E7D7F885
:102B5000182402F003023260002BBAD09DF807005F
:102B6000012803D102F0CFFE013DC7D1012CB0D125
:102B7000054B00225A71ACE7D7F80C2402F0010291
:102B80003270002BEAD1F3E77C090020044B1A795C
:102B900022B9012218609A800248704702487047A3
:102BA0007C0900200000AD0B0C00AD0B08B5074BF5
:102BB0001B682BB10020FEF7E7F908B9FEF7C2F950
:102BC0004FF080430022C3F8182508BD7C0900207F
:102BD00010B510B1012843D010BD4FF08043D3F899
:102BE0001814D3F81824C80321D502F00303012BCD
:102BF00004D013B10020FFF767FF00234FF080429D
:102C00000220C2F8183508224FF4827303F1804382
:102C10000021196002F180421C6801241460154AE9
:102C200012680AB34FF08043C3F80403D4E7D3F823
:102C30001424D107E1D5D3F81C249207DAD40D4A25
:102C400012681AB10222C3F80423C5E7D3F804219D
:102C5000002AFBD00022C3F80421D3F80431BBE7DB
:102C600000224FF48073D1E71A68002AFCD0196063
:102C70001B68B1E77C09002010B54FF08043D3F802
:102C800000216AB10022C3F80021D3F800210122FB
:102C9000C3F80823114B587910B95A711B6898472B
:102CA0004FF08043D3F8042172B10022C3F804210D
:102CB000D3F80421D3F81824D3F81824920704D1A8
:102CC0000122C3F818259A6010BD0222C3F8082318
:102CD000024BBDE810401B68012018477C0900200A
:102CE000036803F01F025B09026004D0012B034854
:102CF00018BF002070474FF0A040704700030050FD
:102D0000034A430900F01F00D35C1844C0B2704767
:102D1000FC65000070B50546FFF7F2FF0C4C08306B
:102D20000E4634F81030DA0508D5C3F3432304EB1C
:102D3000C302284654F8333052689847A3682BB131
:102D4000E26831462846BDE87040184770BD00BFB4
:102D50002801002008B5FFF7D3FF034B083033F8F4
:102D60001000400B08BD00BF2801002008B5FFF788
:102D7000C7FF034B083033F81000C0F3400008BD14
:102D80002801002008B5FFF7BBFF034B083033F8DC
:102D90001000C0F3401008BD28010020034611F0C8
:102DA000010010B5CCB20DD1A207C4F3400012D57A
:102DB000094AD2F820055860C2F82005003818BF2B
:102DC000012008E04FF0A041D1F820251A60C1F899
:102DD0002025002AE8D010BD0003005010B5FFF7F1
:102DE0008FFF124A083032F81030D9051CD5C3F3D2
:102DF000432123F4F85322F8103002F10E0400208E
:102E000034F8023F13F4807F03D0C3F34323994285
:102E10000AD001303028F3D1002342F83130044881
:102E2000BDE81040FFF72ABE10BD00BF28010020FA
:102E3000A0010020F0B50546002004460126074603
:102E40008C420BD1114BD3F87C2132B10022C3F854
:102E50007C21D3F87C3140F00040F0BDE3B29B0010
:102E600003F580729B0806FA03F31D420BD002F1B2
:102E7000804202F5C042D2F800C0BCF1000F02D07F
:102E80001760126818430134DAE700BF00600040A1
:102E9000F7B506460846FFF733FF194F00F108055E
:102EA0000C4637F81530DB0727D5304602F091FD88
:102EB0002046FFF767FF40B12046FFF74BFF316820
:102EC00000F5A270002341F820302046FFF786FF6E
:102ED000002301A827F815300194FFF701FF019B9B
:102EE00000EB8300074BD0F80027134043F00203A8
:102EF000C0F80037044803B0F0BD0448FBE700BF4A
:102F000028010020F0F8FCFF0000AD0B0400AD0B21
:102F10002DE9FF41164680460846FFF7F1FE0D46B3
:102F20003168044609B32846FFF720FF18B1284648
:102F3000FFF728FF10BB0023CDE900338DF80E30DA
:102F40008DF80F300DF10F020B4628460DF10E01E2
:102F500002F0E7FC474A04F1080132F8113023F08F
:102F6000020343F0010322F81130736863B328466B
:102F70001F785968FFF7FAFE10B1D1B13E4826E03C
:102F80003C4A04F1080032F8103023F02003DB043F
:102F9000DB0C22F8103061B1032FEFD8716849685B
:102FA00091F800C0D8F80010A7B90CF5A27C41F840
:102FB0002C70304A04F1080132F8113023F01C0360
:102FC00043EA870322F81130B3684BBB2B4804B0A7
:102FD000BDE8F08101EB8C0143EA4C33D1F810E5F8
:102FE0002EF0030EC1F810E5D8F8001001EB8C0E9E
:102FF00043F02003DEF8101522F8103021F44F3191
:1030000021F44071CEF810152902DEF8108501F484
:103010007C5141EA074141EA0801CEF81015C8E7A2
:10302000D3E900672846FFF7D9FE002ECED0114D18
:10303000D5E90023964203D19F4201D1002209E045
:103040000F480DF10F01FFF7F5FC0C4B9842BED174
:103050009DF80F2045F8326005EBC20308345F602D
:1030600035F8143043EA422343F4807325F81430D2
:10307000ACE700BF280100200400AD0B0000AD0B41
:10308000A00100202DE9F0430C4685B08046204683
:1030900011461E46FFF734FE054629B32046FFF7CA
:1030A00065FE18B92046FFF76DFE18BB314F05F1DC
:1030B000080937F8193013F01C0F02D04B78012B98
:1030C00018D001238DF80F300023CDE900134A1CDE
:1030D0008B1C20460DF10F0102F023FC37F819304C
:1030E00043F0030327F81930002E41D02046FFF7A4
:1030F0003DFE18B9204805B0BDE8F08396F800C041
:10310000D8F800301B4F0CF5A272002143F82210B2
:1031100005F1080237F8121021F02001C904C90C8A
:1031200027F8121075781DB3D8F80000B67800EBB8
:103130008C002D04D0F8103523F4991323F4F853A0
:10314000C0F81035230203F47C5305F440353605EE
:10315000D0F810E52B4306F4801641EA4C31334396
:1031600041F0200143EA0E0327F81210C0F8103591
:103170000248C0E7280100200400AD0B0000AD0BA1
:10318000014BC3E9021270472801002010B5084620
:103190001446FFF7F7FD50B10846FFF7B1FD054BA8
:1031A000083033F8103004485B0B237010BD03481F
:1031B000FCE700BF280100200000AD0B0400AD0BB0
:1031C00070B5184E96F8804005464CBB21466022EB
:1031D00006F1100002F082FE2D68306F2146884211
:1031E00012D10023C5F87C3145F30730D5F87C3186
:1031F000FDF7A8FE4FF00043C5F804330A48012349
:1032000086F88030B36770BDCBB29B0003F5807247
:103210007C2B08BFAC5001F1010108BFAB58DEE7C1
:103220000248F0E7280100200000AD0B0C00AD0BB8
:10323000034B93F88000003818BF0120704700BF8F
:10324000280100200148FFF719BC00BF9C010020A5
:103250000148FFF7EFBB00BF9C01002073B5054696
:1032600008460C461646FFF78DFD00B30846FFF7EB
:103270007DFD0146D8B92046FFF76CFD04B2A400DD
:1032800004F58072034628688150296882582144D9
:10329000D1F8102542F00102C1F810252EB129689D
:1032A000012202FA03F3C1F8043302B070BD2046D4
:1032B000FFF726FD0F4B083033F81030C3F38203BD
:1032C000042B12D0052B12D001A80194FFF708FDA2
:1032D000019AD0F81035D34003F00103991C204621
:1032E00002B0BDE8704002F065BB0321F7E70221A0
:1032F000F5E700BF280100202DE9F04F694BDFF80A
:10330000A881D3F80403D8F87010C0B289B040F097
:103310000040FFF78FFD051E2FDAC24600235AF842
:103320007C1F06A8CDE90633FFF738FD5F4B0193FC
:103330000DF118094FF0000B019A12F8013B0192B0
:10334000DA0803F007031AF8022022FA03F3DA0777
:103350001CD409F10409BBF1000F14D0D8F8701087
:103360004FF00040FFF766FDD8F87C1006A8FFF785
:1033700015FD0028DAD125F000450124002D79D172
:1033800009B0BDE8F08F4FF0010BD5E7484B5B4427
:103390000293D9F800100029DBD0029B91FAA1F129
:1033A0001C78B1FA81F141EA44142046FFF7A8FCE9
:1033B0000830059438F81070C808BB0819F80020C8
:1033C000039301F00701012303FA01F122EA01024C
:1033D00009F8002005A8FFF783FC059A039B02F576
:1033E000E072C7F3820650F822205B073746C2F32B
:1033F000014224D520463946D6B2FFF78BFC05A8FA
:103400000594FFF76DFC059B03F5E07350F823303E
:10341000C3F301439E4207D10021204602F0CAFABD
:103420003146204602F0C6FA05A80594FFF758FC7D
:10343000059B012202FA03F3C0F82035A9E7022A0E
:103440000CD10321204602F0B5FA06F00503012B4A
:10345000EAD139462046FFF75DFCE5E70221204628
:10346000039202F0A7FA032EF3D0039A032ADBD1CA
:10347000022EEDE795FAA5F3B3FA83F304FA03F20B
:103480009B0003F1804303F5C04325EA0205D3F80E
:103490001005D3F81015C0F30520C1F30141FFF763
:1034A00039FC6BE700600040280100200C6600003A
:1034B0000C66000001460148FFF7BCBAAC010020D1
:1034C00008B5144BA8220021184602F007FD03227C
:1034D000026111494261114A8161C2614FF4806207
:1034E0000262002282624262C26201660C49416647
:1034F0001021816603460267C2664267BFF35F8F91
:10350000084911F8010D98540132102AF9D1BFF37E
:103510005F8F08BD840900200E660000CB0C0020E0
:10352000BB0C00202766000038B54FF02003EFF3F6
:10353000118583F31288BFF36F8F064B9C6802F0EE
:10354000D2F985F31188BFF36F8F2046BDE838406C
:10355000FDF788BC300A0020104B70B553F82040AE
:10356000013053F82060A64200D870BDD4E9003580
:1035700095B153B12846984738B10028B8BF4042AA
:10358000EB68FF28A8BFFF201870EA68537843F063
:10359000010353700834E6E79847FBE78C620000AC
:1035A00008B50A4B012203201A70FFF7D5FF00F07F
:1035B000A5FF0420FFF7D0FF00F04CF9FCF76EFFE9
:1035C000034A137B23F00103137308BDCB100020C3
:1035D0001003002008B50348034A0021121A02F024
:1035E00037FA08BD70020020D010002070B500230B
:1035F00086B00122CDE90423194E1A4D01930F2202
:10360000CDE902321849142303FB005506EBC0161E
:1036100004464FF4C070154B00954FF4A07200FBA8
:103620000411304600F0D6F8737B114AEE6023F0A7
:10363000040373734FF4046304FB033313446B609C
:103640000C4B2C74BFF35B8F53E8001F013143E830
:103650000012002AF8D1BFF35B8F06B070BD00BF27
:1036600090020020300A002040190020F95A000082
:10367000001100202C0A002080B50020A6B0FFF722
:103680006BFF2D4B83F308882C4D2D4E6B692D4F0E
:1036900043F400736B610024E02385F82230EC775B
:1036A0002C766C76AC7685F820406B6A43F4E02388
:1036B0006B6285F82340FDF743FBFDF7F5FC4FF007
:1036C000FF33AB62EB62FDF797FDFDF72DFD40F296
:1036D0000113ADF8243006ABB360CDE91E4421944C
:1036E00002F0AAF90120FFF737FF0220164DFFF77D
:1036F00033FF00F053FC154B75610593012314490A
:103700000094CDE903434FF480623B46CDE9014488
:10371000284600F05FF86A7B064622F0040228463D
:103720006A7302F03EFA2046FFF760FF3A463146E0
:103730002846FDF79DFC00BF4019002000ED00E089
:10374000300A0020A1350000100300202866000088
:10375000C01A002038B5064C064D0020AC4200D3FC
:1037600038BD204602F078F90028F9DB1C34F5E773
:10377000200200202002002073B50C464FF02005E7
:10378000EFF3118185F31288BFF36F8FC5685DB1C8
:1037900025602B68C360836901338361002081F356
:1037A0001188BFF36F8F11E052EA030603D1256041
:1037B0006FF00B00F3E7CDE900230246083000F07C
:1037C00029FB18B9024B9B685B69236002B070BD8E
:1037D000300A00202DE9F04385B00732994600F108
:1037E000580322F00706C0E91633109B037306F155
:1037F00040050423002743730D440F9B83738846C1
:10380000C0E9067729468760C7730446FDF718F9B3
:1038100008F140030730C4E9183620F007000E9B7A
:10382000A06602930D9B01932D1A0C9B00932A46D0
:103830004B4641462046FDF7E9FB054B67659B6813
:1038400003B1DB6EE366284605B0BDE8F08300BF38
:10385000300A002070B5224C224D86B02646AE427A
:1038600004F130040AD300F069FB1D4C1E4EAC423B
:1038700020D306B0BDE8704000F074BB54F80C3C97
:10388000059354F8103C049354F8143C039354F8F3
:10389000183C029354F81C3C019354F8203C0093CC
:1038A00054E90A2354E90C01FFF794FF54F8303C23
:1038B0005E65D3E7D4E90A23B3F1FF3F08BFB2F155
:1038C000FF3F05D052EA0301206803D100F018FB46
:1038D0003034CCE73146183000F06AFCF8E700BF1E
:1038E0004061000040610000615C000038B5836801
:1038F00004466BB3194A926893422CD1C368012BDA
:1039000003D9013BC360002038BD4FF02003EFF323
:10391000118583F31288BFF36F8F0169806802F00D
:10392000F7F8204602F0B7F9A06058B190F90E20E0
:1039300022610022826702F034F90948294600F02A
:10394000CDFAE0E7E06085F31188BFF36F8FDAE727
:103950006FF01500D8E74FF0FF30D5E7300A0020B0
:10396000CC1000202DE9F341044617461E464FF0C7
:103970002003EFF3118883F31288BFF36F8FC368BE
:10398000334A7BB180689168884219D057EA0603B0
:1039900018D188F31188BFF36F8F6FF00F0002B05A
:1039A000BDE8F081916891F90E1021610133E36067
:1039B0009368A36088F31188BFF36F8F0020EEE750
:1039C0002169F2E791F90E1090F90E309942A8BFE3
:1039D00019466FF07E029142B8BF11468B422EDD30
:1039E00002F096F80546CDE900761A48224641468F
:1039F00000F010FA0028E1D04FF02003EFF3118619
:103A000083F31288BFF36F8FA068D0B12368216958
:103A10009C420AD04BB193F90E309942A8BF194687
:103A20006FF07E039942B8BF194602F071F840B1B9
:103A30000848314600F052FA6FF00A00AFE700255F
:103A4000D1E7002DF4D186F31188BFF36F8FF3E730
:103A5000300A0020CC10002038B504464FF0200377
:103A6000EFF3118583F31288BFF36F8F02F013F920
:103A700048B10022826702F094F829460748BDE861
:103A8000384000F02BBAD4E902329A4218BF013311
:103A9000A36085F31188BFF36F8F38BDCC10002071
:103AA00013B54FF02004EFF3118184F31288BFF3B4
:103AB0006F8F846844B1013C846081F31188BFF347
:103AC0006F8F002002B010BD52EA030406D181F3CB
:103AD0001188BFF36F8F6FF00F00F3E7CDE900237C
:103AE0000246024800F096F9ECE700BFCC10002037
:103AF000C3897F2B12D80A4B1B6863B1094B90F91D
:103B00000E201B689A4209DB437BDB0606D1064B7D
:103B1000C31A18BF012303F0010070470023FAE71E
:103B2000580A0020540A002090020020044BC01ABA
:103B3000044BC0105843044B01221A54704700BF75
:103B400090030020ABAAAAAACC10002070B50E4B9F
:103B50000E4C1E7C06EB460304EBC30405462046D0
:103B600002F0ECF80A4B002228469A55FFF7C0FFF6
:103B700048B1084B08491A68013A2046D317BDE8F6
:103B8000704000F015BB70BD300A0020900300208B
:103B9000CC100020580A00202D3B000038B50D4DF8
:103BA0002B4653F8184F9C4200D004B9EC68AB6820
:103BB00038B95A7BD20604D1A26912B9DA897F2AB0
:103BC00005D89C4202D02046FFF7C0FF23466B6118
:103BD00038BD00BF300A002070B590F90D20437B3E
:103BE000002A014604DA03F07F03437301F09FFFCC
:103BF0004B7B154A63F07F0310464B7350F8183F18
:103C0000D469834208BF002323B9C1E900042160BD
:103C1000D1610CE091F90E5093F90E60B5420ED0CF
:103C2000AE420CDD5868C1E900300160596090680F
:103C3000431A5842BDE870405841FFF7AFBF9C425D
:103C4000E3D01B68E0E700BF300A002070B490F9B1
:103C50000D30427B002B29DBD30627D183692BBB98
:103C6000134962F07F0242730A4652F8184F944299
:103C700018BF2346CC6923B9C0E900242060C8617D
:103C80000CE090F90E5093F90E60B5420AD0AE42A6
:103C900008DD5A68C0E900321060586070BC00202E
:103CA000FFF77CBFA342E7D01B68E4E770BC704716
:103CB000300A002008B590F90D20437B002A014608
:103CC00004DA03F07F03437301F031FF044B98687B
:103CD000431A58425841BDE80840FFF75FBF00BF94
:103CE000300A002070B515461C46064601F031FF2B
:103CF000B4F1FF3F08BFB5F1FF3F08D02A46234685
:103D000006F118000249BDE8704000F051BA70BDDC
:103D1000615C00002DE9F041002A437B0E460CBF98
:103D200010210821194204460AD10B43DD0903F092
:103D30009F0211D14273082914D00120FFF72EFFF2
:103D40001B4B9B68A3422CD1EFF305834BBB304642
:103D5000BDE8F041FDF79CB803F01F03437301F089
:103D6000E6FEE8E7A36813B1204601F0E8FE04F19F
:103D7000180001F0E3FF04F158074FF00008A56DAB
:103D8000BD42DAD0002DD8D0284601F0D8FE05F18A
:103D9000180001F0D3FFC5F878802846FFF756FFDA
:103DA000EDE786F31188BFF36F8FBDE8F08100BFA8
:103DB000300A002038B54FF02003EFF3118583F36C
:103DC0001288BFF36F8F104B104A9C681068A04296
:103DD00006D1FFF7BBFE85F31188BFF36F8F38BDA7
:103DE00000211B7C11600A4AD35C002BF3D02046D3
:103DF000FFF77EFE0028EED0637BDB0602D1204673
:103E0000FFF7EAFE2046E4E7300A0020500A0020CF
:103E1000CC10002070B50C480C4D86682E600C4606
:103E20001146DDE904234FF02006EFF3118586F3F8
:103E30001288BFF36F8F8068FFF754FF2046BDE8FC
:103E40007040FDF725B800BF300A0020500A00205E
:103E5000F8B504464FF02003EFF3118683F3128880
:103E6000BFF36F8F437BDA0649B219D18569BDB9BB
:103E700003F07F03437301F05AFE437B164A8173BC
:103E800063F07F034373134653F8180F984218BF2B
:103E90000546D0695DB9C4E900300460D46111E021
:103EA000A173002086F31188BFF36F8FF8BD95F9D9
:103EB0000E70B9420BD08F4209DD6B68C4E9005324
:103EC0001C606C600120FFF769FE0120EAE7A84250
:103ED000E1D02D68DEE700BF300A002049B9EFF3DA
:103EE000058030B9054B5A699B689A4201D0FCF7AE
:103EF000CFBF81F31188BFF36F8F7047300A002066
:103F000010B54FF02002EFF3118482F31288BFF353
:103F10006F8F427B510704D484F31188BFF36F8FF6
:103F200010BD22F004024273FFF790FE21460248C2
:103F3000BDE81040FFF7D2BFCD1000204FF02003A6
:103F4000EFF3118183F31288BFF36F8F044B9A68EC
:103F5000D37B013BD37381F31188BFF36F8F70471D
:103F6000300A002010B54FF02003EFF3118483F3E3
:103F70001288BFF36F8F084B9A68D37B0133D373DA
:103F80000020FFF70BFE84F31188BFF36F8FBDE8AD
:103F9000104001F0A8BE00BF300A0020024B03F120
:103FA0001802C3E906227047300A0020F8B54FF026
:103FB0002003EFF3118583F31288BFF36F8F194944
:103FC0008868437B03F07F03437301F0B0FD8B6887
:103FD0005A7B084662F07F025A7350F8182FCC695A
:103FE000824208BF002222B9C3E900042360CB61EA
:103FF0000CE093F90E6092F90E70BE420ED0B742FB
:104000000CDD5168C3E900210B6053600120FFF70C
:10401000C5FD2846BDE8F840FCF73ABFA242E3D010
:104020001268E0E7300A002050EA01032DE9F04170
:1040300005460E4603D1FFF7B9FF00202CE0831C94
:1040400071F1FF332ADB01F08FFE2C184FF02003B3
:10405000EFF3118883F31288BFF36F8F114F124B68
:10406000B8681860FFF726FEB86810492A4633463C
:10407000183000F09DF8BA68537B43F01003537377
:104080004046FCF705FF01F06FFE201A63EB0303C7
:10409000012873F10003D0DBBDE8F0816FF001046B
:1040A000241AD3E7300A0020500A0020615C000087
:1040B000B1F1FF3F08BFB0F1FF3F08B506D1084B93
:1040C000986801F07EFD4FF0FF3008BDFFF7ACFFB0
:1040D0004FF47A7380FB0303C00B40EA4340F4E7DC
:1040E000300A0020014B9868704700BF300A00205A
:1040F00008B50648064A0749121A01F0ABFCBDE8AC
:104100000840054A0549064801F0A4BC000000200B
:10411000700200206C660000000000006C66000069
:1041200000000020034B1B680BB9FEF769BB0020A1
:10413000704700BF5C0A002010B50E4B1C689C4203
:1041400004D1FFF7EFFF6FF0004010BDFFF7EAFF6B
:10415000002CF8D0D4E904321B1A62EBE072B3F100
:10416000004F72F10001EEDA002AACBF18460020C1
:10417000EBE700BFB001002030B570B10B4B5B68BE
:1041800098420AD0036843B1D3E90421D0E9044539
:10419000121941EB0501C3E90421D0E90032136093
:1041A0005A600023C0E9003330BD00BFB0010020D9
:1041B000B3F1FF3F08BFB2F1FF3FF8B504461D461B
:1041C00016465CD081604FF02003EFF3118783F334
:1041D0001288BFF36F8F013275F1FF3324DA2D4956
:1041E000D1E900206FF001039B1A4FF0FF3262EB20
:1041F00000009E1B60EB0500012E70F1000301DA48
:1042000001260020C4E90460234ED6F800C075687A
:10421000B44508BF4FF0000CBCF1000F0DD1C4E94C
:1042200000652C6074601CE0FFF77CFF013645F1EF
:104230000005361845EBE070E4E7DCE90420D4E93A
:104240000431934271EB000E1ADAD21ADCF8043012
:1042500060EB0100CCE90420C4E900C31C60CCF889
:1042600004403368B34206D09C4204D1FFF764FF98
:104270000021FEF797FA87F31188BFF36F8FF8BD1F
:104280009B1A61EB0001AC45C4E90431C7D0DCF8EE
:1042900000C0C1E7A8030020B00100202DE9F84FBD
:1042A0004FF02003EFF3118C83F31288BFF36F8F6D
:1042B000DFF8B0A0DFF8B0902C4FC9F80000DAF8B2
:1042C00000000024504508BF00200025D7E9002148
:1042D000D9F80030E04680B3D0E9046C4FEAE37EC1
:1042E000B3427EEB0C0B05DAF61A6CEB0E04C0E958
:1042F000046422E0B21841EBE671C0E90445C7E965
:104300000021FFF739FF88F31188BFF36F8F8368AF
:1043100098474FF02003EFF3118883F31288BFF31F
:104320006F8FD9F80030DAF800009B1B5045C44667
:10433000C9F80030CAD1D7E900219A1841EBE373DC
:104340000024C7E90023C9F80040FFF7F5FE214625
:10435000FEF728FA88F31188BFF36F8FBDE8F84F96
:10436000FFF728BDB00100205C0A0020A803002050
:1043700010B54FF02003EFF3118483F31288BFF3DD
:104380006F8FFFF7CFFE064A0346D2E900011818E7
:1043900041EBE37184F31188BFF36F8F10BD00BF51
:1043A000A8030020F8B504464FF02003EFF311876F
:1043B00083F31288BFF36F8F026822B187F31188ED
:1043C000BFF36F8FF8BDD0E90A36581C46F10001E3
:1043D000022871F1000127D3012B76F10001BCBF47
:1043E000012316465D1E46F1FF3601F0C1FC013087
:1043F00041F10001401946EB0101012871F1000172
:104400003ADB01F0B5FC013041F100016FF001022F
:10441000401946EB0103121A4FF0FF3161EB030321
:1044200018492046FFF7C4FE236B01332363236A38
:1044300073B187F31188BFF36F8F236A20469847C3
:104440004FF02003EFF3118783F31288BFF36F8FD0
:1044500054F8185FA542B1D0002DAFD0284601F026
:10446000CBFB0023AB6787F31188BFF36F8F284620
:10447000BDE8F84001F095BB6FF001024FF0FF334B
:10448000CEE700BFA54300002DE9F04105461C46DC
:1044900090461F464FF02003EFF3118683F31288F6
:1044A000BFF36F8FB4F1FF3F08BFB2F1FF3F05D1FB
:1044B00086F31188BFF36F8FBDE8F081531C74F150
:1044C000FF3309DB012A74F10003BCBF0122002481
:1044D00012F1FF3844F1FF37284601F02FFCDDE9E7
:1044E00006010023C5E90A012B63034942463B4606
:1044F0002846FFF75DFEDBE7A5430000014800F01A
:10450000C0BC00BF2D66000010B50A4C23681BB16B
:1045100001232360002010BD00F0EAF80028F7D046
:104520000138062803D8044B53F8200010BD034877
:1045300010BD00BF600A0020A4620000FE8FFFFFD4
:10454000BFF34F8F0549064BCA6802F4E06213437C
:10455000CB60BFF34F8F00BFFDE700BF00ED00E071
:104560000400FA0510B4094B09490A4C4FF0FE3219
:10457000C3F800244968C3F80424C3F80824C3F826
:104580000C240023C4F8003510BC084700B00250CA
:10459000B801002000A00250D0E90012014BC3E98D
:1045A00000127047B801002010B5044650B163688E
:1045B00013F0685F05D0064A934202D000232360BF
:1045C000626010BD034B04485B689847EFE700BF8B
:1045D0002C5F5CA9B8010020C0620000C8B143682C
:1045E0000D4A934213D013F0685F0ED0012350E8B8
:1045F000002F194640E8001C9CF0000FF7D1012A5B
:10460000F5D0BFF35F8F002070470448704704481F
:1046100070476FF4E04070472C5F5CA9E98FFFFFA3
:10462000EA8FFFFF80B14368094A93420AD013F032
:10463000685F05D0BFF35F8F0023036018467047A3
:1046400004487047044870476FF4E040704700BF6B
:104650002C5F5CA9E98FFFFFEA8FFFFF10B50446CE
:1046600020B1044B63600022226010BD0248FFF7B6
:1046700079FFF6E73A00003AE862000070B5D0E949
:104680000023174C174D6360D0E90230C4E90230B3
:1046900022604868D1F800C0134BC3E900C0D5F8C8
:1046A0001801D1F808C0C3F808C010F0685FD1F84D
:1046B0000CC00969C3F80CC0196110D00B49C5F8CA
:1046C000BC110023C5E9453105F58A70C5F8B8313C
:1046D0009047236805F5DC70BDE87040184770BD51
:1046E000D4010020780A0020C00100202C5F5CA9C2
:1046F00038B500F02FF820B1032400F063F820460D
:1047000038BD00F031F898B900F0ACF898B90F4D09
:10471000D5F828391B0EF02B08D1D5F8242A0C4BDC
:104720009A420AD0072400F017F8E6E70624FAE7D1
:104730000424204638BD0024F5E7012000F092F85B
:1047400004460028F7D1C5F80C0AD8E700B002509B
:104750000000E0200020704700207047014BC3F8A4
:10476000040A704700B0025010B5114800F048F834
:1047700000B110BD0F4800F043F80028F9D10E4CED
:10478000204600F03DF80028F3D10C4B0C481C608B
:1047900000F036F801460028EBD100F02DF8044671
:1047A00008B1204610BD00F03FF82046FAE700BFF0
:1047B00014020020100200200C020020040200203D
:1047C0000802002008B5084800F024F8074800F067
:1047D00021F8074800F01EF8064800F01BF8BDE875
:1047E000084000F00BB800BF1402002010020020A7
:1047F0000C0200200802002000207047704700BF14
:1048000008B5034B02681B6810689847002008BD74
:10481000D401002008B5034B02685B681068984714
:10482000002008BDD401002070B5094C094D206955
:10483000AB68984718B1084B08485B689847084A26
:10484000EB68206900211160BDE87040184700BF87
:10485000C0010020D4010020B80100200C6300003A
:10486000740A0020F8B51A4D1A4E0446B268286939
:104870009047E8B9184F3B684CB1A3B1012B19D050
:10488000013B3B602869F36898470020F8BD43B9B5
:10489000124A0121C2F800151149D1F81029002A45
:1048A000FBD101333B60F368286998470020F8BDCD
:1048B0000C48F8BD0A4AD2F81039002BFBD1074A40
:1048C0006FF07E40C2F80035FFF748FF3B68D7E73E
:1048D000C0010020D4010020740A002000A0025072
:1048E00000B00250E98FFFFF08B5054B044613B135
:1048F0000021AFF3008000F0ABFA2046FCF722FD68
:10490000000000002DE9F04F8DB0436802938378DA
:1049100015469A07804640F10D8100240E78002E3E
:1049200000F00A81252E0BD04B1C03930134029B0F
:104930004146304698470028C0F2F6800399EDE7DB
:104940004E788B1C252E0393F0D00027B946BB462A
:10495000BBF11F0F38D8A6F12003102B0AD8DFE8CF
:1049600003F02A0909300909092109090928092D33
:1049700009091F00A6F13003092B33D92A2E37D19C
:104980001BF0400F55F8043B40F08280002BA7BF7E
:104990004BF0200B9946C3F100094BF0280B01E0C6
:1049A0004BF0010B039B13F8016B0393002ECFD147
:1049B00030E04BF0020B4BF0040BF3E74BF0080B2D
:1049C000F0E74BF0100BEDE7BBF17F0F19D8A6F124
:1049D0003003092BD2D81BF0400F03D00A2101FB72
:1049E0000737DFE70A2101FB09394BF0200BD9E734
:1049F0002E2E06D11BF0400F40F09E804BF0400B56
:104A0000D0E76C2E31D02BD8682E36D06A2E3CD011
:104A10004C2E3AD0002F46F02003B8BF2BF04002B6
:104A2000A3F16501BCBF1FFA82FB0027022901D94F
:104A3000612B2FD1073525F00705DFF8ACA208352B
:104A400007271BF0080F66D00AEB070B56465E459A
:104A500063D1A4EB0A0A06EB0A02A9EB07096FE18E
:104A6000742E9FD07A2E9DD0D4E71BF0800F18BFF4
:104A70004BF4007B4BF0800B94E71BF4807F18BF56
:104A80004BF4007B4BF4807B8CE74BF4207B89E775
:104A90001F4687E7A6F16301122900F2F080DFE8E4
:104AA00011F013004F00EE00EE00EE00EE004F009C
:104AB000EE00EE00EE00EE00EE00FE00E900EE007B
:104AC000EE001B00EE00AF0055F8043B8DF81830E7
:104AD00001270DF1180AB4E755F804AB834BBAF17E
:104AE000000F08BF9A461BF0400F14BF39464FF025
:104AF000FF31504601F081F90746A2E7029B41468B
:104B00002020984700280FDB013EB742F6D34C44E3
:104B1000A41BB14698E74E46F7E716F8010B029B37
:104B200041469847002892DA98F8023043F004038F
:104B300088F802304FF0FF3420460DB0BDE8F08F0A
:104B40001BF0800F34D01BF4007F2CD0073525F0EC
:104B50000705AA4669685AF8080B2BF010050029CA
:104B6000ADB237DA404261EB410145F480650DF1A9
:104B7000180B0A235A4601F04CF9A0EB0B030193E2
:104B80006B0662D5019B25F001019F4289B240F37B
:104B9000A180002E00F0998015F0100240F09C805A
:104BA000BB460D4623E0AA465AF8040BC117D4E7CA
:104BB000AA461BF4807F5AF8041B01D10846F5E78A
:104BC0001BF4007F15BF48B208B241F3C01141F396
:104BD000C031C2E750EA0103C9D11BF0400FC6D073
:104BE000002FC4D12BF0110295B2BB46019740F2C1
:104BF000064115EA01021CBF0BF1010B00222CE05B
:104C00002BF010021FFA82FB0A231BF0800C49D004
:104C10001BF400711DBF073525F00705AA46AA46FB
:104C20001ABF5AF8080B69685AF8040B50EA0105D4
:104C300045D12BF016051BF0400FADB242D0002F2E
:104C400040D12BF0170295B2019715F0100248D011
:104C5000019B002E42D103F1010B29075AD4EB0727
:104C600006D5D9456FDD0199A9EB0B035F18CB463B
:104C70005B4649E04BF0100B10237826C5E7782BF4
:104C800004D1C6F1780343F01003BEE7029B41460E
:104C9000252098470028FFF647AF023447E608234F
:104CA0000026B2E7AA461BF480715AF8040BBDD067
:104CB0001BF400711ABFC0B2614680B2B6E72BF098
:104CC000060295B20DF1180B54E725F01105ADB2AF
:104CD000BB468CE70D46B8E73B460D4603F1020B99
:104CE000BBE7DDF804B082E7626600005B660000A7
:104CF000CDE904324146029B202098470028FFF668
:104D000013AF049B059A01339945F1DCA4EB0B0129
:104D1000CC189B460AB3029B414630209847002896
:104D2000FFF602AF8EB901342744019B391B99422B
:104D300024DC1D465DBB019AA9EB0B0922445546B4
:104D40001446914435E0019F92E7023441463046D3
:104D5000029B98470028E7DAE6E640F206410D425A
:104D6000E2D015F0020F14BF2B20202015F4806F25
:104D700004F10104414618BF2D20E9E7029B41469A
:104D800030209847002804F10104CEDACCE606ABC7
:104D9000013D4146585D029B98470028CADAC3E6A8
:104DA000029B414620209847002804F10104FFF6A9
:104DB000BBAEA9EB0403002BF2DCBFE5F0B589B074
:104DC00005460C46164600211C2201A81F4601F08C
:104DD00085F802238DF806300B4B0293059520468B
:104DE0002CB1B4F1004F28BF4FF00040013805440A
:104DF0003A46314601A80695FFF784FD14B1059B9C
:104E000000221A7009B0F0BDED5E000070B588B0E8
:104E100004460D46164600211C2201A801F05EF84A
:104E200002238DF80630094B029304F10043013B45
:104E30003246294601A806930594FFF763FD002832
:104E4000A4BF0023235408B070BD00BFED5E000076
:104E500038B5074D074C641BA41024B9064B0BB1A1
:104E6000AFF3008038BD013C55F824309847F4E793
:104E7000000000000000000000000000704700205B
:104E800070470FB407B504A951F8040B0191FBF763
:104E900089FB03B05DF804EB04B0704700EBC10080
:104EA000408840087047F8B50346FFF7F7FFB0FAAF
:104EB00080F0C0F11F0003EB800CCA00DCF810602A
:104EC000171D0C4606328DB256B9012101FA00F0C9
:104ED000D9680143D960CCF81040DD539D52F8BD2C
:104EE000F1000431585AD85303EBC0009E52C580DC
:104EF0005D52F4E7043A2DE9F041CC1D114424F051
:104F0000070421F007010E1BF708B7FA87F2C2F178
:104F10002405AD004FF000080735C2F12002ED086E
:104F200004604146A760C4F80C80920004F11000B0
:104F300000F0D4FF6B0043F00103638004EBC50273
:104F40007B1B5900A4F800805180A21924F8355029
:104F5000A2F80280A35304EBC70329465A8842F003
:104F600001025A802046BDE8F041FFF79CBF038B49
:104F700013F0070305D10368002B0CBF00200320AA
:104F80007047022B05D1408BB0FA80F040098000B9
:104F90007047012B05D10368002B0CBF00200520B2
:104FA00070470020704710B50C4600B111B96FF082
:104FB000150010BD081D00F095F80028F9D1A36870
:104FC000032BF6D9F3E72DE9F0410D4607461946C4
:104FD000281D90461E4600F096F8044638B1334628
:104FE000424629463846A446BDE8F0416047BDE840
:104FF000F08110B44FF02004EFF3118284F3128893
:10500000BFF36F8F416110BC0121FBF7FDBA38B5CA
:105010000C46054658B151B10B6843B14B6833B1EA
:105020001C22002100F05AFF2C61002038BD6FF0D7
:105030001500FBE770B505460E46FFF7B4FF041EEA
:1050400015DB4FF02003EFF3118283F31288BFF3D7
:105050006F8F6B8B2C8B4FF6FF718B4204F0070424
:1050600007D182F31188BFF36F8F6FF00A042046D7
:1050700070BD022C0CD101336B8382F31188BFF316
:105080006F8F0023224631462846FFF79CFFEEE74C
:10509000062C14D8DFE804F004131313041A0400D8
:1050A000002333606B683BB9C5E90066ACB90221E7
:1050B0002846FBF7A9FADAE71E606E60F6E782F38E
:1050C0001188BFF36F8F6FF00404D0E782F311886B
:1050D000BFF36F8F6FF08504C9E782F31188BFF3C8
:1050E0006F8FC4E7034658B1426802F00302012AF9
:1050F00003D0032A04D1026812B1002098607047DF
:105100006FF0150070474268816002F00302032AC5
:105110004FF0000203460CBF006810465A6070470B
:10512000704708B50020FBF77DFBFEF7FDB901468F
:105130000068FEF7F9B908B5FBF77EFCBDE808404A
:10514000FBF7ACBC00210120FFF7EFBF202809D9F5
:10515000B0F1004F08D80138B0FA80F0C0F11F005C
:1051600040007047082070473E2070472DE9FF41FE
:105170000E469846144605460027B74220DA68686E
:10518000C8B1B8F1000F07D0431E184216D11F282E
:1051900014D92A68134211D12B680193FFF7D6FF67
:1051A000AB6803430393E3B2072B07D8204601A95A
:1051B000FBF7D6FF013401370C35DEE76FF015043D
:1051C000204604B0BDE8F08108B5FCF7A7F8002040
:1051D00008BD0369C9B20C2201FB0233186C00F050
:1051E000070070474FF02003EFF3118283F312881A
:1051F000BFF36F8F036803F0C00343F00203036043
:1052000082F31188BFF36F8F704770B5C9B203691D
:105210004FF02004EFF3118584F31288BFF36F8FF2
:105220000C2606FB0134246C14F0C00408D0A24202
:1052300006D085F31188BFF36F8F4FF0FF3070BD3C
:1052400006FB013301221A6485F31188BFF36F8FC7
:10525000436803EBC1035B6898470020EFE78022B7
:10526000FFF7D3BFF8B5069F0469C9B24FF0200518
:10527000EFF3118685F31288BFF36F8F0C2505FBC2
:105280000144256C05F0070CBCF1010F0CD127641B
:1052900086F31188BFF36F8FC4E90E23436853F878
:1052A000313098470020F8BD05F0C005AF4286F3C5
:1052B0001188BFF36F8F0CBF6FF077004FF0FF3096
:1052C000F1E713B580240094FFF7CCFF02B010BDC6
:1052D00010B40069CBB21C2403FB0400002110BCF5
:1052E00010470020FDF774BC002000F018BB1046EA
:1052F000FEF7B2BB43685B68D3F810350B60002043
:10530000704743685B6802EA010021EA0201C3F8C2
:105310000805C3F80C150020704743685B6800203F
:10532000C3F80815704743685B680020C3F80C1584
:10533000704743685A68D2F8043521EA03000B40ED
:10534000C2F80805C2F80C350020704710B5036993
:105350005868F8B1884219D19C6808685860A14221
:1053600000D19860002008602AB15A680A609A68E3
:10537000596002B99960002010E0814206D10868A6
:10538000206098688142EDD19C60EBE7044600689C
:105390000028F2D1002AE8D16FF0150010BD30B519
:1053A00043681360057A446804EBC504A34202D342
:1053B0006FF0010030BD5C798C4201D00833F0E71A
:1053C0000020F7E743681B68D3F88004C3F8800423
:1053D000704710B544682368C3F84415C3F84825DE
:1053E0000022C3F82021D3F82011C3F85821D3F8A4
:1053F00058216268D20611D50269D2682AB1D2F862
:10540000C01041F00101C2F8C010426812680821C2
:10541000C2F800154FF48002C3F8042301229A60F9
:1054200010BD0369DA6813680BB1526818477047FA
:1054300070B586B0066904460D461422002101A805
:1054400000F04CFD02238DF80430F3689A6D1B6E5A
:10545000029201A92046CDE90335FFF7E2FF06B02D
:1054600070BD70B50E6886B005460C467EB114223C
:10547000002101A800F032FD04230DEB03012846B2
:105480008DF804300296FFF7CCFF0023236006B0AE
:1054900070BD10B586B004461422002101A800F0AA
:1054A0001DFD052301A920468DF80430FFF7B9FF43
:1054B00006B010BD70B5436805691B684FF0200049
:1054C000EFF3118680F31288BFF36F8FEC68A06D45
:1054D00098B1606EA0B96166EC68A266C3F8341535
:1054E000C3F83825D3F8002242F02002C3F8002286
:1054F00086F31188BFF36F8F70BD6FF00C00F7E774
:105500006FF00F00F4E70369D86820B10160DB6831
:1055100000205A6070476FF08500704710B502692F
:105520004368D0681B6860B9D3F8104164B19269D0
:1055300012780A70C3F81001D3F8102101221A6002
:1055400010BD6FF08500FBE74FF0FF30F8E738B58E
:10555000436805691C68EB689A6DD2B15B6E53B104
:10556000D4F8003223F02003C4F800320023C4F83A
:105570004C31D4F84C31E868803000F007FCEB681F
:10558000002083F8CA00EA68012382F8CB30636008
:1055900038BD6FF00D00FBE708B5C368DA68D9695C
:1055A000521A0FD0082A28BF08225A61C368996985
:1055B0001961C3689868D9690144986900F080FC52
:1055C000012008BD1046FCE773B506681446D6F8FE
:1055D0003C550B46F1B10021184600F07FFC034614
:1055E0000146C6F834150021C6F838450120C6F832
:1055F0001011D6F81021F062D6F810010028FBD067
:10560000C6F81011D6F81021D6F83C052BB9C0B257
:1056100002B070BD05246946E3E78542F7D11A1947
:10562000934201D10020F3E713F8011B0029F7D0C2
:10563000EDE770B5044602694FF02003EFF31186E1
:1056400083F31288BFF36F8FD068D0F8C03023EA9D
:105650000103C0F8C030D568D5F8C03073B902294D
:1056600007D16068052205F1C401FFF7ADFF85F899
:10567000C90063681B680022C3F8002586F31188FF
:10568000BFF36F8F70BD02680346D2F8580140B96E
:105690005B689B0706D4D2F82001003818BF0120B0
:1056A00070470120704710B504464068FFF7EBFFD4
:1056B000CB6818B9012283F8CD2010BD002283F8F1
:1056C000CD20CB684FF0FF32C3F8BC20CB6820461A
:1056D000D3E90412BDE81040FFF77BBE2DE9F04787
:1056E000D0F804A00469DAF8008017469AF8082078
:1056F00005468946002A76D1E26892F8CA10002948
:1057000074D192F8CB0000F0FF0100286ED15367EE
:10571000E268052093FBF0F39367E368C3F85890C1
:10572000E368DF65E3681966E3685966E3689966CC
:10573000DAF80430DA0623D5E16891F8C960FEB1E1
:10574000BE4228BF3E4648463246C43100F0B8FB50
:10575000BF1BB14414D1E26892F8C9309B1B82F898
:10576000C93031462846FFF763FEE16828465831C4
:10577000FFF777FE2846FFF78CFE0020BDE8F08794
:105780000023C8F83495C8F83875C8F81031D8F82F
:105790001021C8F84C31D8F84C31E368012283F865
:1057A000CA20DAF80430DB0619D54FF02003EFF3F6
:1057B000118183F31288BFF36F8F2B69DB682BB1E4
:1057C000D3F8C02042F00202C3F8C0206B681B6807
:1057D0000822C3F8002581F31188BFF36F8F0123DE
:1057E000C8F80030C9E76FF08500C7E76FF00F0019
:1057F000C4E7F8B5456BEB6893F8CE3003F0FF07CC
:1058000003BB2E6873681B681022C3F80823EB687B
:10581000D3F8B820D96E91421FBFDA66EB685A6F91
:10582000DA67EB68D3E91B42A41A0CD5C3F8B82099
:10583000EB68D3E917128A420AD873681B681022F2
:10584000C3F80423F8BDD3E91712A018884206D97B
:105850008C1A002CF1DD9B6DC3B1012708E0002CF0
:10586000EBD0D3E91E128A4215DA9B6D002BE4D0EF
:1058700021463046FFF7DCFDEA68136E23441366C9
:10588000EA68136F23441367002FD6D0E86880308E
:1058900000F07CFAD1E7521ADA67CEE738B54268F1
:1058A00003691568DA68916851B1002482F8CD4027
:1058B000D868203000F06AFA0123EB60204638BD3A
:1058C0006FF00D00FBE7436B1868FFF7E7BF00F1CF
:1058D00050039B009BB203F1804303F58833002201
:1058E0001A601B68704708B50020FBF765FAFEF7E1
:1058F0000BBE08B5FAF7B4FFFBF788F8BDE808401F
:10590000FEF702BE004700F093B8C00000F18040EF
:1059100000F5F830C0F81015C0F814257047FDF7F1
:10592000D3B8F7B5019001A8DDE9084716461D4632
:10593000FDF7D6F9019BB6F1000C18BF4FF0010C32
:1059400000EB83000B1E18BF0123002D43EA4C031C
:1059500014BF4FF00C0C4FF0000C002C43EA0C036A
:1059600014BF4FF4E06C4FF0000C002F43EA0C031F
:10597000D0F8002714BF4FF4403C4FF0000C43EA2E
:105980000C0322EA030301B109780EB136787600E0
:1059900019430DB12D78AD0031430CB124782402A8
:1059A00029430FB13F783F040C433C43C0F8004704
:1059B00003B0F0BD1FB50DF10F03019300238DF867
:1059C0000F1000931A461946FFF7ABFF05B05DF8BC
:1059D00004FB38B5054608460C46FDF7D3F9B0B1CF
:1059E0000846FDF7C3F990B90846FDF7B3F92A68F0
:1059F00001238340C2F808332A6803B202EB830311
:105A0000D3F8102522F00302C3F8102538BD204634
:105A10000021BDE83840FFF7CDBFFDF739BAFFF7E9
:105A2000D8BFFDF74DBD08B5FFF7FBFF002008BD4F
:105A300008B1FBF7CFBC7047704740B1C3685878D6
:105A400010F001001EBF1878B0FA80F040097047CE
:105A500000F044BA00F034BA82684369134313F08B
:105A600003030CD1C3600169994201D8002070473B
:105A7000C16811604169C26001330A44F3E76FF005
:105A80001500704710B5C0E90432002381608361BE
:105A90000446FFF7E1FF0028A8BFC4E9004410BD99
:105AA000F8B504460D464FF02003EFF3118683F35B
:105AB0001288BFF36F8FC7686FB900F0ECF850B170
:105AC0008767456100F06DF8314604F10800BDE8D4
:105AD000F840FEF703BAE3682B60A369E560013B79
